:1000000014C1000040C100003EC100003CC100001E
:100010003AC1000038C1000036C1000034C1000000
:1000200032C1000030C100002EC100002CC1000010
:100030002AC1000028C1000026C1000024C1000020
:1000400022C1000020C100001EC100001CC1000030
:100050001AC1000018C1000016C10000AEC20000A5
:1000600012C1000010C100000EC100000CC1000050
:100070000AC1000008C1000006C1000004C1000060
:1000800002C1000000C10000FEC00000FCC0000072
:10009000FAC00000F8C00000F6C00000F4C0000084
:1000A000F2C00000F0C00000EEC00000ECC0000094
:1000B000EAC00000E8C00000E6C00000E4C00000A4
:1000C000E2C00000E0C00000DEC00000DCC00000B4
:1000D000DAC00000D8C00000D6C00000D4C00000C4
:1000E000D2C0000081018401730177017D01BB0151
:1000F00088018C01920196019A01A001A401A80136
:10010000BB01AE01B201B6010000210024002700AE
:100110002A002D0030003300010100000401070116
:100120000A0100002200250028002B002E003100CB
:10013000340002010000050108010B01000020004D
:100140002300260029002C002F00320000010000AF
:10015000030106010901050505050705080808084A
:10016000020202020A0A080804040404010101014F
:10017000010101010303030303030303040707074A
:100180000C0C0C0C0C0C0C0C0202020206060606EF
:10019000060606060B0B0B0B0B0B0B0B01021020BC
:1001A00020080810204010204080020102010804AD
:1001B0000201010204081020408080402010080441
:1001C000020180040201804020100804020108049A
:1001D00002010102040810204080010204081020DE
:1001E000408000000A0B02090C0D0E0807030401F1
:1001F00000000000000000000000000000000000FF
:1002000000000000000000000000000000001211CB
:1002100010000000000000000000000000000000CE
:100220000000000000000000E40411241FBECFEF16
:10023000D1E2DEBFCDBF00E00CBF12E0A0E0B2E033
:10024000E6E7FAE000E00BBF02C007900D92A4338E
:10025000B107D9F722E0A4E3B2E001C01D92AC3AA5
:10026000B207E1F711E0C5E1D1E000E005C0219758
:100270000109802FFE01F5D3C431D10780E00807C2
:10028000B1F7E5D1F6C3BCCE96E0899FD001112429
:10029000A35CBD4F90967C936E935F9791E091968F
:1002A0009C9391979091A902E091AA02F091AB02E0
:1002B000992339F0309751F0811108C0809159028B
:1002C00004C0309719F05C968C911994089590E0D1
:1002D000FC013197E231F10508F04DC08827EE5856
:1002E000FF4F8F4FBEC3809180008F7703C08091F6
:1002F00080008F7D80938000089580918000877FAB
:10030000F9CF84B58F7702C084B58F7D84BD089501
:100310008091B0008F7703C08091B0008F7D809373
:10032000B0000895809190008F7707C08091900071
:100330008F7D03C080919000877F80939000089507
:100340008091A0008F7707C08091A0008F7D03C0AF
:100350008091A000877F8093A00008958091200164
:100360008F7707C0809120018F7D03C0809120018D
:10037000877F809320010895CF93DF93282F30E06B
:10038000F901EE51FE4F8491F901E456FE4FD491EC
:10039000F901EA5AFE4FC491CC2389F0811197DF0D
:1003A000EC2FF0E0EE0FFF1FE45CFE4FA591B4913F
:1003B000EC91ED2381E090E021F480E002C080E048
:1003C00090E0DF91CF910895862FD6CF1F93CF93E2
:1003D000DF93282F30E0F901EE51FE4F8491F901AF
:1003E000E456FE4FD491F901EA5AFE4FC491CC2352
:1003F000C1F0162F81116BDFEC2FF0E0EE0FFF1F25
:10040000EE5DFE4FA591B4918FB7F894111105C020
:100410009C91ED2FE095E92302C0EC91ED2BEC933C
:100420008FBFDF91CF911F910895862F642FCECF7C
:10043000CF93DF9390E0FC01E456FE4F2491FC0142
:10044000EA5AFE4F8491882361F190E0880F991F4A
:10045000FC01E85FFE4FC591D491FC01EE5DFE4FBB
:10046000A591B491611109C09FB7F8948881209536
:1004700082238883EC912E230BC0623061F49FB7F6
:10048000F8943881822F809583238883EC912E2BDA
:100490002C939FBF06C08FB7F894E8812E2B28833A
:1004A0008FBFDF91CF910895862F642FC1CF2FB7D3
:1004B000F8946091390270913A0280913B029091D8
:1004C0003C022FBF08950F931F93CF93DF93C82F44
:1004D000D62F86E0C89FF0011124E35CFD4F11A2E6
:1004E000878D90A181309105E1F01CF4892B49F0B2
:1004F0003FC08230910591F10397D1F560E070E043
:1005000031C06623A9F161E070E08C2FBDDECFDF42
:10051000609395027093960280939702909398024D
:1005200027C0C5DF00919502109196022091970295
:1005300030919802AB01BC01401B510B620B730B55
:100540008091A7029091A802A0E0B0E084179507DF
:10055000A607B70718F462E070E004C0D11108C024
:1005600063E070E08C2FDF91CF911F910F918CCEC3
:10057000DF91CF911F910F910895DF92EF92FF923B
:100580000F931F93CF93DF937C01D62E04E312E0E9
:10059000C0E0D0E0CE15DF0544F4025011096D2D06
:1005A000F801808113DF2196F5CFDF91CF911F9164
:1005B0000F91FF90EF90DF9008951F920F920FB66A
:1005C0000F9211242F933F938F939F93AF93BF93D9
:1005D0008091390290913A02A0913B02B0913C0285
:1005E0003091380223E0230F2D3720F40196A11D0E
:1005F000B11D05C026E8230F0296A11DB11D209351
:1006000038028093390290933A02A0933B02B09350
:100610003C028091340290913502A0913602B09153
:1006200037020196A11DB11D8093340290933502CB
:10063000A0933602B0933702BF91AF919F918F91F3
:100640003F912F910F900FBE0F901F9018957894A7
:1006500084B5826084BD84B5816084BD85B58260C7
:1006600085BD85B5816085BD80916E008160809378
:100670006E001092810080918100826080938100E1
:1006800080918100816080938100809180008160F1
:10069000809380008091B10084608093B10080914C
:1006A000B00081608093B00080919100826080935F
:1006B00091008091910081608093910080919000E1
:1006C0008160809390008091A10082608093A1005E
:1006D0008091A10081608093A1008091A000816041
:1006E0008093A000809121018260809321018091FC
:1006F000210181608093210180912001816080939C
:10070000200180917A00846080937A0080917A0041
:10071000826080937A0080917A00816080937A0071
:1007200080917A00806880937A001092C100C2E2C2
:10073000D2E08881229661E07BDE82E0C433D80774
:10074000C1F760E070E089E090E017DF412C512CA8
:1007500032014394CC24CA94DC2C81E08093A9021A
:10076000A6DE0091990210919A0220919B0230918D
:100770009C02AB01BC01401B510B620B730B8091BF
:10078000A5029091A602A0E0B0E084179507A60705
:10079000B70708F0FEC0C0E08091A302C81758F464
:1007A000E0919F02F091A002EC0FF11D62E08081C8
:1007B0003FDECF5FF1CF912C8091A402981608F014
:1007C0005AC0092D10E0E091A102F091A202E00FC1
:1007D000F11F61E080812CDEE091A102F091A20284
:1007E000E00FF11F60E08081F1DDD301C201092C2F
:1007F00004C0880F991FAA1FBB1F0A94D2F75C017F
:100800007C01E094F094812C8091A3028816F0F48E
:10081000C82DD0E0E0919F02F091A002EC0FFD1FE7
:100820008081AADD2496CC0FDD1FC35CDD4F892BB0
:1008300029F4888199818A299B2904C0888199811A
:100840008E219F21998388838394DECFE091A1023A
:10085000F091A202E00FF11F61E08081B7DD80918D
:10086000A1029091A202FC01E00FF11F60E08081E3
:10087000DFDD9394A1CFE9E5F2E083819481892BB8
:1008800021F41082D282C1821582369682E0E53947
:10089000F80799F710E006E08091A302181708F016
:1008A00051C0F12CC12FD0E0CC0FDD1FCB5BDD4F51
:1008B0002091A402F21608F043C0688179810F2CC0
:1008C00002C0769567950A94E2F761707727129FC8
:1008D000900111242F0D311DE0919D02F0919E0297
:1008E000E20FF31FA081EDE3F2E080E0458D568D2D
:1008F0004217530711F461701AC08F5F36968A3021
:10090000A9F7672BD9F0E9E5F2E080E090E04081BB
:1009100041110FC0089FF001099FF00D1124E35C05
:10092000FD4FA48F368F258F10A2178E61E0CBDD8F
:1009300005C0019636968A30910549F7F394B8CFF1
:100940001F5FAACF80E090E0C0E0FC01E35CFD4FB8
:1009500021A12111C1E006968C339105B1F7A7DDE5
:100960006093990270939A0280939B0290939C02E9
:10097000CC2379F080915E02882359F080915C024B
:1009800090915D02019729F480915902811104C070
:1009900013C01092A90210C090ED980F9A3038F44D
:1009A000082E000C990B61E070E0C09704C060E075
:1009B00070E089E090E0E1DD80E090E0892B09F4CF
:1009C000CCCE0E940000C9CE10923F02109243028A
:1009D00010924202109244028CE192E090933E0207
:1009E00080933D0280E090E0FC01E35CFD4F148EBB
:1009F00010A2178E11A206968C339105A9F784E0F8
:100A000092E09093A00280939F0280E092E0909306
:100A1000A2028093A10284E08093A3028093A402A7
:100A200088E092E090939E0280939D028AE090E09D
:100A30009093A6028093A50284EF91E09093A80280
:100A40008093A7021092AB021092AA021092990210
:100A500010929A0210929B0210929C021092A9028C
:100A60000895EE0FFF1F881F8BBF0790F691E02DB2
:060A70001994F894FFCF79
:100A76001F21232517191B1D373839B73435362A58
:100A86003132332D43303D2B000000005402150255
:100A9600E401000001000200030004000500060056
:040AA600070008003D
:00000001FF
