:100000000C9440010C9471010C9471010C947101D9
:100010000C9471010C9471010C9471010C94710198
:100020000C9471010C9471010C9471010C94710188
:100030000C9471010C9471010C9471010C94710178
:100040000C9471010C9471010C9471010C94710168
:100050000C9471010C9471010C9471010C941A07A9
:100060000C9471010C948E070C9464070C9471012C
:100070000C9471010C9471010C9471010C94710138
:100080000C9471010C9471010C9471010C94710128
:100090000C9471010C9471010C9471010C94710118
:1000A0000C9471010C9471010C9471010C94710108
:1000B0000C9471010C9471010C9471010C947101F8
:1000C0000C9471010C9471010C9471010C947101E8
:1000D0000C9471010C9471010C9471010C947101D8
:1000E0000C9471010C9432020C945B020C94490242
:1000F0000C9436020C9464020C94A6030C943902FE
:100100000C94D7030C946E030C9443020C94570286
:100110000C9479030C9424020C94C4070C9451029F
:100120000C9469020C9493060C942A020C94C90353
:100130000C942E020C940F040C94B5030C94FD0B3C
:100140000C944D020C9472030C945F020C94760391
:100150000C945C040C9465020C943F020000210096
:10016000240027002A002D00300033000101000088
:10017000040107010A0100002200250028002B00CD
:100180002E003100340002010000050108010B01BE
:10019000000020002300260029002C002F00320040
:1001A0000001000003010601090105050505070519
:1001B00008080808020202020A0A080804040404E3
:1001C000010101010101010103030303030303030F
:1001D000040707070C0C0C0C0C0C0C0C020202029E
:1001E00006060606060606060B0B0B0B0B0B0B0B87
:1001F0000102102020080810204010204080020139
:10020000020108040201010204081020408080401D
:10021000201008040201800402018040201008041C
:1002200002010804020101020408102040800102BA
:1002300004081020408000000A0B02090C0D0E0873
:10024000070304010000000000000000000000009F
:10025000000000000000000000000000000000009E
:10026000000012111000000000000000000000005B
:10027000000000000000000000000000C407FD0BAB
:1002800011241FBECFEFD1E2DEBFCDBF00E00CBF17
:1002900012E0A0E0B2E0E4E5FEE100E00BBF02C046
:1002A00007900D92A63CB107D9F723E0A6ECB2E087
:1002B00001C01D92A83EB207E1F711E0CFE3D1E003
:1002C00000E006C021970109802FFE010E94F30C77
:1002D000CE33D10780E00807A9F70E9457080C9495
:1002E000180F0C94000096E0899FD0011124AB58A0
:1002F000BC4F90967C936E935F9791E091969C9300
:100300009197E091E203F091E3039091E103992347
:1003100039F0309751F0811108C080919103199400
:10032000309719F05C968C91FACF0895CF92DF92B6
:10033000EF92FF920F931F9396E0899FF001112493
:10034000EB58FC4F11A2278D30A12130310551F11E
:1003500078F02230310509F451C02330310509F419
:1003600052C01F910F91FF90EF90DF90CF900895B2
:100370006623B9F361E070E00E9473012FB7F8942F
:100380008091CE029091CF02A091D002B091D10283
:100390002FBF8093CD039093CE03A093CF03B09350
:1003A000D003DFCF9FB7F894C090CE02D090CF0299
:1003B000E090D002F090D1029FBF0091CD03109148
:1003C000CE032091CF033091D003C01AD10AE20AA4
:1003D000F30A0091DF031091E00330E020E00C15F8
:1003E0001D052E053F0550F462E070E01F910F914E
:1003F000FF90EF90DF90CF900C9473016111B1CF1B
:1004000063E070E0F3CF70E060E0F0CF81508231C4
:1004100008F05AC0E82FF0E08827EE5EFD4F8F4FBE
:100420000C94F30C3202360224022A022E026402D9
:1004300039023F02430249024D02510257025B0258
:1004400064025F0265026902809180008F77809369
:1004500080000895809180008F7DF9CF8091800089
:10046000877FF5CF84B58F7784BD089584B58F7D60
:10047000FBCF8091B0008F778093B000089580917A
:10048000B0008F7DF9CF809190008F77809390009E
:100490000895809190008F7DF9CF80919000877FA3
:1004A000F5CF8091A0008F778093A0000895809170
:1004B000A0008F7DF9CF8091A000877FF5CF80913C
:1004C00020018F77809320010895809120018F7DF6
:1004D000F9CF80912001877FF5CFCF93DF93282F2D
:1004E00030E0F901EA5CFD4F8491F901E051FE4FE3
:1004F000D491F901E655FE4FC491CC23A1F08111AE
:100500000E940602EC2FF0E0EE0FFF1FE057FE4FB7
:10051000A591B491EC91ED2381E090E009F480E0A5
:10052000DF91CF91089580E090E0FACF1F93CF93B1
:10053000DF93282F30E0F901EA5CFD4F8491F90147
:10054000E051FE4FD491F901E655FE4FC491CC2302
:10055000A9F0162F81110E940602EC2FF0E0EE0F99
:10056000FF1FEA58FE4FA591B4918FB7F894EC9114
:10057000111108C0D095DE23DC938FBFDF91CF919E
:100580001F910895DE2BF8CFCF93DF9390E0FC010D
:10059000E051FE4F249186559E4FFC0184918823A3
:1005A000C9F090E0880F991FFC01E45AFE4FA59115
:1005B000B491FC01EA58FE4FC591D49161110DC070
:1005C0009FB7F8948C91209582238C93888128235F
:1005D00028839FBFDF91CF910895623051F49FB778
:1005E000F8943C91822F809583238C93E8812E2B65
:1005F000EFCF8FB7F894EC912E2B2C938FBFEACFCF
:1006000090917B00977F90937B00865380648093CA
:100610007C0080917A00806480937A0080917A00D7
:1006200086FDFCCF809178009091790008953FB7C6
:10063000F8948091CA029091CB02A091CC02B09123
:10064000CD0226B5A89B05C02F3F19F00196A11D2C
:10065000B11D3FBFBA2FA92F982F8827BC01CD010C
:10066000620F711D811D911D42E0660F771F881F6B
:10067000991F4A95D1F708958F929F92AF92BF929A
:10068000CF92DF92EF92FF924B015C010E94170321
:100690006B017C010E9417036C197D098E099F096B
:1006A000683E734081059105A8F321E0821A910804
:1006B000A108B10888EEC80E83E0D81EE11CF11C29
:1006C00081149104A104B10429F7FF90EF90DF9009
:1006D000CF90BF90AF909F908F900895862F642FFA
:1006E0000C94C402862F642F0C949602862F0C94CF
:1006F0006D02AF92BF92CF92DF92EF92FF920F9373
:100700001F93CF93DF936C017B018B01040F151FA7
:10071000EB015E01AE18BF08C017D10759F069910F
:10072000D601ED91FC910190F081E02DC601199563
:10073000892B79F7C501DF91CF911F910F91FF9020
:10074000EF90DF90CF90BF90AF900895FC01538D54
:10075000448D252F30E0842F90E0821B930B54179B
:1007600010F0CF96089501970895FC01918D828D28
:10077000981761F0A28DAE0FBF2FB11D5D968C91C1
:10078000928D9F5F9F73928F90E008958FEF9FEF00
:100790000895FC01918D828D981731F0828DE80FBC
:1007A000F11D858D90E008958FEF9FEF0895FC0176
:1007B000918D228D892F90E0805C9F4F821B910943
:1007C0008F739927089582ED92E00E94D70321E06C
:1007D000892B09F420E0822F0895FC01A48DA80F35
:1007E000B92FB11DA35ABF4F2C91848D90E0019673
:1007F0008F739927848FA689B7892C93A089B18993
:100800008C91837080648C93938D848D981306C033
:100810000288F389E02D80818F7D80830895EF9297
:10082000FF920F931F93CF93DF93EC0181E0888FAA
:100830009B8D8C8D98131AC0E889F989808185FF7A
:1008400015C09FB7F894EE89FF896083E889F9891C
:1008500080818370806480839FBF81E090E0DF911E
:10086000CF911F910F91FF90EF900895F62E0B8D71
:1008700010E00F5F1F4F0F731127E02E8C8D8E112C
:100880000CC00FB607FCFACFE889F989808185FF93
:10089000F5CFCE010E94ED03F1CFEB8DEC0FFD2FD4
:1008A000F11DE35AFF4FF0829FB7F8940B8FEA894E
:1008B000FB8980818062CFCFCF93DF93EC01888D5D
:1008C0008823B9F0AA89BB89E889F9898C9185FDCB
:1008D00003C0808186FD0DC00FB607FCF7CF8C9159
:1008E00085FFF2CF808185FFEDCFCE010E94ED0321
:1008F000E9CFDF91CF91089580E090E0892B29F036
:100900000E94E30381110E94000080E090E0892BA7
:1009100049F080E090E0892B29F00E9400008111CD
:100920000E94000080E090E0892B49F080E090E098
:10093000892B29F00E94000081110E94000080E0B4
:1009400090E0892B49F080E090E0892B29F00E940B
:10095000000081110C9400000895FC01019000201A
:10096000E9F73197AF01481B590BBC0182ED92E0CA
:100970000C9479030F931F93CF93DF93EC0188813D
:100980009981009759F02A813B812617370730F06B
:1009900081E0DF91CF911F910F9108958B016F5FDF
:1009A0007F4F0E94270E009759F0998388831B83FD
:1009B0000A832C813D81232B59F7FC011082E8CF5B
:1009C00080E0E7CFEF92FF920F931F93CF93DF93D7
:1009D0006115710541F480E0DF91CF911F910F9176
:1009E000FF90EF90089541155105B1F07B01EC01A6
:1009F0000C811D81040F151FB8010E94BA048823C1
:100A000051F3288139818C819D81B701820F931F19
:100A10000E94110F1D830C8381E0DECFCF93DF9303
:100A2000EC0188819981009711F00E949E0D198236
:100A300018821D821C821B821A82DF91CF91089539
:100A4000CF93DF93EC01FB0101900020E9F7319790
:100A5000AF01461B570B0E94E204811103C0CE0177
:100A60000E940E05CE01DF91CF910895CF93DF93C1
:100A7000EC01FB0144815581608171810E94E20497
:100A8000811103C0CE010E940E05CE01DF91CF91EE
:100A90000895EF92FF920F931F93CF93DF93EC0192
:100AA0007B018A01BA010E94BA0481110BC0CE01F8
:100AB0000E940E05CE01DF91CF911F910F91FF9003
:100AC000EF9008951D830C83B701888199810E945E
:100AD000110FF0CFFB0101900020E9F73197AF0132
:100AE000461B570B0C9449050F931F93CF93DF932D
:100AF000CDB7DEB7A2970FB6F894DEBF0FBECDBF5D
:100B00008C01CB01BA01F80111821082138212828A
:100B1000158214822AE0AE014F5F5F4F0E94330CB2
:100B2000BE016F5F7F4FC8010E946A05A2960FB693
:100B3000F894DEBF0FBECDBFDF91CF911F910F9113
:100B40000895CF93DF93EC01FB018617970749F0D7
:100B5000608171816115710541F0448155810E9468
:100B60004905CE01DF91CF9108950E940E05F9CF7E
:100B7000FC011182108213821282158214820C945D
:100B8000A105FC0111821082138212821582148247
:100B9000FB0101900020E9F73197AF01461B570B8D
:100BA0000C944905FC0180819181009711F00C940F
:100BB0009E0D0895AF92BF92CF92DF92EF92FF9277
:100BC0000F931F93CF93DF93CDB7DEB72E970FB65A
:100BD000F894DEBF0FBECDBF7C018B01B42E66E45E
:100BE00072E0CE0107960E94C10560E08B2D0E9445
:100BF0009602D12CC12CD80114968D919C911597F9
:100C0000C816D90688F5ED91FC91309751F51092F0
:100C1000C602E6ECF2E080818EBD00000DB407FE56
:100C2000FDCF8EB51A8219821C821B821E821D8204
:100C30008D871E86BE01635F7F4FCE0101960E94A5
:100C40006A054D815E8169817A81CE0107960E9495
:100C5000E204CE0101960E94D205BFEFCB1ADB0A57
:100C6000CACFEC0DFD1DD7CF87E392E00E94AD0403
:100C7000F801448155816081718182ED92E00E948A
:100C8000790384E492E00E94AD0461E08B2D0E9420
:100C90009602AB84BC84CC24C394D12CA114B1049F
:100CA00029F4D12CC12CAA24A394B12C66E472E0BF
:100CB000C7010E94C1050B851C85C016D106D0F462
:100CC000A016B10608F48501EF81F885E00FF11F49
:100CD000B08010826F8178856C0D7D1DC701611514
:100CE0007105F1F00E946A058F819885080F191F20
:100CF000D801BC92CE0107960E94D205C7012E965C
:100D00000FB6F894DEBF0FBECDBFDF91CF911F911C
:100D10000F91FF90EF90DF90CF90BF90AF9008952C
:100D20000E940E05E1CF1F93CF93DF93CDB7DEB7BF
:100D300068970FB6F894DEBF0FBECDBF2091940325
:100D40003091950321303105A1F4182F8334D9F463
:100D50001092C80266E472E08FE693E00E946A0592
:100D600081E0809300028093010284E492E00E947B
:100D7000AD0468960FB6F894DEBF0FBECDBFDF910D
:100D8000CF911F91089580910002882391F380ED07
:100D9000810F8A3048F5612F82ED92E00E940F04A6
:100DA0001C8A1B8A1E8A1D8A188E1F8A812F110F8A
:100DB000990B4AE0BE016F5F7F4FC0970E94280CDD
:100DC000BE016F5F7F4FCE0143960E946A054F8937
:100DD000588D6B897C898FE693E00E94E204CE01F6
:100DE00043960E94D205C5CF8091C80281111CC0D4
:100DF0001D3309F0BECF84E492E00E94AD048091DF
:100E00006F039091700360E0009711F00E94010C55
:100E10006093C80281E08093010266E472E08FE68D
:100E200093E00E946A05A5CF612F82ED92E00E94B7
:100E30000F049FCF1F920F920FB60F9211242F9382
:100E40003F938F939F93AF93BF938091CE029091E6
:100E5000CF02A091D002B091D1023091C90223E01B
:100E6000230F2D3758F50196A11DB11D2093C902FE
:100E70008093CE029093CF02A093D002B093D10280
:100E80008091CA029091CB02A091CC02B091CD0288
:100E90000196A11DB11D8093CA029093CB02A0932D
:100EA000CC02B093CD02BF91AF919F918F913F91B2
:100EB0002F910F900FBE0F901F90189526E8230FCB
:100EC0000296A11DB11DD2CF1F920F920FB60F92A5
:100ED00011240BB60F922F933F934F935F936F9311
:100EE0007F938F939F93AF93BF93EF93FF9382ED85
:100EF00092E00E94ED03FF91EF91BF91AF919F911E
:100F00008F917F916F915F914F913F912F910F90B2
:100F10000BBE0F900FBE0F901F9018951F920F924F
:100F20000FB60F9211240BB60F922F938F939F93AE
:100F3000EF93FF93E091E202F091E3028081E09170
:100F4000E802F091E90282FD1DC090818091EB02E0
:100F50008F5F8F732091EC02821741F0E091EB02DA
:100F6000F0E0EE52FD4F958F8093EB02FF91EF91F1
:100F70009F918F912F910F900BBE0F900FBE0F90EE
:100F80001F9018958081F2CF1092D5021092D40252
:100F900088EE93E0A0E0B0E08093D6029093D70271
:100FA000A093D802B093D9028FE192E09093D3023C
:100FB0008093D20285EC90E09093DF028093DE0272
:100FC00084EC90E09093E1028093E00280EC90E06A
:100FD0009093E3028093E20281EC90E09093E5022B
:100FE0008093E40282EC90E09093E7028093E60223
:100FF00086EC90E09093E9028093E8021092EB0275
:101000001092EC021092ED021092EE021092770311
:1010100010927B0310927A0310927C0381E392E09A
:101020009093760380937503E1E9F3E010821482D4
:1010300013821582369683E0ED3CF807B9F785E018
:1010400092E09093D8038093D70382E092E090934C
:10105000DA038093D90384E08093DB0383E08093F9
:10106000DC0389E092E09093D6038093D5038AE075
:1010700090E09093DE038093DD0384EF91E0909302
:10108000E0038093DF031092E3031092E2031092D7
:10109000D1031092D2031092D3031092D403109272
:1010A000E10366E472E08FE693E00C94C105CF9310
:1010B000DF93CDB7DEB76A970FB6F894DEBF0FBEE9
:1010C000CDBF789484B5826084BD84B5816084BDD1
:1010D00085B5826085BD85B5816085BD80916E00D6
:1010E000816080936E001092810080918100826007
:1010F0008093810080918100816080938100809144
:1011000080008160809380008091B1008460809332
:10111000B1008091B00081608093B0008091910017
:101120008260809391008091910081608093910012
:10113000809190008160809390008091A1008260F6
:101140008093A1008091A10081608093A100809193
:10115000A00081608093A000809121018260809333
:1011600021018091210181608093210180912001E2
:1011700081608093200180917A00846080937A005E
:1011800080917A00826080937A0080917A008160F9
:1011900080937A0080917A00806880937A00109220
:1011A000C1008CB58C7F8CBD8DB581608DBD1FB7A6
:1011B000F8948091C702811127C0EFEDF1E084918E
:1011C000E5E2F2E09491E82FF0E0EE0FFF1FE45A21
:1011D000FE4FA591B491EC91E92321F461E085E300
:1011E0000E94960261E085E30E94C4028CB5806192
:1011F0008CBD8CB580648CBD61E084E30E94C40228
:1012000061E083E30E94C4028091C7028F5F8093F4
:10121000C7021FBFE091E202F091E30282E0808307
:10122000E091DE02F091DF021082E091E002F091A5
:10123000E1028FEC80831092EA02E091E602F091E5
:10124000E70286E08083E091E402F091E50280818C
:1012500080618083E091E402F091E5028081886002
:101260008083E091E402F091E502808180688083D0
:10127000E091E402F091E50280818F7D808387E434
:1012800092E00E94AD0484E492E00E94AD0461E02B
:1012900080E30E94C40261E081E30E94C40261E035
:1012A00085E30E94C40261E080E30E94960261E04F
:1012B00081E30E94960261E085E30E94960283E941
:1012C00096E09093E3038093E20382E390E09093AF
:1012D000E0038093DF03412C512C32014394882496
:1012E0008A9453E0952EA12CB12C21E02093E103A8
:1012F0008FB7F8944091CE025091CF026091D00206
:101300007091D1028FBF8091D1039091D203A091AF
:10131000D303B091D403481B590B6A0B7B0B80910C
:10132000DD039091DE03B0E0A0E010E084179507A4
:10133000A607B70790F01092E1038091C8028130B0
:1013400009F434C108F422C1823009F45DC183304C
:1013500009F4AEC10E947C04C8CF8091DB0318174A
:1013600060F4E091D703F091D803E10FF11D62E042
:1013700080810E94C4021F5FF0CF312C8091DC037A
:10138000381608F066C0032D10E0E091D903F09103
:10139000DA03E00FF11F61E080810E94C402E09156
:1013A000D903F091DA03E00FF11F60E080810E9421
:1013B000960273016201032C04C0CC0CDD1CEE1CF0
:1013C000FF1C0A94D2F7DA8EC98EC094D094212CD7
:1013D0008091DB03281630F5E22CF12CE091D70345
:1013E000F091D803EE0DFF1D80810E946D02F70180
:1013F0003496892B71F4EE0FFF1FEB58FC4F808160
:101400009181298D3A8D822B932B91838083239414
:10141000DFCFEE0FFF1FEB58FC4F808191818C21B5
:101420009D21F3CFE091D903F091DA03E00FF11F92
:1014300061E080810E9496028091D9039091DA0345
:10144000080F191F60E0F80180810E94C4023394E4
:1014500095CF95E7E92E93E0F92E8701F801878D66
:1014600090A1892B31F4148E2FEF3FEF368F258F0B
:1014700011A20A5F1F4F33E0013B130779F7D12C0C
:101480008091DB03D81608F053C0C12C2D2C312CD1
:10149000220C331CC10183589C4F1C012091DC039A
:1014A000C21608F043C0F101608171810C2C02C0AA
:1014B000769567950A94E2F7D29E900111242C0D3F
:1014C000311DE5E7F3E080E0458D568D24173507A3
:1014D00009F491C18F5F36968A30B1F760FF24C05E
:1014E000E5E7F3E090E080E0448D411118C0E09121
:1014F000D503F091D603E20FF31F408156E0589FC9
:10150000F001599FF00D1124EB58FC4F448F368F9A
:10151000258F10A2178E61E00E94960105C00196EA
:1015200036968A30910501F7C394B8CFD394A8CFEB
:1015300080E0F70191A19111892FF6E0EF0EF11CE7
:101540000E151F05B1F79FB7F8944091CE02509148
:10155000CF026091D0027091D1029FBF4093D1031E
:101560005093D2036093D3037093D403882309F478
:10157000E2CE80919603882309F4DDCE8091940316
:1015800090919503019709F0D6CED7CE80910102B4
:10159000882309F4DFCE83E592E00E94AD0484E461
:1015A00092E00E94AD0410920102D4CE68EC70E08B
:1015B00080E090E00E943C0364E672E0CE01019678
:1015C0000E94C10540E350E0BE016F5F7F4FCE0136
:1015D00007960E94DA05CE0101960E94D2058CE79B
:1015E00092E00E94AD044B855C856F81788582ED29
:1015F00092E00E94790384E492E00E94AD04CE015F
:1016000007960E94D205A6CE68EC70E080E090E0DC
:101610000E943C036AE872E0CE0101960E94C10577
:1016200041E350E0BE016F5F7F4FCE010D960E94F7
:10163000DA05CE0101960E94D2056AE972E0CE0178
:1016400001960E94C105BE01635F7F4FCE010196E6
:101650000E9436056FE972E00E942005BC01CE01B0
:101660000D960E94A105CE0101960E94D20568EC5C
:1016700070E080E090E00E943C03BE01635F7F4F1A
:10168000CE0107960E94B80540E350E0BE01695FB5
:101690007F4FCE0101960E94DA05CE0101960E948D
:1016A000D205CE0107960E94D205CE010D96A9CF94
:1016B0006CE271E080E090E00E943C0386E30E94CF
:1016C00000038C0187E30E9400037C0128E230E0E4
:1016D000D8010E94FB0CA50194010E94A30CBA0141
:1016E000A901CE0101960E94740562EA72E0CE0162
:1016F00007960E94C105BE016F5F7F4FCE0107961E
:101700000E94360560EB72E00E942005BC01CE010C
:1017100043960E94B805CE0107960E94D205CE01DD
:1017200001960E94D20528EC30E0D7010E94FB0C04
:10173000A50194010E94A30CBA01A9014E5C5F4F60
:101740006F4F7F4FCE0101960E94740563EB72E0EC
:10175000CE0107960E94C105BE016F5F7F4FCE018B
:1017600007960E94360561EC72E00E942005BC01DC
:10177000CE010D960E94B805CE0107960E94D205B3
:10178000CE0101960E94D205BE016D5E7F4FCE0153
:1017900007960E94B80540E350E0BE01695F7F4FA5
:1017A000CE0101960E94DA05CE0101960E94D20573
:1017B000CE0107960E94D205BE01635F7F4FCE0126
:1017C00007960E94B80541E350E0BE01695F7F4F74
:1017D000CE0101960E94DA05CE0101960E94D20543
:1017E000CE0107960E94D205CE010D960E94D20529
:1017F000CE01439606CF61708FCE8FE693E00C94B6
:10180000D2051F93FC0199278827BC01E894119108
:101810001032E9F3193010F01E30C8F31B3251F0CA
:101820001D3249F4689406C00E94420C610F711D7C
:10183000811D911D119110531A30B0F33EF4909513
:101840008095709561957F4F8F4F9F4F1F910895A1
:10185000BB274A3031F4992322F4BDE2909581955B
:101860009F4F0C947A0CBB272A3051F4992342F4F1
:10187000BDE290958095709561957F4F8F4F9F4FFA
:101880000C94580C592F482F372F262F660F771F8F
:10189000881F991F660F771F881F991F620F731F7C
:1018A000841F951F660F771F881F991F0895BB27F8
:1018B000FA01A62F6217710581059105330B30FBE4
:1018C00066F0AA27660F771F881F991FAA1FA21705
:1018D00010F0A21B63953850A9F7A05DAA3308F059
:1018E000A95DA19336F7B111B1931082CA010C948E
:1018F000930CBB27FB015527AA27880F991FAA1F06
:10190000A41710F0A41B83955051B9F7A05DAA331A
:1019100008F0A95DA193009779F7B111B1931192E5
:10192000CB010C94930CDC01FC01672F71917723A0
:10193000E1F7329704C07C916D9370836291AE178A
:10194000BF07C8F30895052E97FB1EF400940E946C
:10195000BA0C57FD07D00E94C20C07FC03D04EF40E
:101960000C94BA0C50954095309521953F4F4F4FB0
:101970005F4F089590958095709561957F4F8F4F3B
:101980009F4F0895A1E21A2EAA1BBB1BFD010DC09B
:10199000AA1FBB1FEE1FFF1FA217B307E407F5071F
:1019A00020F0A21BB30BE40BF50B661F771F881FFB
:1019B000991F1A9469F760957095809590959B0191
:1019C000AC01BD01CF010895A29FB001B39FC0013A
:1019D000A39F700D811D1124911DB29F700D811D5B
:1019E0001124911D0895EE0FFF1F881F8BBF0790D4
:1019F000F691E02D19940E94E40CB7FF0895821B24
:101A0000930B08950F931F93CF93DF93823091052B
:101A100010F482E090E0E091E603F091E70330E01B
:101A200020E0B0E0A0E0309799F42115310509F4E9
:101A30004AC0281B390B24303105D8F58A819B8197
:101A40006115710589F1FB0193838283FE0111C049
:101A5000408151810281138148175907E0F04817EE
:101A6000590799F4109761F012960C9312971396F8
:101A70001C933296CF01DF91CF911F910F91089562
:101A80000093E6031093E703F4CF2115310551F0DD
:101A90004217530738F0A901DB019A01BD01DF01AC
:101AA000F801C1CFEF01F9CF9093E7038093E603EC
:101AB000CDCFFE01E20FF31F8193919322503109A4
:101AC00039832883D7CF2091E4033091E503232B7A
:101AD00041F420911702309118023093E5032093CE
:101AE000E40320911502309116022115310541F4CD
:101AF0002DB73EB74091190250911A02241B350BA5
:101B0000E091E403F091E503E217F307A0F42E1B44
:101B10003F0B2817390778F0AC014E5F5F4F241751
:101B2000350748F04E0F5F1F5093E5034093E403E1
:101B3000819391939FCFF0E0E0E09CCFCF93DF9330
:101B40000097E9F0FC01329713821282A091E6031C
:101B5000B091E703ED0130E020E01097A1F420817F
:101B60003181820F931F2091E4033091E503281700
:101B7000390709F061C0F093E503E093E403DF91D6
:101B8000CF910895EA01CE17DF07E8F54A815B811E
:101B90009E0141155105B1F7E901FB83EA834991A3
:101BA0005991C40FD51FEC17FD0761F48081918115
:101BB0000296840F951FE90199838883828193811E
:101BC0009B838A83F0E0E0E012968D919C911397BD
:101BD0000097B9F52D913C911197CD010296820F96
:101BE000931F2091E4033091E5032817390739F654
:101BF000309751F51092E7031092E603B093E50396
:101C0000A093E403BCCFD383C28340815181840F6E
:101C1000951FC817D90761F44E5F5F4F888199817E
:101C2000480F591F518340838A819B81938382830C
:101C30002115310509F0B0CFF093E703E093E603F7
:101C40009ECFFD01DC01C0CF13821282D7CF4F920D
:101C50005F926F927F928F929F92AF92BF92CF923C
:101C6000DF92EF92FF920F931F93CF93DF938C013C
:101C7000009799F4CB01DF91CF911F910F91FF90C5
:101C8000EF90DF90CF90BF90AF909F908F907F901C
:101C90006F905F904F900C94020DFC01E60FF71FC0
:101CA0009C0122503109E217F30708F4AEC0D901B4
:101CB000CD91DC911197C617D70720F1C530D1051A
:101CC00078F0CE0104978617970750F0C61BD70B04
:101CD0002297C193D1936D937C93CF010E949E0D67
:101CE000C801DF91CF911F910F91FF90EF90DF908E
:101CF000CF90BF90AF909F908F907F906F905F90AC
:101D00004F9008955B01AC1ABD0A4C018C0E9D1ECC
:101D1000A091E603B091E703512C412CF12CE12C6A
:101D2000109731F58091E4039091E50388159905AA
:101D300009F05CC04616570608F058C0809115029D
:101D400090911602009741F48DB79EB74091190209
:101D500050911A02841B950BE817F90708F055C03B
:101D6000F093E503E093E403F90171836083B8CF56
:101D70008D919C91119712966C90129713967C906E
:101D80001397A815B90559F56C0142E0C40ED11C92
:101D9000CA14DB0420F1AC014A195B09DA0112967E
:101DA000159780F06282738251834083D9016D93CD
:101DB0007C93E114F10471F0D7011396FC93EE9338
:101DC00012978ECF22968C0F9D1FF90191838083ED
:101DD000F301EFCFF093E703E093E60381CF4816DA
:101DE000590608F42C017D01D3019ACFCB010E9442
:101DF000020D7C01009749F0AE01B8010E94080F66
:101E0000C8010E949E0D87016BCF10E000E068CFF3
:101E1000FB01DC0102C001900D9241505040D8F707
:101E20000895FB01DC0101900D920020E1F7089577
:101E300011E0CFE3D1E000E006C0802FFE010E9458
:101E4000F30C2196011DC034D10780E00807A9F7E3
:041E5000F894FFCF34
:101E5400010118171628292A2B3132333435363725
:101E6400383943303D0000E8038000000000000FD3
:101E7400047903A6035C04D703B503C90300000077
:101E8400006E03720376034D6173746572205365AB
:101E94006E6420000D0A00535049204D41535445AF
:101EA400523A007175657374696F6E206E756D6258
:101EB40065723A0046617273686964204E6F6F738D
:101EC400686920393833313036380A00202C2052E2
:101ED400656365697665643A200046617273686972
:101EE40064204E6F6F7368690A00486920220022DB
:101EF4000A0054656D70657261747572653A2000EC
:101F0400430A00496C6C756D696E616E63653A20B5
:061F14000043440A000036
:00000001FF
