:100000000C9435010C9466010C9466010C94660105
:100010000C9466010C9466010C9466010C946601C4
:100020000C9466010C9466010C9466010C946601B4
:100030000C9466010C9466010C9466010C946601A4
:100040000C9466010C9466010C9466010C94660194
:100050000C9466010C9466010C9466010C94CA021F
:100060000C9474030C943E030C9414030C946601DA
:100070000C9466010C9466010C9466010C94660164
:100080000C9466010C9466010C9466010C94660154
:100090000C9466010C9466010C9466010C94660144
:1000A0000C9466010C9466010C9466010C94660134
:1000B0000C9466010C9466010C9466010C94660124
:1000C0000C9466010C9466010C9466010C94660114
:1000D0000C9466010C9466010C9466010C94660104
:1000E0000C9466010C940B040C944B020C941F04AA
:1000F0000C94B8010C9427040C94C6010C9495013F
:100100000C9415040C94F2030C9431040C9419040F
:100110000C9468010C94F6030C94A4010C94FA035B
:100120000C94CE030C942A050C942D040C94010419
:100130000C94D3030C9411040C94FE010C9407044A
:100140000C9423040C94FE030000200023002600DE
:1001500029002C002F0032000001000003010601DD
:10016000090100000A0B02090C0D0E080703040127
:10017000000000000000000000000000000000007F
:10018000000000000000000000000000000012114C
:10019000100000000000000000000000000000004F
:1001A00000000000000000000000220025002800E0
:1001B0002B002E003100340002010000050108016F
:1001C0000B0100002100240027002A002D00300030
:1001D000330001010000040107010A0105050505BE
:1001E000070508080808020202020A0A08080404AF
:1001F00004040101010101010101030303030303DD
:100200000303040707070C0C0C0C0C0C0C0C02026B
:10021000020206060606060606060B0B0B0B0B0B68
:100220000B0B0102102020080810204010204080F5
:1002300002010201080402010102040810204080AA
:100240008040201008040201800402018040201038
:100250000804020108040201010204081020408081
:1002600001020408102040802A0511241FBECFEF90
:10027000D1E2DEBFCDBF00E00CBF13E0A0E0B2E0F2
:10028000E0EDFAE000E00BBF02C007900D92A23251
:10029000B107D9F725E0A2E2B3E001C01D92AB3C63
:1002A000B207E1F711E0C5E3D1E000E006C0219715
:1002B0000109802FFE010E945705C433D10780E059
:1002C0000807A9F70E944B040C9466050C940000E3
:1002D000AF92BF92CF92DF92EF92FF920F931F9354
:1002E000CF93DF936C017B018B01040F151FEB0192
:1002F0005E01AE18BF08C017D10759F06991D60149
:10030000ED91FC910190F081E02DC6011995892BAA
:1003100079F7C501DF91CF911F910F91FF90EF9079
:10032000DF90CF90BF90AF900895FC01538D448D26
:10033000252F30E0842F90E0821B930B541710F090
:10034000CF96089501970895FC01918D828D98179D
:1003500061F0A28DAE0FBF2FB11D5D968C91928D75
:100360009F5F9F73928F90E008958FEF9FEF0895A6
:10037000FC01918D828D981731F0828DE80FF11D6F
:10038000858D90E008958FEF9FEF0895FC01918D8A
:10039000228D892F90E0805C9F4F821B91098F7383
:1003A000992708958EE295E00E94C60121E0892BED
:1003B00009F420E0822F0895FC01A48DA80FB92F25
:1003C000B11DA35ABF4F2C91848D90E001968F737D
:1003D0009927848FA689B7892C93A089B1898C919C
:1003E000837080648C93938D848D981306C00288EB
:1003F000F389E02D80818F7D80830895EF92FF92B5
:100400000F931F93CF93DF93EC0181E0888F9B8D37
:100410008C8D98131AC0E889F989808185FF15C0F1
:100420009FB7F894EE89FF896083E889F989808114
:100430008370806480839FBF81E090E0DF91CF91E3
:100440001F910F91FF90EF900895F62E0B8D10E005
:100450000F5F1F4F0F731127E02E8C8D8E110CC074
:100460000FB607FCFACFE889F989808185FFF5CFBF
:10047000CE010E94DC01F1CFEB8DEC0FFD2FF11DC1
:10048000E35AFF4FF0829FB7F8940B8FEA89FB89FC
:1004900080818062CFCFCF93DF93EC01888D88235A
:1004A000B9F0AA89BB89E889F9898C9185FD03C0D7
:1004B000808186FD0DC00FB607FCF7CF8C9185FFBC
:1004C000F2CF808185FFEDCFCE010E94DC01E9CF24
:1004D000DF91CF91089580E090E0892B29F00E9470
:1004E000D20181110E94000080E090E0892B49F048
:1004F00080E090E0892B29F00E94000081110E9489
:10050000000080E090E0892B49F080E090E0892BAA
:1005100029F00E94000081110E94000080E090E01C
:10052000892B49F080E090E0892B29F00E9400009F
:1005300081110C9400000895FC0101900020E9F75E
:100540003197AF01481B590BBC018EE295E00C942A
:100550006801CF93DF93C0E0D1E0E4E2F4E0DF0193
:10056000CE011D920197E9F762E273E0CF010E948C
:100570005F05E2E2F3E0DF01CE011D920197E9F7AA
:10058000109223041092220481E080932405DF91CD
:10059000CF9108951F920F920FB60F9211242F93AF
:1005A0003F938F939F93AF93BF9380912A05909130
:1005B0002B05A0912C05B0912D053091290523E044
:1005C000230F2D3758F50196A11DB11D2093290544
:1005D00080932A0590932B05A0932C05B0932D05AD
:1005E0008091250590912605A0912705B0912805B9
:1005F0000196A11DB11D8093250590932605A0931A
:100600002705B0932805BF91AF919F918F913F919E
:100610002F910F900FBE0F901F90189526E8230F73
:100620000296A11DB11DD2CF1F920F920FB60F924D
:1006300011240BB60F922F933F934F935F936F93B9
:100640007F938F939F93AF93BF93EF93FF938EE22C
:1006500095E00E94DC01FF91EF91BF91AF919F91D6
:100660008F917F916F915F914F913F912F910F905B
:100670000BBE0F900FBE0F901F9018951F920F92F8
:100680000FB60F9211240BB60F922F938F939F9357
:10069000EF93FF93E0913E05F0913F058081E0915B
:1006A0004405F091450582FD1DC09081809147056C
:1006B0008F5F8F7320914805821741F0E0914705C5
:1006C000F0E0E25DFA4F958F80934705FF91EF913F
:1006D0009F918F912F910F900BBE0F900FBE0F9097
:1006E0001F9018958081F2CF1F920F920FB60F9234
:1006F00011240BB60F922F933F934F935F936F93F9
:100700007F938F939F93AF93BF93EF93FF93E7E90B
:10071000F1E08491E7E5F2E02491E1E1F2E09491E7
:1007200091111DC08EB5E0912204F0912304EE5D7D
:10073000FC4F808380912204909123040196909332
:1007400023048093220480912204909123048F3FFC
:10075000910509F008F489C00E94A90290C088237D
:1007600011F181508231F8F4E82FF0E08827E45449
:10077000FC4F8F4F0C945705FA03FE03CE03F20390
:10078000F603D303010407040B0411041504190430
:100790001F042304D30327042D0431048091800017
:1007A0008F7780938000E92FF0E0EE0FFF1FE85B6A
:1007B000FE4FA591B491EC912E2309F4B3CFFF9194
:1007C000EF91BF91AF919F918F917F916F915F91C9
:1007D0004F913F912F910F900BBE0F900FBE0F9036
:1007E0001F901895809180008F7DDBCF80918000D5
:1007F000877FD7CF84B58F7784BDD5CF84B58F7DE4
:10080000FBCF8091B0008F778093B000CCCF8091E8
:10081000B0008F7DF9CF809190008F77809390000A
:10082000C2CF809190008F7DF9CF80919000877F1B
:10083000F5CF8091A0008F778093A000B4CF8091F6
:10084000A0008F7DF9CF8091A000877FF5CF8091A8
:1008500020018F7780932001A6CF809120018F7D8A
:10086000F9CF80912001877FF5CFE0912204F091AC
:100870002304EF5DFC4F80818A3009F46DCFE09155
:100880002204F0912304E150FE4F80818EBD0DB40F
:1008900007FEFDCF94CF789484B5826084BD84B583
:1008A000816084BD85B5826085BD85B5816085BD6B
:1008B00080916E00816080936E0010928100809123
:1008C00081008260809381008091810081608093AB
:1008D0008100809180008160809380008091B100D0
:1008E00084608093B1008091B00081608093B000FB
:1008F000809191008260809391008091910081604D
:10090000809391008091900081608093900080910D
:10091000A10082608093A1008091A10081608093FA
:10092000A1008091A00081608093A00080912101AE
:100930008260809321018091210181608093210157
:100940008091200181608093200180917A008460F1
:1009500080937A0080917A00826080937A008091FF
:100960007A00816080937A0080917A008068809319
:100970007A001092C100E5E2F2E02491EFEDF1E09F
:100980008491882399F090E0880F991FFC01EE5321
:10099000FE4FA591B491FC01E855FE4F85919491CD
:1009A0008FB7F894EC91E22BEC938FBFE0913E056A
:1009B000F0913F0582E08083E0913A05F0913B059C
:1009C0001082E0913C05F0913D058FEC8083109200
:1009D0004605E0914205F091430586E08083E09171
:1009E0004005F0914105808180618083E091400560
:1009F000F0914105808188608083E0914005F0910D
:100A00004105808180688083E0914005F091410537
:100A100080818F7D808382E193E00E949C028FE140
:100A200093E00E949C0284B1887F84B9239A80EC71
:100A30008CBD80912405882351F084E294E00E94CB
:100A40009C028FE193E00E949C02109224050E9478
:100A50006B02EFCFEEE2F5E01382128288EE93E0B4
:100A6000A0E0B0E084839583A683B78384E093E01D
:100A70009183808385EC90E09587848784EC90E077
:100A80009787868780EC90E0918B808B81EC90E05B
:100A9000938B828B82EC90E0958B848B86EC90E03C
:100AA000978B868B118E128E138E148E0895EE0FF7
:100AB000FF1F881F8BBF0790F691E02D1994FB0153
:100AC000DC0101900D920020E1F70895F894FFCF2A
:100AD0006F6B00000000000000000000000000003C
:100AE0000000000000000000000000000000000006
:100AF00000000000000000000000000000000000F6
:100B000000000000000000000000000000000000E5
:100B100000000000000000000000000000000000D5
:100B200000000000000000000000000000000000C5
:100B300000000000000000000000000000000000B5
:100B400000000000000000000000000000000000A5
:100B50000000000000000000000000000000000095
:100B60000000000000000000000000000000000085
:100B70000000000000000000000000000000000075
:100B80000000000000000000000000000000000065
:100B90000000000000000000000000000000000055
:100BA0000000000000000000000000000000000045
:100BB0000000000000000000000000000000000035
:100BC0000000000000000000000000000000000025
:100BD00000000000FE01680195014B02C601A4015E
:100BE000B80153504920534C4156455F323A000DED
:020BF0000A00F9
:00000001FF
