:1000000092C10000C0C10000BEC10000BCC1000020
:10001000BAC10000B8C10000B6C10000B4C1000000
:10002000B2C10000B0C10000AEC10000ACC1000010
:10003000AAC10000A8C10000A6C10000A4C1000020
:10004000A2C10000A0C100009EC100009CC1000030
:100050009AC1000098C1000096C1000015C40000BC
:1000600092C1000090C100008EC100008CC1000050
:100070008AC1000088C1000086C1000084C1000060
:1000800082C1000080C100007EC100007CC1000070
:100090007AC1000078C1000076C1000074C1000080
:1000A00072C1000070C100006EC100006CC1000090
:1000B0006AC1000068C1000066C1000064C10000A0
:1000C00062C1000060C100005EC100005CC10000B0
:1000D0005AC1000058C1000056C1000054C10000C0
:1000E00052C100001D0220020F0213021902570222
:1000F000240228022E02320236023C02400244024E
:1001000057024A024E02520200407A10F35A00A0EF
:10011000724E18090010A5D4E80000E876481700D0
:1001200000E40B54020000CA9A3B000000E1F50510
:10013000000080969800000040420F000000A0865A
:1001400001000000102700000000E803000000008C
:100150006400000000000A00000000000100000030
:1001600000002C76D888DC674F0823DFC1DFAE594A
:10017000E1B1B796E5E3E453C63AE651997696E8DD
:10018000E6C28426EB898C9B62ED407C6FFCEFBC61
:100190009C9F40F2BAA56FA5F490055A2AF75C938C
:1001A0006B6CF9676DC11BFCE0E40D47FEF520E6C2
:1001B000B500D0ED902E0300943577050080841EA5
:1001C000080000204E0A000000C80C333333330F00
:1001D000986E12831141EF8D2114893BE65516CF9D
:1001E000FEE6DB18D1844B381BF77C1D901DA4BBA9
:1001F000E424203284725E228100C9F124ECA1E55E
:100200003D2700002100240027002A002D00300097
:10021000330001010000040107010A01000022006F
:10022000250028002B002E003100340002010000C0
:10023000050108010B010000200023002600290011
:100240002C002F003200000100000301060109010B
:1002500005050505070508080808020202020A0A42
:100260000808040404040101010101010101030360
:10027000030303030303040707070C0C0C0C0C0C0B
:100280000C0C0202020206060606060606060B0B08
:100290000B0B0B0B0B0B0102102020080810204049
:1002A000102040800201020108040201010204083A
:1002B00010204080804020100804020180040201C8
:1002C0008040201008040201080402010102040811
:1002D00010204080010204081020408000000A0B1A
:1002E00002090C0D0E0807030401000000000000C5
:1002F00000000000000000000000000000000000FE
:1003000000000000000000001211100000000000BA
:1003100000000000000000000000000000000000DD
:100320000000D90B5E0C11241FBECFEFD1E2DEBF5F
:10033000CDBF00E00CBF23E0A8E8B2E001C01D92F1
:10034000AD32B207E1F712E0A0E0B2E0E4E2F6E29B
:1003500000E00BBF02C007900D92A838B107D9F793
:1003600011E0C2E9D1E000E006C021970109802F29
:10037000FE010E94B710C139D10780E00807A9F734
:10038000C2D70C9401133CCEFC0124813581621745
:10039000730720F480819181009729F410929502CF
:1003A00085E992E00895860F971F08950895CF92EA
:1003B000DF92EF92FF920F931F93CF93DF936C0125
:1003C0007A018B01C0E0D0E0CE15DF0589F0D801BD
:1003D0006D918D01D601ED91FC910190F081E02DA0
:1003E000C6011995892B11F47E0102C02196ECCF2C
:1003F000C701DF91CF911F910F91FF90EF90DF9098
:10040000CF90089590E0FC013197E231F10508F0BA
:100410004EC08827EE58FF4F8F4F0C94B710809135
:1004200080008F7703C0809180008F7D8093800053
:10043000089580918000877FF9CF84B58F7702C0BF
:1004400084B58F7D84BD08958091B0008F7703C0FF
:100450008091B0008F7D8093B000089580919000CE
:100460008F7707C0809190008F7D03C080919000AE
:10047000877F8093900008958091A0008F7707C0B8
:100480008091A0008F7D03C08091A000877F809322
:10049000A0000895809120018F7707C080912001EE
:1004A0008F7D03C080912001877F80932001089574
:1004B000CF93DF93282F30E0F901E452FD4F849170
:1004C000F901EA56FD4FD491F901E05BFD4FC4916B
:1004D000CC2389F0811196DFEC2FF0E0EE0FFF1FA7
:1004E000EA5CFD4FA591B491EC91ED2381E090E0A1
:1004F00021F480E002C080E090E0DF91CF91089588
:10050000862FD6CF3FB7F8948091910290919202B6
:10051000A0919302B091940226B5A89B05C02F3FED
:1005200019F00196A11DB11D3FBFBA2FA92F982F19
:100530008827820F911DA11DB11DBC01CD0142E094
:10054000660F771F881F991F4A95D1F708958F92DC
:100550009F92AF92BF92CF92DF92EF92FF926B0188
:100560007C01D0DF4B015C01C114D104E104F10432
:10057000E9F0C8DFDC01CB0188199909AA09BB0998
:10058000883E9340A105B10578F321E0C21AD10855
:10059000E108F10888EE880E83E0981EA11CB11CCA
:1005A000C114D104E104F10421F7DECFFF90EF90F4
:1005B000DF90CF90BF90AF909F908F900895089557
:1005C00080E090E008950E94E412FC018081918116
:1005D0000C946811109299021092980280919602E0
:1005E00090919702019662E070E00E94A4108093BF
:1005F000960290939702682F80E0D8C50F931F93BF
:10060000CF93DF93EC0188819981009729F02A81AB
:100610003B812617370788F48B016F5F7F4F0E945D
:100620000012009761F0998388831B830A832C81D1
:100630003D81232B11F4FC01108281E001C080E098
:10064000DF91CF911F910F910895EF92FF920F9339
:100650001F93CF93DF93EC017B018A01BA01CEDFB8
:100660002881398181110DC02115310519F0C90189
:100670000E946811198218821D821C821B821A82B4
:1006800006C01D830C83B701C9010E94FA12CE0176
:10069000DF91CF911F910F91FF90EF900895CF932D
:1006A000DF93EC016115710551F0FB010190002011
:1006B000E9F73197AF01461B570BC7DF0CC08881A4
:1006C0009981009711F00E946811198218821D8289
:1006D0001C821B821A82CE01DF91CF910895CF93A5
:1006E000DF931F921F92CDB7DEB7FC0111821082FB
:1006F000138212821582148269831A82BE016F5F8F
:100700007F4FCDDF0F900F90DF91CF910895FB01C8
:10071000DC0111961C921E9213961C921E92129747
:1007200015961C921E9214978617970741F06081C8
:1007300071816115710519F04481558186CF089545
:10074000FC011182108213821282158214826115BB
:10075000710549F0FB0101900020E9F73197AF01E5
:10076000461B570B72CF08951F93CF93DF93282F0B
:1007700030E0F901E452FD4F8491F901EA56FD4F52
:10078000D491F901E05BFD4FC491CC23C1F0162F49
:10079000811138DEEC2FF0E0EE0FFF1FE45EFD4F1D
:1007A000A591B4918FB7F894111105C09C91ED2FCC
:1007B000E095E92302C0EC91ED2BEC938FBFDF9124
:1007C000CF911F910895862F642FCECFCF93DF93C3
:1007D000EC0160E08E81C8DF61E08E81C5DF60E002
:1007E0008E81C2DF8BE891E00197F1F7DF91CF9125
:1007F0000895CF93DF9390E0FC01EA56FD4F2491DA
:10080000FC01E05BFD4F8491882361F190E0880F4B
:10081000991FFC01EE5FFD4FC591D491FC01E45E90
:10082000FD4FA591B491611109C09FB7F8948881DB
:10083000209582238883EC912E230BC0623061F4D3
:100840009FB7F8943881822F809583238883EC9119
:100850002E2B2C939FBF06C08FB7F894E8812E2BC8
:1008600028838FBFDF91CF910895862F642FC1CF4A
:100870002FB7F89460918D0270918E0280918F0253
:10088000909190022FBF08951F920F920FB60F9272
:1008900011242F933F938F939F93AF93BF93809196
:1008A0008D0290918E02A0918F02B09190023091B2
:1008B0008C0223E0230F2D3720F40196A11DB11DDA
:1008C00005C026E8230F0296A11DB11D20938C02BE
:1008D00080938D0290938E02A0938F02B09390022A
:1008E0008091910290919202A0919302B091940212
:1008F0000196A11DB11D8093910290939202A09345
:100900009302B0939402BF91AF919F918F913F91C9
:100910002F910F900FBE0F901F901895CF92DF92DE
:10092000EF92FF920F931F93CF93DF937C016C01A3
:1009300087E0C80ED11CC0E0D0E0062F10E0B8015F
:100940000C2E02C0759567950A94E2F76170F60166
:1009500081916F0109DF2196C430D10581F7C7016C
:10096000DF91CF911F910F91FF90EF90DF90CF908B
:100970002DCFCF92DF92EF92FF920F931F93CF93E1
:10098000DF93EC01F62E642F8C81EEDE8D818F3F9C
:1009900011F060E0E9DE8F850F2D10E084FF23C0A9
:1009A0006E0187E0C80ED11CE12CF12CB8010E2C91
:1009B00002C0759567950A94E2F76170F60181911E
:1009C0006F01D2DEFFEFEF1AFF0A88E0E816F104AC
:1009D00069F7CE01DF91CF911F910F91FF90EF90BA
:1009E000DF90CF90F3CEB80184E0759567958A9536
:1009F000E1F7CE0193DF6F2DCE01DF91CF911F91F3
:100A00000F91FF90EF90DF90CF9088CF41E0B1DF62
:100A100081E090E0089540E0ACCF61E0FCDF8BE343
:100A20009FE10197F1F708951092970210929602B4
:100A3000109299021092980281E193E0EECF8F928A
:100A40009F92AF92BF92CF92DF92EF92FF920F935D
:100A50001F93CF93DF93EC01C0909802D09099023E
:100A6000A0909602B090970220E130E02C193D0949
:100A70008C819D81A114B10409F49DC02817390708
:100A800008F065C08C01021B130BCEDF609196024B
:100A9000809198028BD3EC80FD80E01AF10A8C8162
:100AA0009D81E816F906B0F4B701CE016DDCFC01BA
:100AB000808190D3809198029091990201969093B1
:100AC000990280939802409709F484DDFFEFEF1AB2
:100AD000FF0AE5CF20E230E07901E81AF90A812C1B
:100AE000912C8E149F04BCF441E050E066E872E063
:100AF00081E193E05CDC80919802909199020196EB
:100B00009093990280939802409709F463DD8FEFE8
:100B1000881A980AE6CFE12CF12C8C819D81801BEC
:100B2000910BE816F906E8F4B701CE012DDCFC01C3
:100B3000808150D380919802909199020196909370
:100B4000990280939802FFEFEF1AFF0AE6CF6A2D11
:100B50008C2D2CD300E010E08C819D8108171907A3
:100B6000A8F0D0929902C0929802B0929702A092F7
:100B70009602DF91CF911F910F91FF90EF90DF9040
:100B8000CF90BF90AF909F908F900895B801CE0105
:100B9000FBDBFC0180811ED3809198029091990229
:100BA00001969093990280939802409709F412DD80
:100BB0000F5F1F4FD1CF60E028173907F0F48C2D5D
:100BC000F5D200E010E08C819D810817190748F6E6
:100BD000B801CE01D9DBFC018081FCD28091980262
:100BE0009091990201969093990280939802409770
:100BF00009F4F0DC0F5F1F4FE6CF8C2DD7D200E059
:100C000010E08C819D810817190708F0AACFB80160
:100C1000CE01BADBFC018081DDD2809198029091F7
:100C2000990201969093990280939802409709F453
:100C3000D1DC0F5F1F4FE5CFCF92DF92EF92FF9293
:100C40000F931F93CF93DF93CDB7DEB7A7970FB660
:100C5000F894DEBF0FBECDBF182F80919A029091FD
:100C60009B02009729F48FEC810F8430C8F008C0F4
:100C7000049731F48091BB029091BC02019781F1FD
:100C800080919A0290919B028230910509F0C5C033
:100C90008091BB029091BC02019709F0C9C176C056
:100CA00081E090E09093970280939602612FCE01AD
:100CB000019615DDCE010196C2DECE01019685DCDE
:100CC00068EE73E080E090E042DCAEDE612F110F51
:100CD000770B6053710970939B0260939A02A8C1CD
:100CE000612FCE010196FBDC80910B0390910C03E8
:100CF000009781F069817A816115710549F0409111
:100D00000D0350910E032D813E8142175307A8F524
:100D10000E94681189819A8190930C0380930B0340
:100D20008B819C8190930E0380930D038D819E8116
:100D30009093100380930F031A8219821C821B82E6
:100D40001E821D82CE01019640DC81E090E09093EE
:100D50009702809396026BE073E0CE010196D7DC98
:100D6000CE0101966CDECE0101962FDC68EE73E0B9
:100D700080E090E0ECDB58DE83CF0E94FA128D8198
:100D80009E819093100380930F03DACF1A3279F586
:100D900021DC80910F0390911003892B91F06EE577
:100DA00072E080910B0390910C030E94F112892B49
:100DB00041F467E872E08BE093E071DC66E672E094
:100DC00007C067E872E08BE093E069DC67E772E0F8
:100DD000CE010196B5DCCE01019631DECE01019641
:100DE000F4DB64EF71E080E090E0B1DB50C0612F94
:100DF000CE01019674DCCE010196F7D1CE010196A9
:100E0000E4DB12DE6BE073E0CE01019680DCCE0104
:100E1000019615DECE0101967AC0039709F008C14C
:100E20008091BB029091BC02019709F001C1612F32
:100E3000CE01019654DCCE010196D7D1CE010196A8
:100E4000C4DBF2DD6BE073E0CE01019660DCCE0125
:100E50000196F5DDCE010196B8DB1D3209F45DC0C7
:100E60000CF457C01D33A9F0133409F059C0109287
:100E700089021092880210928B0210928A0281E2FB
:100E80008093000267E872E08BE093E008DCCCDD41
:100E9000CFC0809100028B3209F071C060918A024C
:100EA00070918B02072E000C880B990B91D76B0168
:100EB0007C018091880290918902BC01990F880B76
:100EC000990B86D79B01AC01C701B6010E94D80FD0
:100ED00021E030E03093970220939602109299021D
:100EE000109298021BA21AA21DA21CA21FA21EA24F
:100EF0008E010F5F1F4F22E044E0E4D4BC01CE011D
:100F00008296CDDBCE0182969ADDCE0182965DDBA4
:100F10008FC086ED810F823028F41093000288C0C4
:100F20001F32D9F380910002612F110F770B8132AC
:100F300099F020918A0230918B024AE0429FC001D1
:100F4000439F900D1124680F791F605371097093AE
:100F50008B0260938A026CC02091880230918902D2
:100F60004AE0429FC001439F900D1124680F791FF2
:100F700060537109709389026093880259C08F325F
:100F8000D9F46091880270918902072E000C880BB9
:100F9000990B1ED76B017C0180918A0290918B0284
:100FA000BC01990F880B990B13D79B01AC01C701AA
:100FB000B6010E943C108CCF8A32D1F460918A0233
:100FC00070918B02072E000C880B990B01D76B01D7
:100FD0007C018091880290918902BC01990F880B55
:100FE000990BF6D69B01AC01C701B6012CD770CF87
:100FF0008D32D1F46091880270918902072E000C25
:10100000880B990BE5D66B017C0180918A02909147
:101010008B02BC01990F880B990BDAD69B01AC01AE
:10102000C701B601C4D754CF60E070E0CB0150CF08
:10103000A7960FB6F894DEBF0FBECDBFDF91CF915C
:101040001F910F91FF90EF90DF90CF90089596E061
:10105000899FD0011124A456BD4F90967C936E9326
:101060005F9791E091969C93919790910803E091FE
:101070000903F0910A03992339F0309751F0811157
:1010800008C08091B80204C0309719F05C968C912A
:1010900019940895EF92FF920F931F93CF93DF93CC
:1010A000EC01623018F08F8588608F876B8B1C8A0B
:1010B00080E48D8B80E18E8B80E58F8B61E08C816D
:1010C00098DB8D818F3F11F061E093DB61E08E81D1
:1010D00090DB7E0187E0E80EF11C00E010E08F85D8
:1010E00084FD03C084E090E002C088E090E008172F
:1010F000190744F461E0F70181917F017ADB0F5F0A
:101100001F4FEDCF8BE39DE00197F1F760E08C81FD
:101110002BDB60E08E8128DB8D818F3F11F060E05A
:1011200023DB6F8564FD19C063E0CE01F7DB0BE4C0
:1011300016E4C8010197F1F763E0CE01EFDBC801C7
:101140000197F1F763E0CE01E9DB83E592E00197D7
:10115000F1F762E0CE01E2DB13C06062CE015BDC3E
:101160008BE496E40197F1F76F856062CE0153DC62
:1011700083E592E00197F1F76F856062CE014BDC69
:101180006F856062CE0147DC84E0888B6CE0CE0125
:1011900042DCCE0142DC82E0898B66E0CE01DF9149
:1011A000CF911F910F91FF90EF9035CC643008F0F4
:1011B00063E090912403691710F06FEF690FE62F39
:1011C000F0E0EF5EFC4F9489682F690F606881E161
:1011D00093E021CCE0911103F09112030190F08192
:1011E000E02D682F81E193E019940F931F93CF9323
:1011F000DF93FC012481358100811181C0910F03AF
:10120000D09110030115110511F480E01DC02115C6
:101210003105C9F0C20FD31FBE018BE093E0EED9B8
:10122000882399F320910B0330910C0380910F03D5
:1012300090911003B801820F931F0E94FA12D0936D
:101240001003C0930F0381E0DF91CF911F910F91A5
:1012500008950F931F93CF93DF93C82FD62F86E067
:10126000C89FF0011124E456FD4F11A2878D90A173
:1012700081309105E1F01CF4892B49F03FC08230A8
:10128000910591F10397D1F560E070E031C06623DC
:10129000A9F161E070E08C2FDADEEADA6093F40203
:1012A0007093F5028093F6029093F70227C0E0DA7C
:1012B0000091F4021091F5022091F6023091F702AC
:1012C000AB01BC01401B510B620B730B80910603F9
:1012D00090910703A0E0B0E084179507A607B70731
:1012E00018F462E070E004C0D11108C063E070E05F
:1012F0008C2FDF91CF911F910F91A9CEDF91CF91CC
:101300001F910F910895CF93DF9300D000D0CDB7F8
:10131000DEB7789484B5826084BD84B5816084BD75
:1013200085B5826085BD85B5816085BD80916E0083
:10133000816080936E0010928100809181008260B4
:1013400080938100809181008160809381008091F1
:1013500080008160809380008091B10084608093E0
:10136000B1008091B00081608093B00080919100C5
:1013700082608093910080919100816080939100C0
:10138000809190008160809390008091A1008260A4
:101390008093A1008091A10081608093A100809141
:1013A000A00081608093A0008091210182608093E1
:1013B0002101809121018160809321018091200190
:1013C00081608093200180917A00846080937A000C
:1013D00080917A00826080937A0080917A008160A7
:1013E00080937A0080917A00806880937A001092CE
:1013F000C1008CE196E090930A038093090384E690
:1014000090E0909307038093060362E081E193E00C
:1014100041DE60912103862F8260809321036A6000
:1014200081E193E0F8DA60912103862F8160809357
:101430002103696081E193E0EEDA65E372E0CE01B9
:1014400001967ED9CE010196FADACE010196BDD879
:10145000412C512C3201439422242A94322C81E0D5
:101460008093080305DA0091F8021091F9022091A7
:10147000FA023091FB02AB01BC01401B510B620B25
:10148000730B8091040390910503A0E0B0E08417F2
:101490009507A607B70718F01092080302C110E0DD
:1014A00080910203181758F4E091FE02F091FF02B8
:1014B000E10FF11D62E080819CD91F5FF1CF912C7B
:1014C00080910303981608F05EC0E92CF12CE0919E
:1014D0000003F0910103EE0DFF1D61E0808189D9C9
:1014E000E0910003F0910103EE0DFF1D60E08081AB
:1014F0003BD9D301C201092C04C0880F991FAA1F30
:10150000BB1F0A94D2F75C016C01C094D094812C6B
:1015100080910203881610F5082D10E08091FE02DC
:101520009091FF02FC01E00FF11F80810E945802A0
:101530000C5F1F4F000F111FF801E456FD4F892B60
:1015400029F4808191818A299B2904C0808191811D
:101550008C219D21918380838394DACFE0910003D5
:10156000F0910103EE0DFF1D61E08081FDD88091B7
:10157000000390910103FC01EE0DFF1D60E08081EE
:1015800038D993949DCFE8EBF2E083819481892B45
:1015900021F41082328221821582369682E0E43F65
:1015A000F80799F7E12C26E0F22E80910203E81665
:1015B00008F052C0D12C0E2D10E0000F111F0C5559
:1015C0001D4F20910303D21608F044C0F80160813A
:1015D00071810D2C02C0769567950A94E2F76170CF
:1015E0007727E29E900111242D0D311DE091FC0220
:1015F000F091FD02E20FF31FA081ECE9F2E080E040
:10160000458D568D4217530711F461701AC08F5FD4
:1016100036968A30A9F7672BD9F0E8EBF2E080E044
:1016200090E0408141110FC0F89EF001F99EF00D4D
:101630001124E456FD4FA48F368F258F10A2178EEC
:1016400061E007DE05C0019636968A30910549F7BC
:10165000D394B7CFE394A9CF80E090E010E0FC01F1
:10166000E456FD4F21A1211111E006968C3391051E
:10167000B1F7FED86093F8027093F9028093FA02F2
:101680009093FB02112309F407CF8091BD028823B8
:1016900009F402CF8091BB029091BC02019709F03E
:1016A000FBCE80919A0290919B028130910519F5B1
:1016B00066E472E0CE01019643D8CE010196BFD90F
:1016C000CE0101960E94E5028091980290919902C4
:1016D00001969093990280939802409711F40E948A
:1016E000EA0268EE73E080E090E00E94A70281E1E8
:1016F00093E093D9DDCF049709F053C080910F0395
:1017000090911003892B39F0E0910B03F0910C03B9
:101710008081811113C06EE472E0CE01019610D871
:10172000CE0101968CD9CE0101960E94E50264E6B5
:1017300070E080E090E00E94A70233C075D980E19C
:10174000E82EF12C02E010E06BE073E0CE01019690
:101750000E948703CE01019672D9CE0101960E94A4
:10176000E50280919802909199020196B701ECD41C
:10177000909399028093980280919602909197029B
:101780000196B801E1D4909397028093960268EE97
:1017900073E080E090E00E94A70281E193E03DD9F0
:1017A000D3CF80E090E0892B09F459CE0E9400004D
:1017B00056CE10921403109213038DE292E0909390
:1017C0001203809311038EE1809315038FEF8093B2
:1017D00016038FE18093170380E28093180381E260
:1017E0008093190382E280931A0383E280931B03A0
:1017F00084E280931C0385E280931D0386E280933C
:101800001E0387E280931F0380E18093200361E041
:1018100081E193E03FDC67E872E08BE093E00E94B7
:10182000A00310929E021092A2021092A1021092A6
:10183000A30283E292E090939D0280939C0280E059
:1018400090E0FC01E456FD4F148E10A2178E11A2F9
:1018500006968C339105A9F785E092E09093FF02FC
:101860008093FE0281E092E0909301038093000355
:1018700084E0809302038093030389E092E09093D5
:10188000FD028093FC028AE090E090930503809330
:10189000040384EF91E09093070380930603109272
:1018A0000A03109209031092F8021092F9021092A2
:1018B000FA021092FB021092080308958BE093E065
:1018C0000C94E502EF920F931F93CF93DF93E801FF
:1018D00047FD02C034E001C034E1E42F440FFF0BA8
:1018E000F7FF03C0F195E195F109E32E022F2E2FAA
:1018F000AE0107D0CE01DF91CF911F910F91EF90F4
:1019000008954F925F926F927F929F92AF92BF9293
:10191000CF92DF92EF92FF920F931F93CF93DF93BB
:10192000CDB7DEB729970FB6F894DEBF0FBECDBF97
:101930006A01122FB02E2BE3201720F0FF24F3941E
:10194000F00E02C0BCE3FB2E0F2D27E0AE014F5F6F
:101950005F4F64D1AC018981982F9970913031F03B
:10196000E1FC06C0E0FE06C090E205C09DE203C0B7
:101970009BE201C090E0EE2DE07183FF3CC091112D
:1019800002C083E001C084E0811718F4212F281BD6
:1019900001C020E0E1110BC0F601822F30E2882364
:1019A00019F031938150FBCFC20ED11C20E0992356
:1019B00029F0D6019C93F60131966F01C60103967A
:1019C000E2FE0AC03EE4D6013C9341E411964C93FA
:1019D000119712963C9306C03EE6F601308341E62D
:1019E00041833283FC01322F40E2332309F442C0A9
:1019F00041933150FACF82FF44C0911102C083E07D
:101A000001C084E0811718F4212F281B01C020E0B9
:101A1000E1110BC0F601822F30E2882319F03193D7
:101A20008150FBCFC20ED11C20E0992329F0D601B2
:101A30009C93F60131966F01C6010396E2FE0BC03E
:101A400039E4D6013C933EE411963C93119736E479
:101A500012963C9307C039E6F60130833EE63183A7
:101A600036E63283FC01322F40E2332319F04193F2
:101A70003150FBCFFC01E20FF11D10828EEF9FEF82
:101A8000B7C0F1E0911101C0F0E06F2F70E01416C3
:101A9000150624F49A012F5F3F4F02C021E030E089
:101AA000260F371FBB2029F06B2D70E06F5F7F4F33
:101AB00002C060E070E0260F371F612F70E026172C
:101AC00037071CF4121B212F01C020E03E2D387176
:101AD00059F4D601322F60E2332319F06D9331505F
:101AE000FBCFC20ED11C20E0FF2331F0D6019C9326
:101AF000B6016F5F7F4F6B01E1110BC0F601922FB2
:101B000030E3992319F031939150FBCFC20ED11CD1
:101B100020E09F2D940F3A81782F7071A72E84FFBB
:101B200003C0313309F49150191624F4993018F098
:101B300098E001C091E0E42F852F57FF02C0E0E05C
:101B400080E06E2F782FE0E0F0E0AEE29A2E3A01CE
:101B5000691A71082A01461A570A0B2D10E01195CF
:101B6000019511096F3F8FEF780729F4D6019C92F8
:101B7000C60101966C014617570784F06616770672
:101B80006CF47F01E40CF51CA1E0B0E0AC0FBD1FCC
:101B9000EA0EFB1ED7011196BC9002C090E3B92E4D
:101BA000615071093196C60101967C016017710779
:101BB00024F0D601BC926C01D5CF6417750741F4AF
:101BC000363320F4353321F4A11002C081E3B82E5E
:101BD000F601B082F701822F90E2882319F09193E9
:101BE0008150FBCFF701E20FF11D108280E090E001
:101BF00029960FB6F894DEBF0FBECDBFDF91CF910F
:101C00001F910F91FF90EF90DF90CF90BF90AF901A
:101C10009F907F906F905F904F900895283008F0CC
:101C200027E03327DA01990F311D87FD9160009677
:101C30006105710539F432602E5F3D9330E32A95DA
:101C4000E1F708959F3F30F080387105610509F094
:101C50003C5F3C5F3D93913008F08068911DDF93BD
:101C6000CF931F930F93FF92EF92192F987F969522
:101C7000E92F96959695E90FFF27EE59FE4F992784
:101C80003327EE24FF24A701E70105900894079469
:101C900028F4360FE71EF81E491F511D660F771FE7
:101CA000881F991F0694A1F70590079428F4E70E62
:101CB000F81E491F561FC11D770F881F991F661FE9
:101CC0000694A1F70590079428F4F80E491F561FB3
:101CD000C71FD11D880F991F661F771F0694A1F794
:101CE0000590079420F4490F561FC71FD81F990F5E
:101CF000661F771F881F0694A9F7849110951770A7
:101D000041F0D695C79557954795F794E7941A955E
:101D1000C1F7E8E0F1E0689415901591359165916F
:101D2000959105907FE27395E118F10A430B560BEC
:101D3000C90BD009C0F7E10CF11E431F561FC91F84
:101D4000D01D7EF4703311F48A95E6CFE8940150EB
:101D500030F0080F0AF40027021708F4202F23950B
:101D6000022F7A3328F079E37D932A95E9F710C0A2
:101D70007D932A9589F606949795679537951795DB
:101D80001794E118F10A430B560BC90BD00998F0D0
:101D900023957E9173957A3308F070E37C9320133A
:101DA000B8F77E9170617D9330F0839571E37D93F8
:101DB00070E32A95E1F71124EF90FF900F911F91A6
:101DC000CF91DF91992787FD90950895E89409C0F8
:101DD00097FB3EF490958095709561957F4F8F4F5E
:101DE0009F4F9923A9F0F92F96E9BB279395F69574
:101DF000879577956795B795F111F8CFFAF4BB0FF2
:101E000011F460FF1BC06F5F7F4F8F4F9F4F16C055
:101E1000882311F096E911C0772321F09EE8872FDF
:101E2000762F05C0662371F096E8862F70E060E09B
:101E30002AF09A95660F771F881FDAF7880F969514
:101E4000879597F908950BD078C069D028F06ED0A7
:101E500018F0952309F05AC05FC01124A2C07ED0AB
:101E6000A0F3959FD1F3950F50E0551F629FF001AD
:101E7000729FBB27F00DB11D639FAA27F00DB11D06
:101E8000AA1F649F6627B00DA11D661F829F22278F
:101E9000B00DA11D621F739FB00DA11D621F839F16
:101EA000A00D611D221F749F3327A00D611D231FEC
:101EB000849F600D211D822F762F6A2F11249F573A
:101EC00050408AF0E1F088234AF0EE0FFF1FBB1F5D
:101ED000661F771F881F91505040A9F79E3F5105FC
:101EE00070F014C05EC05F3FECF3983EDCF3869563
:101EF00077956795B795F795E7959F5FC1F7FE2BA7
:101F0000880F911D9695879597F9089597F99F6782
:101F100080E870E060E008959FEF80EC0895002471
:101F20000A941616170618060906089500240A943E
:101F300012161306140605060895092E0394000CC4
:101F400011F4882352F0BB0F40F4BF2B11F460FF53
:101F500004C06F5F7F4F8F4F9F4F089557FD90587C
:101F6000440F551F59F05F3F71F04795880F97FB5D
:101F7000991F61F09F3F79F0879508951216130617
:101F80001406551FF2CF4695F1DF08C01616170646
:101F90001806991FF1CF869571056105089408957B
:101FA000E894BB2766277727CB0197F90895505807
:101FB000BB27AA270ED0C1CFB2DF30F0B7DF20F0A9
:101FC00031F49F3F11F41EF4A7CF0EF4E095E7FB28
:101FD0009DCFE92FC3DF80F3BA1762077307840729
:101FE000950718F071F49EF5DBCF0EF4E0950B2EFB
:101FF000BA2FA02D0B01B90190010C01CA01A0015B
:102000001124FF27591B99F0593F50F4503E68F1B5
:102010001A16F040A22F232F342F4427585FF3CFF6
:10202000469537952795A795F0405395C9F77EF4C7
:102030001F16BA0B620B730B840BBAF09150A1F010
:10204000FF0FBB1F661F771F881FC2F70EC0BA0F96
:10205000621F731F841F48F4879577956795B7951E
:10206000F7959E3F08F0B3CF9395880F08F0992716
:10207000EE0F9795879508950CD05FCF57DF40F00E
:102080004EDF30F021F45F3F19F040CF511189CF7E
:1020900043CF64DF98F39923C9F35523B1F3951B1C
:1020A000550BBB27AA2762177307840738F09F5F79
:1020B0005F4F220F331F441FAA1FA9F333D00E2EE8
:1020C0003AF0E0E830D091505040E695001CCAF755
:1020D00029D0FE2F27D0660F771F881FBB1F26171A
:1020E00037074807AB07B0E809F0BB0B802DBF01ED
:1020F000FF2793585F4F2AF09E3F510568F006CFA7
:1021000050CF5F3FECF3983EDCF38695779567956B
:10211000B795F7959F5FC9F7880F911D969587959D
:1021200097F90895E1E0660F771F881FBB1F6217BC
:1021300073078407BA0720F0621B730B840BBA0B7A
:10214000EE1F88F7E095089597FB072E16F400948C
:1021500006D077FD08D013D007FC05D03EF490954B
:1021600081959F4F0895709561957F4F0895EE0F6B
:10217000FF1F881F8BBF0790F691E02D1994AA1BB3
:10218000BB1B51E107C0AA1FBB1FA617B70710F062
:10219000A61BB70B881F991F5A95A9F78095909594
:1021A000BC01CD010895CF93DF938230910510F4E7
:1021B00082E090E0E0912B03F0912C0320E030E0EE
:1021C000C0E0D0E0309711F14081518148175907A4
:1021D000C0F04817590761F482819381209719F064
:1021E0009B838A832BC090932C0380932B0326C060
:1021F0002115310519F04217530718F49A01BE0151
:10220000DF01EF010280F381E02DDCCF21153105E4
:1022100009F1281B390B2430310590F412968D9169
:102220009C9113976115710521F0FB0193838283C3
:1022300004C090932C0380932B03FD01329644C07D
:10224000FD01E20FF31F81939193225031092D93E9
:102250003C933AC02091290330912A03232B41F467
:1022600020911B0230911C0230932A0320932903F2
:102270002091190230911A022115310541F42DB730
:102280003EB740911D0250911E02241B350BE09178
:102290002903F0912A03E217F307A0F42E1B3F0B4A
:1022A0002817390778F0AC014E5F5F4F24173507C8
:1022B00048F04E0F5F1F50932A03409329038193E8
:1022C000919302C0E0E0F0E0CF01DF91CF9108955B
:1022D0000F931F93CF93DF93009709F48CC0FC01F9
:1022E00032971382128200912B0310912C03011557
:1022F000110581F420813181820F931F20912903E0
:1023000030912A032817390779F5F0932A03E093CF
:10231000290371C0D80140E050E0AE17BF0750F468
:1023200012962D913C911397AD012115310509F1BC
:10233000D901F3CF9D01DA0133832283608171815A
:10234000860F971F8217930769F4EC012881398162
:10235000260F371F2E5F3F4F318320838A819B8159
:1023600093838283452B29F4F0932C03E0932B0372
:1023700042C01396FC93EE931297ED014991599147
:102380009E01240F351FE217F30771F480819181BC
:10239000840F951F029611969C938E938281938150
:1023A00013969C938E931297E0E0F0E0D80112967A
:1023B0008D919C911397009719F0F8018C01F6CF3D
:1023C0008D919C9198012E5F3F4F820F931F20911A
:1023D000290330912A032817390769F4309729F423
:1023E00010922C0310922B0302C0138212821093BE
:1023F0002A0300932903DF91CF911F910F91089534
:102400006F927F928F929F92AF92BF92CF92DF9204
:10241000EF92FF920F931F93CF93DF93EC010097FE
:1024200081F4CB01DF91CF911F910F91FF90EF903D
:10243000DF90CF90BF90AF909F908F907F906F90E4
:10244000B2CEFC01E60FF71F9C0122503109E217C2
:10245000F30708F4A8C0D9010D911C911197061734
:102460001707A8F00530110508F49BC0C8010497B0
:102470008617970708F495C002501109061B170B21
:10248000019311936D937C93CF0122DF8AC05B018E
:10249000A01AB10A4C01800E911EA0912B03B0919D
:1024A0002C0340E050E0E12CF12C109709F44AC0D5
:1024B000A815B905D1F56D907C901197630182E064
:1024C000C80ED11CCA14DB0480F1A3014A195B09B0
:1024D0006A0182E0C80ED11C1296BC901297139626
:1024E000AC91B5E0CB16D10440F0B282A383518306
:1024F0004083D9016D937C930AC00E5F1F4FC301C7
:10250000800F911FF90191838083EB2DFA2FE11445
:10251000F10431F0D7011396FC93EE93129741C06A
:10252000F0932C03E0932B033CC08D919C91119769
:102530004817590708F4AC017D0112960D90BC9123
:10254000A02DB3CF8091290390912A038815990576
:10255000E1F446175707C8F48091190290911A02C6
:10256000009741F48DB79EB740911D0250911E0215
:10257000841B950BE817F907B0F4F0932A03E09356
:102580002903F901718360830CC0CB010CDE7C014F
:10259000009749F0A801BE011BD0CE0199DEC7010A
:1025A00004C0CE0102C080E090E0DF91CF911F9186
:1025B0000F91FF90EF90DF90CF90BF90AF909F90E2
:1025C0008F907F906F90089581E090E0F89419C00B
:1025D000FB01DC0102C001900D9241505040D8F740
:1025E0000895FB01DC018D91019080190110D9F350
:1025F000990B0895FB01DC0101900D920020E1F799
:10260000089511E0C2E9D1E000E005C0802FFE018D
:10261000AEDD2196011DC339D10780E00807B1F76F
:04262000F894FFCF5C
:10262400211A1B1C1D161718193738392F34353643
:102634002A3132332D43303D2B00002D038000001E
:102644000000003504E3038002000000000605D703
:1026540001E002DF027175657374696F6E206E7537
:102664006D6265723A004661727368696400656EF2
:1026740074657220636861726163746572003938CD
:10268400333130363800636F727265637420706161
:102694007373776F72640077726F6E672070617303
:0826A40073776F7264202000BF
:00000001FF
