:1000000014C1000040C100003EC100003CC100001E
:100010003AC1000038C1000036C1000034C1000000
:1000200032C1000030C100002EC100002CC1000010
:100030002AC1000028C1000026C1000024C1000020
:1000400022C1000020C100001EC100001CC1000030
:100050001AC1000018C1000016C1000023C400002E
:1000600012C1000010C100000EC100000CC1000050
:100070000AC1000008C1000006C1000004C1000060
:1000800002C1000000C10000FEC00000FCC0000072
:10009000FAC00000F8C00000F6C00000F4C0000084
:1000A000F2C00000F0C00000EEC00000ECC0000094
:1000B000EAC00000E8C00000E6C00000E4C00000A4
:1000C000E2C00000E0C00000DEC00000B5C30000D8
:1000D0008AC30000D8C00000D6C00000D4C0000011
:1000E000D2C00000D902DC02CB02CF02D50213033A
:1000F000E002E402EA02EE02F202F802FC0200036D
:10010000130306030A030E03000020002300260049
:1001100029002C002F00320000010000030106011D
:10012000090100002100240027002A002D003000D2
:10013000330001010000040107010A010000220050
:10014000250028002B002E003100340002010000A1
:10015000050108010B010505050507050808080844
:10016000020202020A0A080804040404010101014F
:10017000010101010303030303030303040707074A
:100180000C0C0C0C0C0C0C0C0202020206060606EF
:10019000060606060B0B0B0B0B0B0B0B01021020BC
:1001A00020080810204010204080020102010804AD
:1001B0000201010204081020408080402010080441
:1001C000020180040201804020100804020108049A
:1001D00002010102040810204080010204081020DE
:1001E000408000000A0B02090C0D0E0807030401F1
:1001F00000000000000000000000000000000000FF
:1002000000000000000000000000000000001211CB
:1002100010000000000000000000000000000000CE
:1002200000000000000000009C0411241FBECFEF5E
:10023000D1E2DEBFCDBF00E00CBF23E0AEE5B2E00F
:1002400001C01D92AA37B207E1F712E0A0E0B2E0C8
:10025000EAE2F1E100E00BBF02C007900D92AE357B
:10026000B107D9F711E0C5E1D1E000E005C0219761
:100270000109802FFE012AD5C431D10780E008078B
:10028000B1F7E9D350C7BCCE2FB7F894809166027E
:1002900090916702A0916802B09169022FBF80938C
:1002A000720290937302A0937402B0937502E0916E
:1002B0006A02F0916B020284F385E02D8AE692E0F7
:1002C000199597FF26C02FB7F894809166029091F8
:1002D0006702A0916802B09169022FBF409172023B
:1002E000509173026091740270917502841B950B9A
:1002F000A60BB70B40916E0250916F026091700295
:100300007091710284179507A607B70780F28FEFE7
:100310009FEF0895CF92DF92EF92FF920F931F937A
:10032000CF93DF936C017A018B01C0E0D0E0CE1552
:10033000DF0589F0D8016D918D01D601ED91FC9119
:100340000190F081E02DC6011995892B11F47E01F1
:1003500002C02196ECCFC701DF91CF911F910F9181
:10036000FF90EF90DF90CF900895089580E090E0A7
:100370000895FC01538D448D252F30E0842F90E0AB
:10038000821B930B541710F0CF9608950197089590
:10039000FC01918D828D981761F0828DDF01A80F8D
:1003A000B11D5D968C91928D9F5F9F73928F90E0AF
:1003B00008958FEF9FEF0895FC01918D828D98171E
:1003C00031F0828DE80FF11D858D90E008958FEF5B
:1003D0009FEF0895FC01918D228D892F90E0805C24
:1003E0009F4F821B91098F73992708958AE692E0A7
:1003F000F1DF21E0892B09F420E0822F0895FC0130
:10040000848DDF01A80FB11DA35ABF4F2C91848D9D
:1004100090E001968F739927848FA689B7892C93D2
:10042000A089B1898C9180648C93938D848D98136D
:1004300006C00288F389E02D80818F7D8083089536
:10044000EF92FF920F931F93CF93DF93EC0181E024
:10045000888F9B8D8C8D981305C0E889F9898081E0
:1004600085FD23C0F62E0B8D10E00F5F1F4F0F731D
:100470001127E02E8C8DE8120BC00FB607FCFACFC7
:10048000E889F989808185FFF5CFCE01B8DFF2CF09
:100490008B8DFE01E80FF11DE35AFF4FF0820B8FA9
:1004A000EA89FB898081806207C0EE89FF896083C9
:1004B000E889F98980818064808381E090E0DF9120
:1004C000CF911F910F91FF90EF900895CF93DF93FD
:1004D000EC01888D8823C1F0EA89FB89808185FD44
:1004E00005C0A889B9898C9186FD0EC00FB607FC9E
:1004F000F5CF808185FFF2CFA889B9898C9185FFDE
:10050000EDCFCE017CDFE8CFDF91CF91089580E081
:1005100090E0892B41F080E090E0892B21F00E944F
:100520000000811120C080E090E0892B41F080E044
:1005300090E0892B21F00E940000811117C080E01B
:1005400090E0892B19F052DF811113C080E090E018
:10055000892BA1F080E090E0892B81F00E940000BF
:1005600081110AC008950E940000DDCF0E940000A2
:10057000E6CF0E940000EACF0C940000089590E0BE
:10058000FC013197E231F10508F04DC08827EE58A3
:10059000FF4F8F4F9BC3809180008F7703C0809166
:1005A00080008F7D80938000089580918000877FF8
:1005B000F9CF84B58F7702C084B58F7D84BD08954F
:1005C0008091B0008F7703C08091B0008F7D8093C1
:1005D000B0000895809190008F7707C080919000BF
:1005E0008F7D03C080919000877F80939000089555
:1005F0008091A0008F7707C08091A0008F7D03C0FD
:100600008091A000877F8093A000089580912001B1
:100610008F7707C0809120018F7D03C080912001DA
:10062000877F8093200108951F93CF93DF93282F16
:1006300030E0F901EE51FE4F8491F901E456FE4F8E
:10064000D491F901EA5AFE4FC491CC23C1F0162F80
:10065000811195DFEC2FF0E0EE0FFF1FE45CFE4F01
:10066000A591B4918FB7F894111105C09C91ED2F0D
:10067000E095E92302C0EC91ED2BEC938FBFDF9165
:10068000CF911F910895CF93DF9390E0FC01E45642
:10069000FE4F2491FC01EA5AFE4F8491882361F1B8
:1006A00090E0880F991FFC01EE5DFE4FC591D4913B
:1006B000FC01E45CFE4FA591B491611109C09FB7A4
:1006C000F8948881209582238883EC912E230BC097
:1006D000623061F49FB7F8943881822F809583232C
:1006E0008883EC912E2B2C939FBF06C08FB7F89474
:1006F000E8812E2B28838FBFDF91CF910895CF9370
:10070000DF9370E0FB01EE51FE4F8491FB01E45654
:10071000FE4FD491FB01EA5AFE4FC491CC2389F0DD
:1007200081112DDFEC2FF0E0EE0FFF1FE85FFE4F91
:10073000A591B491EC91ED2381E090E021F480E06B
:1007400002C080E090E0DF91CF910895862F642F62
:100750006BCF862F642F97CFDF92EF92FF920F938C
:100760001F93CF93DF937C01D62E00E312E0C0E00D
:10077000D0E0CE15DF0544F4025011096D2DF801CB
:10078000808152DF2196F5CFDF91CF911F910F919C
:10079000FF90EF90DF900895B2D40F931F93CF9303
:1007A000DF93EC0188819981009729F02A813B81B0
:1007B0002617370780F48B016F5F7F4FBCD30097FC
:1007C00061F0998388831B830A832C813D81232BCD
:1007D00011F4FC01108281E001C080E0DF91CF9133
:1007E0001F910F9108951F920F920FB60F9211242F
:1007F0000BB60F922F933F934F935F936F937F931B
:100800008F939F93AF93BF93EF93FF938AE692E00A
:10081000F6DDFF91EF91BF91AF919F918F917F9105
:100820006F915F914F913F912F910F900BBE0F9061
:100830000FBE0F901F9018951F920F920FB60F9238
:1008400011240BB60F922F938F939F93EF93FF93E7
:10085000E0917A02F0917B028081E0918002F09138
:10086000810282FD12C09081809183028F5F8F731D
:1008700020918402821751F0E0918302F0E0E65962
:10088000FD4F958F8093830201C08081FF91EF918E
:100890009F918F912F910F900BBE0F900FBE0F90D5
:1008A0001F9018951F920F920FB60F9211242F933D
:1008B0003F938F939F93AF93BF93809166029091E4
:1008C0006702A0916802B09169023091620223E050
:1008D000230F2D3720F40196A11DB11D05C026E878
:1008E000230F0296A11DB11D209362028093660220
:1008F00090936702A0936802B093690280915E02B0
:1009000090915F02A0916002B09161020196A11DD9
:10091000B11D80935E0290935F02A0936002B0933A
:100920006102BF91AF919F918F913F912F910F9055
:100930000FBE0F901F90189510926D0210926C02CE
:1009400088EE93E0A0E0B0E080936E0290936F0297
:10095000A0937002B093710284E392E090936B02D3
:1009600080936A0285ED90E09093770280937602FF
:1009700084ED90E0909379028093780280ED90E08E
:1009800090937B0280937A0281ED90E090937D02B8
:1009900080937C0282ED90E090937F0280937E02B0
:1009A00086ED90E090938102809380021092830202
:1009B000109284021092850210928602109209030E
:1009C00010920D0310920C0310920E0386E492E035
:1009D000909308038093070380E090E0FC01E95FB7
:1009E000FC4F148E10A2178E11A206968C3391051F
:1009F000A9F784E092E090936A038093690380E012
:100A000092E090936C0380936B0384E080936D037A
:100A100080936E0388E092E090936803809367036D
:100A20008AE090E09093700380936F0384EF91E0ED
:100A30009093720380937103109275031092740364
:100A40001092630310926403109265031092660380
:100A5000109273030895CF93DF93CDB7DEB7289735
:100A60000FB6F894DEBF0FBECDBF789484B5826018
:100A700084BD84B5816084BD85B5826085BD85B542
:100A8000816085BD80916E00816080936E001092C0
:100A9000810080918100826080938100809181003B
:100AA00081608093810080918000816080938000CC
:100AB0008091B10084608093B1008091B00081602A
:100AC0008093B0008091910082608093910080912A
:100AD000910081608093910080919000816080936B
:100AE00090008091A10082608093A1008091A1007C
:100AF00081608093A1008091A00081608093A0001C
:100B00008091210182608093210180912101816087
:100B10008093210180912001816080932001809148
:100B20007A00846080937A0080917A00826080935A
:100B30007A0080917A00816080937A0080917A00B7
:100B4000806880937A001092C100E0917A02F0915F
:100B50007B0282E08083E0917602F091770210823E
:100B6000E0917802F09179028FEC808310928202FA
:100B7000E0917E02F0917F0286E08083E0917C022A
:100B8000F0917D02808180618083E0917C02F09110
:100B90007D02808188608083E0917C02F0917D02FB
:100BA000808180688083E0917C02F0917D02808169
:100BB0008F7D80830EE112E0F80180810E5F1F4F70
:100BC00061E061DDF2E000331F07B1F760E070E043
:100BD00089E090E0C1DD8AE692E0FCDB1816190698
:100BE0000CF072C01A8219821C821B821E821D8226
:100BF00060E070E0CE010196D0DD29813A8181115B
:100C00000CC02115310511F0C901FDD01A821982DD
:100C10001E821D821C821B821FC01E821D826DE5EA
:100C200072E0C90179D218C08F8318860D811E81A8
:100C30000F5F1F4FB801CE010196AFDD882361F031
:100C400029813A818D819E81BE01695F7F4F820F2C
:100C5000931F62D21E830D8317DB97FFE5CF8D8133
:100C60009E818230910578F04EE050E06CE472E0B5
:100C70008AE692E04FDB42E050E06BE572E08AE604
:100C800092E048DB1EC0892B21F0E981FA81309780
:100C900021F410926302E3E6F2E08081082E000C5A
:100CA000990BC097909365028093640218161906F9
:100CB0001CF461E070E004C060E070E089E090E066
:100CC0004BDD89819A819FD022DC85CFEE0FFF1FFB
:100CD000881F8BBF0790F691E02D1994CF93DF9377
:100CE0008230910510F482E090E0E0917803F09179
:100CF000790320E030E0C0E0D0E0309711F140818E
:100D0000518148175907C0F04817590761F482818B
:100D10009381209719F09B838A832BC0909379034A
:100D20008093780326C02115310519F04217530727
:100D300018F49A01BE01DF01EF010280F381E02D7A
:100D4000DCCF2115310509F1281B390B2430310581
:100D500090F412968D919C9113976115710521F075
:100D6000FB019383828304C090937903809378037B
:100D7000FD01329644C0FD01E20FF31F8193919370
:100D8000225031092D933C933AC020917603309143
:100D90007703232B41F420911A0230911B023093E8
:100DA00077032093760320911802309119022115C0
:100DB000310541F42DB73EB740911C0250911D0200
:100DC000241B350BE0917603F0917703E217F307CC
:100DD000A0F42E1B3F0B2817390778F0AC014E5FAB
:100DE0005F4F2417350748F04E0F5F1F509377036E
:100DF000409376038193919302C0E0E0F0E0CF014D
:100E0000DF91CF9108950F931F93CF93DF930097B6
:100E100009F48CC0FC01329713821282009178038E
:100E2000109179030115110581F420813181820F20
:100E3000931F20917603309177032817390779F5AE
:100E4000F0937703E093760371C0D80140E050E05F
:100E5000AE17BF0750F412962D913C911397AD0138
:100E60002115310509F1D901F3CF9D01DA01338351
:100E7000228360817181860F971F8217930769F41F
:100E8000EC0128813981260F371F2E5F3F4F3183B8
:100E900020838A819B8193838283452B29F4F0935D
:100EA0007903E093780342C01396FC93EE93129774
:100EB000ED01499159919E01240F351FE217F30767
:100EC00071F480819181840F951F029611969C93F5
:100ED0008E938281938113969C938E931297E0E078
:100EE000F0E0D80112968D919C911397009719F01C
:100EF000F8018C01F6CF8D919C9198012E5F3F4FA8
:100F0000820F931F209176033091770328173907BA
:100F100069F4309729F4109279031092780302C093
:100F2000138212821093770300937603DF91CF919F
:100F30001F910F9108956F927F928F929F92AF921F
:100F4000BF92CF92DF92EF92FF920F931F93CF93B6
:100F5000DF93EC01009781F4CB01DF91CF911F91DA
:100F60000F91FF90EF90DF90CF90BF90AF909F9048
:100F70008F907F906F90B2CEFC01E60FF71F9C011F
:100F800022503109E217F30708F4A8C0D9010D91E6
:100F90001C91119706171707A8F00530110508F4E2
:100FA0009BC0C80104978617970708F495C00250A4
:100FB0001109061B170B019311936D937C93CF01BD
:100FC00022DF8AC05B01A01AB10A4C01800E911E7B
:100FD000A0917803B091790340E050E0E12CF12C2E
:100FE000109709F44AC0A815B905D1F56D907C9009
:100FF0001197630182E0C80ED11CCA14DB0480F192
:10100000A3014A195B096A0182E0C80ED11C12963D
:10101000BC9012971396AC91B5E0CB16D10440F07A
:10102000B282A38351834083D9016D937C930AC01C
:101030000E5F1F4FC301800F911FF90191838083C1
:10104000EB2DFA2FE114F10431F0D7011396FC9344
:10105000EE93129741C0F0937903E09378033CC07C
:101060008D919C9111974817590708F4AC017D01A7
:1010700012960D90BC91A02DB3CF809176039091E4
:10108000770388159905E1F446175707C8F480914E
:10109000180290911902009741F48DB79EB74091C4
:1010A0001C0250911D02841B950BE817F907B0F440
:1010B000F0937703E0937603F901718360830CC0AA
:1010C000CB010CDE7C01009749F0A801BE011BD0CA
:1010D000CE0199DEC70104C0CE0102C080E090E0DD
:1010E000DF91CF911F910F91FF90EF90DF90CF9004
:1010F000BF90AF909F908F907F906F90089581E008
:1011000090E0F89410C0FB01DC0102C001900D9248
:1011100041505040D8F70895FB01DC0101900D9239
:0A1120000020E1F70895F894FFCFD6
:10112A001F21232517191B1D373839973435362ABD
:10113A003132332D43303D2B00007A03800000000A
:10114A000100020003000400050006000700080071
:10115A000000000020028A01B9016602EA01C80102
:10116A00DC0100000000A903A6037F03496E766133
:0E117A006C6964206E756D626572000D0A006E
:00000001FF
