:100000000C942C010C945D010C945D010C945D0129
:100010000C945D010C945D010C945D010C945D01E8
:100020000C945D010C945D010C945D010C945D01D8
:100030000C945D010C9465090C945D010C945D01B8
:100040000C945D010C94EE0A0C945D010C945D011E
:100050000C945D010C945D010C945D010C941B09E2
:100060000C945D010C942E0A0C94040A0C945D010E
:100070000C945D010C945D010C945D010C945D0188
:100080000C94C00A0C945D010C945D010C945D010C
:100090000C945D010C945D010C945D010C945D0168
:1000A0000C945D010C945D010C94920A0C945D011A
:1000B0000C945D010C945D010C945D010C94640A38
:1000C0000C945D010C945D010C945D010C945D0138
:1000D0000C945D010C945D010C945D010C945D0128
:1000E0000C945D010C941C0B0C94F6040C94040508
:1000F0000C940E050C94EC040C94E8040C9400058C
:100100000C9420060C94FA040C94BC040C943D0549
:100110000C94DB040C94D3040C948D050C94F20421
:100120000C946A050C9408050C94D7040C9479057A
:100130000C94B80E0C949B050C9412050C94DF04DF
:100140000C94C1040C94D3050C94E20400000A0B37
:1001500002090C0D0E080703040100000000000056
:10016000000000000000000000000000000000008F
:10017000000000000000000012111000000000004C
:10018000000000000000000000000000000000006F
:1001900000000200002200250028002B002E003164
:1001A00000340002010000050108010B01000021DC
:1001B00000240027002A002D003000330001010038
:1001C00000040107010A01050505050705080808DF
:1001D00008020202020A0A080804040404010101D8
:1001E00001010101010303030303030303040707E0
:1001F000070C0C0C0C0C0C0C0C020202020606067E
:1002000006060606060B0B0B0B0B0B0B0B01021065
:100210002020080810204010204080020102010820
:1002200004020101020408102040808040201008D0
:100230000402018004020180402010080402010829
:100240000402010102040810204080010204081089
:10025000204080001C0BB80E11241FBECFEFD1E24E
:10026000DEBFCDBF00E00CBF12E0A0E0B2E0E4ECE6
:10027000F2E200E00BBF02C007900D92A835B10773
:10028000D9F723E0A8E5B2E001C01D92A03DB20776
:10029000E1F711E0CBE2D1E000E006C021970109CF
:1002A000802FFE010E942B0FCA32D10780E0080781
:1002B000A9F70E94870B0C9450110C94000090E059
:1002C000FC01E35FFD4F249189539E4FFC01849113
:1002D000882399F090E0880F991FFC01E355FE4FA9
:1002E000A591B491FC01ED56FE4F859194918FB785
:1002F000F894EC91E22BEC938FBF08954F925F92AC
:100300006F927F928F929F92AF92BF92CF92DF9225
:10031000EF92FF920F931F93CF93DF9300D01F9222
:100320001F92CDB7DEB78C0149835A836B837C83E0
:10033000809102028830C9F08F3F09F48FC00F907E
:100340000F900F900F900F90DF91CF911F910F9111
:10035000FF90EF90DF90CF90BF90AF909F908F90E5
:100360007F906F905F904F900895E2E9F1E0849163
:100370008D8387FDE4CF88E00E945F019D819923F2
:1003800021F08D81823009F0D5C14801B12CA12C1A
:1003900060E072E18AE790E0A50198010E94BC0E3E
:1003A00029013A017A01690191E0C91AD108E108ED
:1003B000F1088FEFC816D104E104F10409F00CF440
:1003C00082C160E472E48FE090E0A50198010E9490
:1003D000BC0E69017A0191E0C91AD108E108F1085F
:1003E0008D81823009F010C182E09FEFC916D104DF
:1003F000E104F10409F00CF45FC160E970ED83E001
:1004000090E0A50198010E94BC0E69017A0181E08B
:10041000C81AD108E108F10883E09FEFC916D1049A
:10042000E104F10409F00CF447C168E478EE81E0DE
:1004300090E0A50198010E94BC0E69017A0191E04B
:10044000C91AD108E108F1088FEFC816D104E104F8
:10045000F10411F00CF018C184E02EC188E0809303
:100460000202E2E9F1E094919D83892F9F3F09F414
:1004700066CF923009F468C058F4992379F191302D
:1004800009F444C087FD5BCF88E00E945F0179CF0B
:100490009D81943009F49AC008F478C0953091F7A2
:1004A0001092200110922101809121018860809397
:1004B000210180912101816080932101EFECF1E025
:1004C000E491F0E0EE0FFF1FED56FE4F8591949101
:1004D000E5E1F2E0E491E0936F024DCF14BC15BC6E
:1004E00084B5826084BD85B5816085BDEFECF1E0A7
:1004F000E491F0E0EE0FFF1FED56FE4F85919491D1
:10050000E5E1F2E0E491E093760235CF10928000CD
:100510001092810080918100886080938100809199
:100520008100816080938100EFECF1E0E491F0E0E4
:10053000EE0FFF1FED56FE4F85919491E5E1F2E03D
:10054000E491E093750217CF1092B0001092B100C1
:100550008091B00082608093B0008091B100816092
:100560008093B100EFECF1E0E491F0E0EE0FFF1FBB
:10057000ED56FE4F8591949190937402809373028F
:10058000E5E1F2E0E491E0937202F5CE1092900082
:1005900010929100809191008860809391008091E9
:1005A0009100816080939100EFECF1E0E491F0E044
:1005B000EE0FFF1FED56FE4F85919491E5E1F2E0BD
:1005C000E491E093710283E08D83D5CE1092A00078
:1005D0001092A1008091A10088608093A100809179
:1005E000A10081608093A100EFECF1E0E491F0E0E4
:1005F000EE0FFF1FED56FE4F85919491E5E1F2E07D
:10060000E491E0937002B7CE8FEFC816D104E104F5
:10061000F10409F00CF48CC068E478EE81E090E01D
:10062000A50198010E94BC0E69017A0191E0C91AE6
:10063000D108E108F1088D81882309F463C19FEF97
:10064000C916D104E104F10409F00CF405CF62E10C
:100650007AE780E090E0A50194010E94BC0E690158
:100660007A0191E0C91AD108E108F1088D81882347
:1006700009F405C18FEFC816D104E104F10411F0AB
:1006800008F006C186E018C064E274EF80E090E0F4
:10069000A50194010E94BC0E69017A0191E0C91A7A
:1006A000D108E108F1088FEFC816D104E104F10484
:1006B00011F008F017C185E09091B100987F892B67
:1006C0008093B10008C081E09D819111F5CF95B56F
:1006D000987F892B85BDD801AA0FBB1F29813A813C
:1006E0004B815C810E94DB0E28EE33E040E050E05D
:1006F0000E94EE0E9D81923009F47DC00CF0D8C0AE
:10070000992309F469C0913009F019CED09289007B
:10071000C092880020938702309388024093890218
:1007200050938A0280916F00826080936F0007CEA1
:1007300082E0CACFB12CA12C60E072E18AE790E0A0
:10074000A50198010E94BC0E69017A0181E0C81AD6
:10075000D108E108F108C114D10491E0E906F104DF
:100760005CF491E08D818130C1F480918100887FBB
:10077000892B80938100AFCF68E478EE81E090E030
:10078000A50198010E94BC0E69017A0181E0C81A96
:10079000D108E108F10893E0E5CF8D81833039F489
:1007A00080919100887F892B8093910094CF8D81D7
:1007B000843039F48091A100887F892B8093A10037
:1007C0008ACF8D81853009F086CF80912101887F85
:1007D000892B809321017FCFC7BC20938B0230935C
:1007E0008C0240938D0250938E0280916E00826045
:1007F00080936E00A4CDC092B30020938302309307
:10080000840240938502509386028091700082603A
:100810008093700094CDD0929900C092980020935C
:100820007F02309380024093810250938202809134
:10083000710082608093710082CDD092A900C09235
:10084000A80020937B0230937C0240937D0250935A
:100850007E028091720082608093720070CD73017D
:1008600062012AE0F594E794D794C7942A95D1F7CA
:1008700091E0C91AD108E108F10885E028CF8FEF8F
:10088000C816D104E104F10409F048F784E01FCF51
:10089000730162019AE0F594E794D794C7949A950E
:1008A000D1F791E0C91AD108E108F10887E004CF37
:1008B0008D81843011F20CF4AECF853009F03FCD3C
:1008C000D0922901C09228012093770230937802B8
:1008D0004093790250937A028091730082608093F2
:1008E00073002DCD62E17AE780E090E0A5019401EC
:1008F0000E94BC0E69017A0181E0C81AD108E108A2
:10090000F108B8CE83E09FEFC916D104E104F104E9
:1009100009F00CF4DCCE9BCE282F30E0F901E45B2B
:10092000FE4F9491F901E35FFD4F449129533E4FEF
:10093000F9012491222309F435C0992311F1915032
:100940009231F8F4E92FF0E08827E655FB4F8F4FFE
:100950000C942B0FDB04DF04BC04D304D704C104C4
:10096000E204E804EC04F204F604FA0400050405C9
:10097000C10408050E051205809180008F778093D1
:100980008000E22FF0E0EE0FFF1FED56FE4FA59125
:10099000B4918FB7F894EC91611148C040954E2303
:1009A0004C938FBF0895809180008F7DE8CF809118
:1009B0008000877FE4CF84B58F7784BDE2CF84B594
:1009C0008F7DFBCF8091B0008F778093B000D9CF1F
:1009D0008091B0008F7DF9CF809190008F778093C8
:1009E0009000CFCF809190008F7DF9CF80919000C3
:1009F000877FF5CF8091A0008F778093A000C1CF33
:100A00008091A0008F7DF9CF8091A000877FF5CFE6
:100A1000809120018F7780932001B3CF80912001B6
:100A20008F7DF9CF80912001877FF5CF4E2BB8CFF6
:100A30003FB7F89480916B0290916C02A0916D0287
:100A4000B0916E0226B5A89B05C02F3F19F0019604
:100A5000A11DB11D3FBFBA2FA92F982F8827BC0118
:100A6000CD01620F711D811D911D42E0660F771F40
:100A7000881F991F4A95D1F70895AF92BF92CF92E0
:100A8000DF92EF92FF920F931F93CF93DF936C014E
:100A90007B018B01040F151FEB015E01AE18BF082F
:100AA000C017D10759F06991D601ED91FC910190E1
:100AB000F081E02DC6011995892B79F7C501DF91E9
:100AC000CF911F910F91FF90EF90DF90CF90BF904B
:100AD000AF900895FC01538D448D252F30E0842F75
:100AE00090E0821B930B541710F0CF960895019756
:100AF0000895FC01918D828D981761F0A28DAE0F43
:100B0000BF2FB11D5D968C91928D9F5F9F73928FC9
:100B100090E008958FEF9FEF0895FC01918D828DF5
:100B2000981731F0828DE80FF11D858D90E00895C2
:100B30008FEF9FEF0895FC01918D228D892F90E01A
:100B4000805C9F4F821B91098F73992708958FE8CE
:100B500092E00E949B0521E0892B09F420E0822F7E
:100B60000895FC01A48DA80FB92FB11DA35ABF4F42
:100B70002C91848D90E001968F739927848FA6899C
:100B8000B7892C93A089B1898C91837080648C93F0
:100B9000938D848D981306C00288F389E02D80819F
:100BA0008F7D80830895EF92FF920F931F93CF93D1
:100BB000DF93EC0181E0888F9B8D8C8D98131AC098
:100BC000E889F989808185FF15C09FB7F894EE897F
:100BD000FF896083E889F9898081837080648083DC
:100BE0009FBF81E090E0DF91CF911F910F91FF9027
:100BF000EF900895F62E0B8D10E00F5F1F4F0F73CF
:100C00001127E02E8C8D8E110CC00FB607FCFACF89
:100C1000E889F989808185FFF5CFCE010E94B10571
:100C2000F1CFEB8DEC0FFD2FF11DE35AFF4FF0825A
:100C30009FB7F8940B8FEA89FB8980818062CFCFC0
:100C4000CF93DF93EC01888D8823B9F0AA89BB8903
:100C5000E889F9898C9185FD03C0808186FD0DC0EE
:100C60000FB607FCF7CF8C9185FFF2CF808185FF0F
:100C7000EDCFCE010E94B105E9CFDF91CF9108956C
:100C800080E090E0892B29F00E94A70581110E9445
:100C9000000080E090E0892B49F080E090E0892B13
:100CA00029F00E94000081110E94000080E090E085
:100CB000892B49F080E090E0892B29F00E94000008
:100CC00081110E94000080E090E0892B49F080E0D3
:100CD00090E0892B29F00E94000081110C94000003
:100CE0000895CF92DF92EF92FF92CF93DF93EC01C2
:100CF000603282E07807CCF5653B710514F064EB57
:100D000070E0898128E830E0281B310987FD3395A0
:100D1000220F331F220F331F6901330FEE08FF0824
:100D20008A8128E532E0281B310987FD3395220F9F
:100D3000331F220F331F032E000C440B550B2C19AD
:100D40003D094E095F09DB0177FF02C0B0E0A0E07A
:100D50000E94E60E24EB30E040E050E00E94BC0E22
:100D6000C20ED31EE41EF51EB601E881E03370F515
:100D7000298188E890E0821B910927FD9395880FCF
:100D8000991F880F991F681779077CF02A8188E5D9
:100D900092E0821B910927FD9395880F991F880F78
:100DA000991F681779070CF4CB010297880F991FD8
:100DB0004FB7F8942E2F30E0F901EE0FFF1FE20F2E
:100DC000F31FE45DFC4F928381834FBFDF91CF918E
:100DD000FF90EF90DF90CF900895AF92BF92CF92A7
:100DE000DF92EF92FF920F931F93CF93DF936B01EC
:100DF0007A01EC01C75ADD4F28813CE0389F800121
:100E0000399F100D1124A090BC03B12C27FF1FC0E7
:100E1000FB011182108288818F5F8883888198010D
:100E2000280F311D87FD3A95F6012A153B051CF464
:100E300088818C30C4F180819181049680349C49F2
:100E400008F473C0F60180819181049670C0888196
:100E50009801280F311D87FD3A952A153B05DCF6D0
:100E60008881A801480F511D87FD5A95FA01EE0FA0
:100E7000FF1FE40FF51FE45DFC4F808186FFCBCFA1
:100E80008881F801E80FF11D87FDFA95CF01EE0F7B
:100E9000FF1FE80FF91FE45DFC4F808160E08F7356
:100EA0000E948C04B8CF808191812881A801420FD3
:100EB000511D27FD5A959A01FA01EE0FFF1FE20F0F
:100EC000F31FE45DFC4F21813281820F931FF701F4
:100ED0009183808388819801280F311D87FD3A9581
:100EE000F901EE0FFF1FE20FF31FE45DFC4F80815D
:100EF00086FF22C08881080F111D87FD1A95F80111
:100F0000EE0FFF1FE00FF11FE45DFC4F808161E0F9
:100F10008F73DF91CF911F910F91FF90EF90DF9032
:100F2000CF90BF90AF900C948C0480E49CE9F701C3
:100F3000918380838FEF8883DF91CF911F910F91F1
:100F4000FF90EF90DF90CF90BF90AF900895FC019D
:100F500001900020E9F73197AF01481B590BBC0104
:100F60008FE892E00C943D05FC018081918100970F
:100F700011F00C94D60F08950F931F93CF93DF9326
:100F8000EC0188819981009759F02A813B812617CD
:100F9000370730F081E0DF91CF911F910F910895D5
:100FA0008B016F5F7F4F0E945F10009759F099830C
:100FB00088831B830A832C813D81232B59F7FC01F5
:100FC0001082E8CF80E0E7CFEF92FF920F931F935C
:100FD000CF93DF93EC017B018A01BA010E94BC0729
:100FE00028813981811114C02115310519F0C901F9
:100FF0000E94D60F198218821D821C821B821A82BF
:10100000CE01DF91CF911F910F91FF90EF90089546
:101010001D830C83B701C9010E944911F1CFFC0166
:10102000118210821382128215821482FB010190B8
:101030000020E9F73197AF01461B570B0C94E407EA
:101040005F926F927F928F929F92AF92BF92CF9258
:10105000DF92EF92FF920F931F93CF93DF93CDB761
:10106000DEB72E970FB6F894DEBF0FBECDBF8C0152
:101070006B01542E60E372E0CE0107960E940F08C8
:1010800060E0852D0E948C04B12CA12C3E018DE0E6
:10109000680E711CD60114968D919C911597A81617
:1010A000B90608F050C0ED91FC91309709F048C0A6
:1010B00010925802E8E5F2E080818EBD00000DB488
:1010C00007FEFDCF8EB51A8219821C821B821E82FA
:1010D0001D828D871E86F30101900020E9F731976C
:1010E000AF0146195709B301CE0101960E94E407EA
:1010F00089809A8081149104D9F0ED80FE80E114FA
:10110000F104B1F08B859C85E80EF91EB701CE0184
:1011100007960E94BC07882359F02F8138858B855C
:101120009C85B401820F931F0E944911FC86EB86B7
:10113000CE0101960E94B407BFEFAB1ABB0AAACF3B
:10114000EA0DFB1DB9CF81E292E00E94A707F601EC
:1011500044815581608171818FE892E00E943D0554
:101160008EE292E00E94A70761E0852D0E948C0428
:10117000CB84DC84AA24A394B12CC114D10429F417
:10118000B12CA12CCC24C394D12C60E372E0C80113
:101190000E940F08EB84FC84AE14BF0410F5CE143B
:1011A000DF0408F47601EF81F885EE0DFF1DD08095
:1011B00010826F8178856A0D7B1D6115710561F163
:1011C000FB0101900020E9F73197AF01461B570B57
:1011D000C8010E94E4078F819885E80EF91ED701A7
:1011E000DC92CE0107960E94B407C8012E960FB676
:1011F000F894DEBF0FBECDBFDF91CF911F910F914D
:10120000FF90EF90DF90CF90BF90AF909F908F9026
:101210007F906F905F900895D8018D919C91009779
:1012200011F00E94D60FF8011182108215821482EB
:1012300013821282D0CF1F920F920FB60F921124F9
:101240002F933F938F939F93AF93BF9380916702A8
:1012500090916802A0916902B0916A023091660291
:1012600023E0230F2D3758F50196A11DB11D2093C2
:1012700066028093670290936802A0936902B0931C
:101280006A0280916B0290916C02A0916D02B09104
:101290006E020196A11DB11D80936B0290936C02AA
:1012A000A0936D02B0936E02BF91AF919F918F9109
:1012B0003F912F910F900FBE0F901F90189526E829
:1012C000230F0296A11DB11DD2CF1F920F920FB610
:1012D0000F9211240BB60F922F933F934F935F936E
:1012E0006F937F938F939F93AF93BF93EF93FF93EE
:1012F0008091830290918402A0918502B091860230
:10130000892B8A2B8B2BE1F190917202E091730271
:10131000F09174028081892780838091830290916B
:101320008402A0918502B0918602181619061A0649
:101330001B069CF48091830290918402A091850207
:10134000B09186020197A109B1098093830290931D
:101350008402A0938502B0938602FF91EF91BF9122
:10136000AF919F918F917F916F915F914F913F913D
:101370002F910F900BBE0F900FBE0F901F901895DE
:1013800080910202E2E9F1E0E4919FEF9093020282
:10139000E230E9F040F4EE2389F0E13091F060E0D2
:1013A0000E948C04DACFE43049F110F1E530B9F74E
:1013B000909173009D7F90937300F1CF10926E0017
:1013C000EECF90916F009D7F90936F00E8CF90914A
:1013D00070009D7F9093700091E09093B000909189
:1013E000B100987F94609093B1001092B300D7CF72
:1013F000909171009D7F90937100D1CF9091720078
:101400009D7F90937200CBCF1F920F920FB60F92D9
:1014100011240BB60F922F933F934F935F936F93CB
:101420007F938F939F93AF93BF93EF93FF938FE837
:1014300092E00E94B105FF91EF91BF91AF919F9112
:101440008F917F916F915F914F913F912F910F906D
:101450000BBE0F900FBE0F901F9018951F920F920A
:101460000FB60F9211240BB60F922F938F939F9369
:10147000EF93FF93E0919F02F091A0028081E091B1
:10148000A502F091A60282FD1DC090818091A80264
:101490008F5F8F732091A902821741F0E091A8021B
:1014A000F0E0E157FD4F958F8093A802FF91EF91F7
:1014B0009F918F912F910F900BBE0F900FBE0F90A9
:1014C0001F9018958081F2CF1F920F920FB60F9246
:1014D00011240BB60F922F933F934F935F936F930B
:1014E0007F938F939F93AF93BF93EF93FF9348E2C4
:1014F00051E064E271E090E080E00E94ED06FF912F
:10150000EF91BF91AF919F918F917F916F915F917B
:101510004F913F912F910F900BBE0F900FBE0F90E8
:101520001F9018951F920F920FB60F9211240BB6B1
:101530000F922F933F934F935F936F937F938F936C
:101540009F93AF93BF93EF93FF9348EA50E064EA11
:1015500070E083E090E00E94ED06FF91EF91BF9173
:10156000AF919F918F917F916F915F914F913F913B
:101570002F910F900BBE0F900FBE0F901F901895DC
:101580001F920F920FB60F9211240BB60F922F934A
:101590003F934F935F936F937F938F939F93AF93FB
:1015A000BF93EF93FF9348E950E064E970E082E075
:1015B00090E00E94ED06FF91EF91BF91AF919F9156
:1015C0008F917F916F915F914F913F912F910F90EC
:1015D0000BBE0F900FBE0F901F9018951F920F9289
:1015E0000FB60F9211240BB60F922F933F934F9388
:1015F0005F936F937F938F939F93AF93BF93EF937B
:10160000FF9348E850E064E870E081E090E00E94D9
:10161000ED06FF91EF91BF91AF919F918F917F91D7
:101620006F915F914F913F912F910F900BBE0F9053
:101630000FBE0F901F901895109292021092910277
:1016400088EE93E0A0E0B0E0809393029093940240
:10165000A0939502B093960283E192E0909390025A
:1016600080938F0285EC90E090939C0280939B0284
:1016700084EC90E090939E0280939D0280EC90E039
:101680009093A00280939F0281EC90E09093A2023D
:101690008093A10282EC90E09093A4028093A30235
:1016A00086EC90E09093A6028093A5021092A80287
:1016B0001092A9021092AA021092AB0260E372E0AB
:1016C00086EC93E00E940F08EDEBF3E026EC33E0AC
:1016D0004FEF68EB7BE08091BC038033B0F491E086
:1016E000980F9093BC03808390E0DC01AA0FBB1F8E
:1016F000A80FB91FA45DBC4F12967C936E931197EF
:1017000033962E173F0739F708954083F9CFCF93CB
:10171000DF93CDB7DEB7A7970FB6F894DEBF0FBE45
:10172000CDBF789484B5826084BD84B5816084BD6A
:1017300085B5826085BD85B5816085BD80916E006F
:10174000816080936E0010928100809181008260A0
:1017500080938100809181008160809381008091DD
:1017600080008160809380008091B10084608093CC
:10177000B1008091B00081608093B00080919100B1
:1017800082608093910080919100816080939100AC
:10179000809190008160809390008091A100826090
:1017A0008093A1008091A10081608093A10080912D
:1017B000A00081608093A0008091210182608093CD
:1017C000210180912101816080932101809120017C
:1017D00081608093200180917A00846080937A00F8
:1017E00080917A00826080937A0080917A00816093
:1017F00080937A0080917A00806880937A001092BA
:10180000C1008CB58C7F8CBD8DB581608DBD1FB73F
:10181000F89480915D02811124C0ECEFF1E0849195
:10182000E2E4F2E09491E82FF0E0EE0FFF1FE355C1
:10183000FE4FA591B491EC91E92321F461E085E399
:101840000E948C0485E30E945F018CB580618CBD91
:101850008CB580648CBD84E30E945F0183E30E94A9
:101860005F0180915D028F5F80935D021FBFE091F9
:101870009F02F091A00282E08083E0919B02F091B0
:101880009C021082E0919D02F0919E028FEC808379
:101890001092A702E091A302F091A40286E0808357
:1018A000E091A102F091A202808180618083E091A9
:1018B000A102F091A202808188608083E091A10260
:1018C000F091A202808180688083E091A102F09172
:1018D000A20280818F7D808381E392E00E94A7072E
:1018E0008EE292E00E94A70780E30E945F0181E3FD
:1018F0000E945F0185E30E945F0161E080E30E9436
:101900008C0461E081E30E948C0461E085E30E9425
:101910008C0484E20E945F0129E0C22E22E0D22ED4
:101920000DEB13E03FE0A32E32E0B32E4CE0E42EAB
:1019300052E0F52ED6019C90B2E0CB0ED11CF801FE
:101940008081803308F052C0892D0E945F01D80148
:101950008C91282F30E0F901EE0FFF1FE20FF31FEB
:10196000E45DFC4F292D2F739081907C922B908306
:1019700011961C92119712961C926E2D0E941F0FA9
:101980008E9DA001112430E020E0BA01620F731F88
:10199000FB01EE0FFF1FE60FF71FE45DFC4F908188
:1019A00096FD16C02F5F3F4F2C30310571F7813007
:1019B00009F012C110928000F0928100109285000F
:1019C00010928400B19A80916F00826080936F00C2
:1019D000D801EC918E2F90E0FC01EE0FFF1FE80F75
:1019E000F91FE45DFC4F8081806480830D5F1F4F91
:1019F000AC14BD0409F09ECF60E084E20E948C0428
:101A000098E2892E912CA12CB12C22242394312CE4
:101A10008091640290916502892B09F407C10091BD
:101A200062021091630240ED57E060E070E0B8ECB4
:101A3000B09FC001B19F900D11240E947E010F5FE5
:101A40001F4F10936302009362020E9418052B013E
:101A50003C0180EFC82ED12CE12CF12C0E941805FE
:101A60006419750986099709683E734081059105D7
:101A7000A8F3E1E0CE1AD108E108F108F8EE4F0E24
:101A8000F3E05F1E611C711CC114D104E104F10478
:101A900029F78DE392E00E94A707C0906002D090E2
:101AA00061020D2C000CEE08FF08F7FECCC06DE2C1
:101AB0008FE892E00E94D30522273327A9012C1931
:101AC0003D094E095F0919A28E010F5D1F4FCA0122
:101AD000B9012AE030E040E050E00E94EE0E605D87
:101AE000D8016E938D01211531054105510579F716
:101AF0000115110519F0C8010E94A7078EE292E0B6
:101B00000E94A707809100029091010200915E025D
:101B100010915F02080F191F10935F0200935E027D
:101B20000832110519F00115110539F491958195C7
:101B3000910990930102809300020E3111050CF47B
:101B40009AC0309265022092640268E472E0CE018D
:101B500082960E940F0840E350E0BE016E5D7F4F09
:101B6000CE0101960E942008CE0101960E94B40782
:101B7000CE0182960E94B40768E472E0CE0182969C
:101B80000E940F0841E350E0BE016E5D7F4FCE0121
:101B900001960E942008CE0101960E94B407CE0152
:101BA00082960E94B40761E084E20E948C0464EB98
:101BB00070E08DEB93E00E94710664EB70E080ECC6
:101BC00093E00E94710664EB70E083EC93E00E9466
:101BD00071060E9440061CCF823061F41092900082
:101BE00080939100109295001092940088BB80938E
:101BF0007100EECE833061F41092A000F092A1004B
:101C00001092A5001092A400F9BAF0927200E0CEF2
:101C10008111DECE10922001F09221011092250157
:101C200010922401FABAF0927300D2CE109263029D
:101C30001092620248EC50E060E070E090E080E0DA
:101C40000E947E0102CFA701960119A28E010F5DAD
:101C50001F4FCA01B9012AE030E040E050E00E9485
:101C6000EE0E605DF80162938F012115310541058B
:101C7000510579F73DCF8091640290916502892BDF
:101C800009F44FC0109265021092640261E572E09F
:101C9000CE0182960E940F0840E350E0BE016E5DC7
:101CA0007F4FCE0101960E942008CE0101960E942E
:101CB000B407CE0182960E94B40761E572E0CE01BE
:101CC00082960E940F0841E350E0BE016E5D7F4F97
:101CD000CE0101960E942008CE0101960E94B40711
:101CE000CE0182960E94B40760E084E20E948C04D8
:101CF000A0915E02B0915F0224EB30E00E94330FAE
:101D0000A50194010E94BC0E6901B9018DEB93E01D
:101D10000E947106B60180EC93E00E947106B60144
:101D200054CF24EB30E0D8010E94330FA501940179
:101D30000E94BC0E6901B9018DEB93E00E9471060F
:101D4000B60180EC93E00E947106B60183EC93E04B
:101D50000E9471060F3011050CF43BCF8091600298
:101D6000909161020196909361028093600231CF5D
:101D700086EC93E00C94B407052E97FB1EF40094B8
:101D80000E94D30E57FD07D00E94EE0E07FC03D031
:101D90004EF40C94D30E50954095309521953F4FBD
:101DA0004F4F5F4F089590958095709561957F4F47
:101DB0008F4F9F4F08950E94100FA59F900DB49FC5
:101DC000900DA49F800D911D11240895B7FF0C94D0
:101DD000DB0E0E94DB0E821B930B0895A1E21A2EEC
:101DE000AA1BBB1BFD010DC0AA1FBB1FEE1FFF1FBF
:101DF000A217B307E407F50720F0A21BB30BE40B0F
:101E0000F50B661F771F881F991F1A9469F7609555
:101E10007095809590959B01AC01BD01CF0108950F
:101E2000A29FB001B39FC001A39F700D811D11241B
:101E3000911DB29F700D811D1124911D0895991B54
:101E400079E004C0991F961708F0961B881F7A95B1
:101E5000C9F780950895EE0FFF1F881F8BBF07906D
:101E6000F691E02D19940E94100FB7FF0895821B80
:101E7000930B08950F931F93CF93DF9382309105B7
:101E800010F482E090E0E091CE03F091CF0330E0D7
:101E900020E0B0E0A0E0309799F42115310509F475
:101EA0004AC0281B390B24303105D8F58A819B8123
:101EB0006115710589F1FB0193838283FE0111C0D5
:101EC000408151810281138148175907E0F048177A
:101ED000590799F4109761F012960C931297139684
:101EE0001C933296CF01DF91CF911F910F910895EE
:101EF0000093CE031093CF03F4CF2115310551F099
:101F00004217530738F0A901DB019A01BD01DF0137
:101F1000F801C1CFEF01F9CF9093CF038093CE03A7
:101F2000CDCFFE01E20FF31F81939193225031092F
:101F300039832883D7CF2091CC033091CD03232B35
:101F400041F420910502309106023093CD03209395
:101F5000CC0320910302309104022115310541F494
:101F60002DB73EB74091070250910802241B350B54
:101F7000E091CC03F091CD03E217F307A0F42E1B00
:101F80003F0B2817390778F0AC014E5F5F4F2417DD
:101F9000350748F04E0F5F1F5093CD034093CC039D
:101FA000819391939FCFF0E0E0E09CCFCF93DF93BC
:101FB0000097E9F0FC01329713821282A091CE03C0
:101FC000B091CF03ED0130E020E01097A1F4208123
:101FD0003181820F931F2091CC033091CD032817BC
:101FE000390709F061C0F093CD03E093CC03DF9192
:101FF000CF910895EA01CE17DF07E8F54A815B81AA
:102000009E0141155105B1F7E901FB83EA8349912E
:102010005991C40FD51FEC17FD0761F480819181A0
:102020000296840F951FE9019983888382819381A9
:102030009B838A83F0E0E0E012968D919C91139748
:102040000097B9F52D913C911197CD010296820F21
:10205000931F2091CC033091CD032817390739F60F
:10206000309751F51092CF031092CE03B093CD0369
:10207000A093CC03BCCFD383C28340815181840F12
:10208000951FC817D90761F44E5F5F4F888199810A
:10209000480F591F518340838A819B819383828398
:1020A0002115310509F0B0CFF093CF03E093CE03B3
:1020B0009ECFFD01DC01C0CF13821282D7CF4F9299
:1020C0005F926F927F928F929F92AF92BF92CF92C8
:1020D000DF92EF92FF920F931F93CF93DF938C01C8
:1020E000009799F4CB01DF91CF911F910F91FF9051
:1020F000EF90DF90CF90BF90AF909F908F907F90A8
:102100006F905F904F900C943A0FFC01E60FF71F11
:102110009C0122503109E217F30708F4AEC0D9013F
:10212000CD91DC911197C617D70720F1C530D105A5
:1021300078F0CE0104978617970750F0C61BD70B8F
:102140002297C193D1936D937C93CF010E94D60FB8
:10215000C801DF91CF911F910F91FF90EF90DF9019
:10216000CF90BF90AF909F908F907F906F905F9037
:102170004F9008955B01AC1ABD0A4C018C0E9D1E58
:10218000A091CE03B091CF03512C412CF12CE12C26
:10219000109731F58091CC039091CD038815990566
:1021A00009F05CC04616570608F058C0809103023B
:1021B00090910402009741F48DB79EB740910702B9
:1021C00050910802841B950BE817F90708F055C0D9
:1021D000F093CD03E093CC03F90171836083B8CF12
:1021E0008D919C91119712966C90129713967C90FA
:1021F0001397A815B90559F56C0142E0C40ED11C1E
:10220000CA14DB0420F1AC014A195B09DA01129609
:10221000159780F06282738251834083D9016D9358
:102220007C93E114F10471F0D7011396FC93EE93C3
:1022300012978ECF22968C0F9D1FF9019183808378
:10224000F301EFCFF093CF03E093CE0381CF481695
:10225000590608F42C017D01D3019ACFCB010E94CD
:102260003A0F7C01009749F0AE01B8010E9440117D
:10227000C8010E94D60F87016BCF10E000E068CF45
:10228000FB01DC0102C001900D9241505040D8F793
:102290000895FB01DC0101900D920020E1F7089503
:1022A00011E0CBE2D1E000E006C0802FFE010E94E9
:1022B0002B0F2196011DCC32D10780E00807A9F72A
:0422C000F894FFCFC0
:1022C4000100FF0000D003800002000300040000AE
:1022D400000000D3053D056A0520069B0579058DA0
:1022E400054D61737465722053656E6420000D0A98
:1022F40000535049204D41535445523A0073636F83
:1023040072652069733A20004661696C7572650ACA
:0823140000536166650A000038
:00000001FF
