:100000000C9440010C9471010C9471010C947101D9
:100010000C9471010C9471010C9471010C94710198
:100020000C9471010C9471010C9471010C94710188
:100030000C9471010C9471010C9471010C94710178
:100040000C9471010C946F070C9471010C94710164
:100050000C9471010C9471010C9471010C949B0629
:100060000C949D070C9471010C9471010C94710116
:100070000C9471010C9471010C9471010C94710138
:100080000C9441070C9471010C9471010C94710152
:100090000C9471010C9471010C9471010C94710118
:1000A0000C9471010C9471010C9413070C94710160
:1000B0000C9471010C9471010C9471010C94E5067F
:1000C0000C9471010C9471010C9471010C947101E8
:1000D0000C9471010C9471010C9471010C947101D8
:1000E0000C9471010C94E8050C9439020C944302B1
:1000F0000C94D90B0C945B030C9436020C945B02A9
:100100000C942A020C94CE0C0C9464020C9462039E
:100110000C94E7050C9411050C9457020C945F02A3
:100120000C9424020C943F020C944D020C943F0555
:100130000C9469020C9465020C9451020C94E20434
:100140000C945A050C9449020C942E020C945F03F3
:100150000C9457030C9432020C94F5040000210017
:10016000240027002A002D00300033000101000088
:10017000040107010A0100002200250028002B00CD
:100180002E003100340002010000050108010B01BE
:10019000000020002300260029002C002F00320040
:1001A0000001000003010601090105050505070519
:1001B00008080808020202020A0A080804040404E3
:1001C000010101010101010103030303030303030F
:1001D000040707070C0C0C0C0C0C0C0C020202029E
:1001E00006060606060606060B0B0B0B0B0B0B0B87
:1001F0000102102020080810204010204080020139
:10020000020108040201010204081020408080401D
:10021000201008040201800402018040201008041C
:1002200002010804020101020408102040800102BA
:1002300004081020408000000A0B02090C0D0E0873
:10024000070304010000000000000000000000009F
:10025000000000000000000000000000000000009E
:10026000000012111000000000000000000000005B
:10027000000000000000000000000000D90BCE0CC0
:1002800011241FBECFEFD1E2DEBFCDBF00E00CBF17
:1002900013E0A0E0B2E0E6E7FFE100E00BBF02C040
:1002A00007900D92A438B107D9F726E0A4E8B3E08F
:1002B00001C01D92A73DB207E1F711E0CFE3D1E005
:1002C00000E006C021970109802FFE010E947D0DEC
:1002D000CE33D10780E00807A9F70E94F7070C94F6
:1002E000A90F0C94000096E0899FD0011124A95B0E
:1002F000B94F90967C936E935F9791E091969C9303
:100300009197E091B406F091B5069091B3069923C8
:1003100039F0309751F0811108C08091630619942B
:10032000309719F05C968C91FACF0895CF92DF92B6
:10033000EF92FF920F931F9396E0899FF001112493
:10034000E95BF94F11A2278D30A12130310551F120
:1003500078F02230310509F451C02330310509F419
:1003600052C01F910F91FF90EF90DF90CF900895B2
:100370006623B9F361E070E00E9473012FB7F8942F
:100380008091430690914406A0914506B09146069F
:100390002FBF80939F069093A006A093A106B093D1
:1003A000A206DFCF9FB7F894C0904306D0904406D2
:1003B000E0904506F09046069FBF00919F06109181
:1003C000A0062091A1063091A206C01AD10AE20A25
:1003D000F30A0091B1061091B20630E020E00C154E
:1003E0001D052E053F0550F462E070E01F910F914E
:1003F000FF90EF90DF90CF900C9473016111B1CF1B
:1004000063E070E0F3CF70E060E0F0CF81508231C4
:1004100008F05AC0E82FF0E08827EE5EFD4F8F4FBE
:100420000C947D0D3202360224022A022E0264024E
:1004300039023F02430249024D02510257025B0258
:1004400064025F0265026902809180008F77809369
:1004500080000895809180008F7DF9CF8091800089
:10046000877FF5CF84B58F7784BD089584B58F7D60
:10047000FBCF8091B0008F778093B000089580917A
:10048000B0008F7DF9CF809190008F77809390009E
:100490000895809190008F7DF9CF80919000877FA3
:1004A000F5CF8091A0008F778093A0000895809170
:1004B000A0008F7DF9CF8091A000877FF5CF80913C
:1004C00020018F77809320010895809120018F7DF6
:1004D000F9CF80912001877FF5CFCF93DF93282F2D
:1004E00030E0F901EA5CFD4F8491F901E051FE4FE3
:1004F000D491F901E655FE4FC491CC23A1F08111AE
:100500000E940602EC2FF0E0EE0FFF1FE057FE4FB7
:10051000A591B491EC91ED2381E090E009F480E0A5
:10052000DF91CF91089580E090E0FACF1F93CF93B1
:10053000DF93282F30E0F901EA5CFD4F8491F90147
:10054000E051FE4FD491F901E655FE4FC491CC2302
:10055000A9F0162F81110E940602EC2FF0E0EE0F99
:10056000FF1FEA58FE4FA591B4918FB7F894EC9114
:10057000111108C0D095DE23DC938FBFDF91CF919E
:100580001F910895DE2BF8CFCF93DF9390E0FC010D
:10059000E051FE4F249186559E4FFC0184918823A3
:1005A000C9F090E0880F991FFC01E45AFE4FA59115
:1005B000B491FC01EA58FE4FC591D49161110DC070
:1005C0009FB7F8948C91209582238C93888128235F
:1005D00028839FBFDF91CF910895623051F49FB778
:1005E000F8943C91822F809583238C93E8812E2B65
:1005F000EFCF8FB7F894EC912E2B2C938FBFEACFCF
:100600003FB7F89480913F0690914006A091410633
:10061000B091420626B5A89B05C02F3F19F0019660
:10062000A11DB11D3FBFBA2FA92F982F8827BC014C
:10063000CD01620F711D811D911D42E0660F771F74
:10064000881F991F4A95D1F708958F929F92AF9274
:10065000BF92CF92DF92EF92FF924B015C010E941A
:1006600000036B017C010E9400036C197D098E0957
:100670009F09683E734081059105A8F321E0821A25
:100680009108A108B10888EEC80E83E0D81EE11CCD
:10069000F11C81149104A104B10429F7FF90EF909B
:1006A000DF90CF90BF90AF909F908F900895862F4E
:1006B000642F0C94C402862F642F0C949602862F0C
:1006C0000C946D02AF92BF92CF92DF92EF92FF92A5
:1006D0000F931F93CF93DF936C017B018B01040F6A
:1006E000151FEB015E01AE18BF08C017D10759F006
:1006F0006991D601ED91FC910190F081E02DC60148
:100700001995892B79F7C501DF91CF911F910F9131
:10071000FF90EF90DF90CF90BF90AF9008958F92B1
:100720009F92AF92BF92FF920F931F93CF93DF934D
:10073000FC01F0808FE28F1508F44AC0828108E541
:1007400012E0081B110987FD1395000F111F000F00
:10075000111F8181C8E8D0E0C81BD10987FDD3955E
:10076000CC0FDD1FCC0FDD1F4E010D2E000CAA0893
:10077000BB089801012E000C440B550B28193909B0
:100780004A095B09DB010E94380D24EB30E040E0B0
:1007900050E00E940E0D820E931EA41EB51E8C16F4
:1007A0009D062CF0E801801691060CF4E4012297D6
:1007B000CC0FDD1F2FB7F8948F2D90E0FC01EE0FCA
:1007C000FF1FE80FF91FE557FB4FD283C1832FBFEF
:1007D000DF91CF911F910F91FF90BF90AF909F90AD
:1007E0008F900895AF92BF92CF92DF92EF92FF92D7
:1007F0000F931F93CF93DF936B017A01EC01C957DD
:10080000DB4F28813CE0389F8001399F100D112477
:10081000A0908604B12C27FF1FC0FB01118210821B
:1008200088818F5F888388819801280F311D87FD1B
:100830003A95F6012A153B051CF488818C30C4F1E9
:1008400080819181049680349C4908F473C0F6013C
:1008500080819181049670C088819801280F311D94
:1008600087FD3A952A153B05DCF68881A801480FDB
:10087000511D87FD5A95FA01EE0FFF1FE40FF51F7A
:10088000E557FB4F808186FFCBCF8881F801E80FC9
:10089000F11D87FDFA95CF01EE0FFF1FE80FF91F3D
:1008A000E557FB4F808160E08F730E949602B8CFBE
:1008B000808191812881A801420F511D27FD5A9501
:1008C0009A01FA01EE0FFF1FE20FF31FE557FB4FEE
:1008D00021813281820F931FF70191838083888168
:1008E0009801280F311D87FD3A95F901EE0FFF1F82
:1008F000E20FF31FE557FB4F808186FF22C08881FE
:10090000080F111D87FD1A95F801EE0FFF1FE00F6C
:10091000F11FE557FB4F808161E08F73DF91CF912D
:100920001F910F91FF90EF90DF90CF90BF90AF900D
:100930000C94960280E49CE9F701918380838FEF09
:100940008883DF91CF911F910F91FF90EF90DF90FF
:10095000CF90BF90AF900895BF92CF92DF92EF9269
:10096000FF920F931F93CF93DF938C01B42E6C01F2
:100970008EE0C80ED11CD0E0C0E0E62EF12CB7010D
:100980000C2E02C0759567950A94E2F76170F60126
:1009900081916F010E9496022196CB1580F361E050
:1009A000F80185850E94960260E0F8018585DF9157
:1009B000CF911F910F91FF90EF90DF90CF90BF905C
:1009C0000C949602FC0186898F3F71F02185328557
:1009D000662329F0232B31F461E00C949602213038
:1009E0003105D1F360E0F9CF0895EF92FF921F93A4
:1009F000CF93DF93EC01162F7A0161E0812F0E94E3
:100A0000C4021E8BFA86E986E881F9810484F585A3
:100A1000E02D60E0CE01DF91CF911F91FF90EF902C
:100A200019940F931F93CF93DF93EC01162F042F8C
:100A300061E0413009F060E08B850E9496028C8570
:100A40008F3F19F060E00E949602023079F08C81AD
:100A500048E084FD0CC0612F70E084E075956795D7
:100A60008A95E1F744E0CE010E94AC0444E0612F96
:100A7000CE01DF91CF911F910F910C94AC04DC015A
:100A8000ED91FC910684F785E02D41E0199581E018
:100A900090E00895DC01ED91FC910684F785E02D4E
:100AA00040E0199461E00E944A058BE39FE10197C1
:100AB000F1F708950F931F93CF93DF93EC0142302A
:100AC00018F08C8188608C834F836887222329F0FB
:100AD000413019F48C8184608C8364E670E080E09E
:100AE00090E00E9425036C8164FD57C0E881F98184
:100AF0000684F785E02D42E063E0CE0119958BE492
:100B000096E40197F1F7E881F9810684F785E02DF5
:100B100042E063E0CE01199503E512E0C8010197B8
:100B2000F1F7E881F9810684F785E02D42E063E082
:100B3000CE011995C8010197F1F7E881F981068482
:100B4000F785E02D42E062E0CE011995C8010197DA
:100B5000F1F76C816062CE010E944A058BEE90E055
:100B60000197F1F784E08D836CE0CE010E944A0585
:100B7000CE010E94520582E08E8366E0CE010E9483
:100B80004A05E881F9810484F585E02D6FEFCE01F7
:100B9000DF91CF911F910F9119946062CE010E9455
:100BA0004A058BE496E40197F1F76C816062CE010F
:100BB0000E944A0503E512E0C8010197F1F76C8134
:100BC0006062CE010E944A05C1CF0895089508953C
:100BD00090E080E0089560E088E20E94960260E084
:100BE00089E20E94960260E08AE20C94960261E03B
:100BF00088E20E94960261E089E20E94960261E02A
:100C00008AE20C949602FC0101900020E9F73197EA
:100C1000AF01481B590BBC0186EB96E00C946203B4
:100C2000CF93DF93EC0188819981009711F00E94A6
:100C3000210E198218821D821C821B821A82DF916A
:100C4000CF910895FC0180819181009711F00C945F
:100C5000210E08950E948B0F0F931F93CF93DF9364
:100C6000EC0188819981009759F02A813B812617F0
:100C7000370730F081E0DF91CF911F910F910895F8
:100C80008B016F5F7F4F0E94AA0E009759F09983E6
:100C900088831B830A832C813D81232B59F7FC0118
:100CA0001082E8CF80E0E7CFEF92FF920F931F937F
:100CB000CF93DF93EC017B018A01BA010E942C06DD
:100CC00081110BC0CE010E941006CE01DF91CF91A1
:100CD0001F910F91FF90EF9008951D830C83B70132
:100CE000888199810E94A20FF0CF50E040E069E531
:100CF00073E08DEC96E00C945406CF93DF93C0E044
:100D0000D1E0EEE3F5E0DF01CE011D920197E9F7B6
:100D100064E873E0CF010E94A20FE4E8F3E0DF0192
:100D2000CE011D920197E9F7109285041092840478
:100D3000DF91CF9108951F920F920FB60F92112459
:100D40002F933F938F939F93AF93BF9380914306CD
:100D500090914406A0914506B091460630913E061A
:100D600023E0230F2D3758F50196A11DB11D2093C7
:100D70003E068093430690934406A0934506B093A5
:100D8000460680913F0690914006A0914106B091A1
:100D900042060196A11DB11D80933F069093400627
:100DA000A0934106B0934206BF91AF919F918F915E
:100DB0003F912F910F900FBE0F901F90189526E82E
:100DC000230F0296A11DB11DD2CF1F920F920FB615
:100DD0000F9211240BB60F922F933F934F935F9373
:100DE0006F937F938F939F93AF93BF93EF93FF93F3
:100DF00048E251E064E271E090E080E00E94F2039A
:100E0000FF91EF91BF91AF919F918F917F916F91E2
:100E10005F914F913F912F910F900BBE0F900FBE9E
:100E20000F901F9018951F920F920FB60F921124DA
:100E30000BB60F922F933F934F935F936F937F93D4
:100E40008F939F93AF93BF93EF93FF9348EA50E044
:100E500064EA70E083E090E00E94F203FF91EF917A
:100E6000BF91AF919F918F917F916F915F914F91C2
:100E70003F912F910F900BBE0F900FBE0F901F90C0
:100E800018951F920F920FB60F9211240BB60F9266
:100E90002F933F934F935F936F937F938F939F9382
:100EA000AF93BF93EF93FF9348E950E064E970E09C
:100EB00082E090E00E94F203FF91EF91BF91AF9129
:100EC0009F918F917F916F915F914F913F912F9162
:100ED0000F900BBE0F900FBE0F901F9018951F9292
:100EE0000F920FB60F9211240BB60F922F933F93D0
:100EF0004F935F936F937F938F939F93AF93BF9322
:100F0000EF93FF9348E850E064E870E081E090E000
:100F10000E94F203FF91EF91BF91AF919F918F914A
:100F20007F916F915F914F913F912F910F900BBEE9
:100F30000F900FBE0F901F9018951F920F920FB633
:100F40000F9211240BB60F922F933F934F935F9301
:100F50006F937F938F939F93AF93BF93EF93FF9381
:100F600085E30E946D02892B79F58EB5E0918404AA
:100F7000F0918504EC57FC4F80838091840490911C
:100F80008504019690938504809384048091840461
:100F9000909185048F3F910509F048F4E091840415
:100FA000F0918504ED57FC4F80818A3011F40E9446
:100FB0007D06E0918404F0918504E85EFD4F808118
:100FC0008EBD0DB407FEFDCFFF91EF91BF91AF91A4
:100FD0009F918F917F916F915F914F913F912F9151
:100FE0000F900BBE0F900FBE0F901F901895CF93D0
:100FF000DF9300D000D01F921F92CDB7DEB7789458
:1010000084B5826084BD84B5816084BD85B582600D
:1010100085BD85B5816085BD80916E0081608093BE
:101020006E00109281008091810082608093810027
:101030008091810081608093810080918000816037
:10104000809380008091B10084608093B100809192
:10105000B00081608093B0008091910082608093A5
:101060009100809191008160809391008091900027
:101070008160809390008091A10082608093A100A4
:101080008091A10081608093A1008091A000816087
:101090008093A00080912101826080932101809142
:1010A00021018160809321018091200181608093E2
:1010B000200180917A00846080937A0080917A0088
:1010C000826080937A0080917A00816080937A00B8
:1010D00080917A00806880937A001092C10020E0AD
:1010E00042E060E186EB96E00E945A0561E088E20A
:1010F0000E94C40261E089E20E94C40261E08AE2C7
:101100000E94C40227E3C22E23E0D22E3CE3A32E8A
:1011100035E0B32E0BE115E04CE0E42E52E0F52E65
:10112000D8018C91803308F055C0F601908061E0C1
:10113000892D0E94C402D8018C91282F30E0F9013A
:10114000EE0FFF1FE20FF31FE557FB4F292D2F7303
:101150009081907C922B908311961C9211971296FD
:101160001C926E2D0E94710D8E9DA001112430E005
:1011700020E0BA01620F731FFB01EE0FFF1FE60FA5
:10118000F71FE557FB4F908196FD16C02F5F3F4F2D
:101190002C30310571F7813009F067C01092800062
:1011A000F09281001092850010928400B19A809193
:1011B0006F00826080936F00D801EC918E2F90E0D9
:1011C000FC01EE0FFF1FE80FF91FE557FB4F808171
:1011D000806480830D5F1F4FB2E0CB0ED11CA01640
:1011E000B10609F09DCF0E94F70561E083E00E94FF
:1011F000C40284B1887F84B9239A80EC8CBD412CD1
:10120000512C32014394F0903D0580913E05863487
:1012100009F055C00E947506F1100FC086EB96E0EC
:101220000E9452058DE493E00E94030687E593E057
:101230000E940306E1E0E0933D050E94EB05EBE12F
:10124000EE2EE5E0FE2E70E060E0C7010E948F0305
:10125000F3E0EF0EF11CE016F106A9F7E0E0F0E094
:10126000EF2B89F20E940000CECF823061F4109201
:10127000900080939100109295001092940088BB8A
:101280008093710099CF833061F41092A000F092A6
:10129000A1001092A5001092A400F9BAF092720079
:1012A0008BCF811189CF10922001F09221011092F1
:1012B000250110922401FABAF09273007DCFFF202D
:1012C00041F086EB96E00E9452050E94F7051092CD
:1012D0003D0521E02093B3068FB7F8944091430673
:1012E0005091440660914506709146068FBF8091EB
:1012F000A3069091A406A091A506B091A606481B4E
:10130000590B6A0B7B0B8091AF069091B006B0E051
:10131000A0E084179507A607B70708F03BC1F12C9A
:101320008091AD06F81660F4E091A906F091AA0646
:10133000EF0DF11D62E080810E94C402F394F0CFB2
:10134000312C8091AE06381608F061C0E32CF12CE8
:10135000E091AB06F091AC06EE0DFF1D61E08081DF
:101360000E94C402E091AB06F091AC06EE0DFF1DA9
:1013700060E080810E949602D301C201032C04C068
:10138000880F991FAA1FBB1F0A94D2F74C015C015A
:10139000A094B094212C8091AD06281608F5C22C9B
:1013A000D12CE091A906F091AA06EC0DFD1D8081DB
:1013B0000E946D02D6011496FD01EE0FFF1FE95B3E
:1013C000F94F892B41F48081918188299929918352
:1013D00080832394E0CF808191818A219B21F7CF64
:1013E000E091AB06F091AC06EE0DFF1D61E080814F
:1013F0000E9496028091AB069091AC06E80EF91E11
:1014000060E0F70180810E94C40233949ACF67E4C0
:10141000E62E66E0F62E6701D6015F968D919C91CF
:101420009097892B59F45C961C925C97EFEFFFEF35
:101430005E96FC93EE935D9791961C92F6E0CF0E2C
:10144000D11C23E8C21626E0D20631F7B12C8091D8
:10145000AD06B81608F053C0A12C8B2C912C880C2B
:10146000991CC401815B994F4C012091AE06A216D4
:1014700008F043C0D4016D917C910A2C02C076958E
:1014800067950A94E2F7B29E900111242A0D311D4E
:10149000E7E4F6E080E0458D568D2417350709F422
:1014A00086C18F5F36968A30B1F760FF24C0E7E4CB
:1014B000F6E090E080E0448D411118C0E091A7066D
:1014C000F091A806E20FF31F4081B6E0B89FF0014B
:1014D000B99FF00D1124E95BF94F448F368F258FAA
:1014E00010A2178E61E00E94960105C00196369603
:1014F0008A30910501F7A394B8CFB394A8CF80E0C8
:10150000F70191A19111892FF6E0EF0EF11CCE1495
:10151000DF04B1F79FB7F894409143065091440619
:1015200060914506709146069FBF4093A306509375
:10153000A4066093A5067093A606882359F18091AE
:101540006806882339F180916606909167060197B5
:1015500009F5F0906306FF2009F480CE80913C05E8
:101560008823D9F04BE1E42E45E0F42E64EB70E0E3
:10157000C7010E948F0323E0E20EF11CE016F10682
:10158000A9F70E94F70510923C0586EB96E00E94B1
:10159000520564CE1092B30661CE33E2F31209C055
:1015A0000E94750668EC70E080E090E00E942503E0
:1015B000ECCF5AE2F512ACC086EB96E00E945205E1
:1015C000E090CD06F090CE06812C912C5401E114D0
:1015D000F10421F0C7010E94D20C4B018091D10689
:1015E0009091D206892B11F16AE573E0C7010E9440
:1015F000990F892BD9F481E080933C0582E693E032
:101600000E9403060E94EB053BE1E32E35E0F32E3A
:1016100070E060E0C7010E948F0393E0E90EF11CC7
:101620000E151F05A9F70E94750618CEC401019773
:10163000099708F062C01A8219821C821B821E82DE
:101640001D824BE050E06DE673E0CE0101960E94F2
:101650005406E090D106F090D206C090CD06D0900E
:10166000CE06C114D10409F443C0E114F104B1F071
:101670008D819E81E80EF91EB701CE0101960E9470
:101680002C068823A9F129813A818D819E81B6019A
:10169000820F931F0E94A20FFE82ED824D815E8118
:1016A00069817A8186EB96E00E946203CE01019601
:1016B0000E942206C401880F991F880E991ED4012A
:1016C000A55EBA4F4D0170E060E0CD010E948F032E
:1016D00060ED77E080E090E00E94250364EB70E02D
:1016E000C4010E948F0386EB96E00E9452059BCFB7
:1016F000CE0101960E941006D1CF89E793E00E94A7
:10170000030660E273E080E090E00E942503EBCFE7
:101710006F2D86EB96E00E943F051A8219821C828B
:101720001B821E821D826091CD067091CE066115CE
:10173000710541F04091D1065091D206CE0101963B
:101740000E945406FF821886ED80FE80BFEFEB1AE0
:10175000FB0AB701CE0101960E942C06811114C02C
:10176000CE0101960E94100669817A81611571058A
:10177000C9F04D815E818DEC96E00E945406CE0149
:1017800001960E9422066ACD29813A818D819E812F
:10179000BE01695F7F4F820F931F0E94A20FFE82DE
:1017A000ED82E2CF8DEC96E00E941006E8CF6170EA
:1017B0009ACE0F931F93CF93DF9310924906109206
:1017C0004D0610924C0610924E0681E393E09093E2
:1017D000480680934706E3E6F6E0108214821382FF
:1017E0001582369686E0EF39F807B9F783E092E084
:1017F0009093AA068093A90680E092E09093AC06AD
:101800008093AB0684E08093AD0683E08093AE06C0
:1018100087E092E09093A8068093A7068AE090E084
:101820009093B0068093AF0684EF91E09093B20658
:101830008093B1061092B5061092B4061092A306DA
:101840001092A4061092A5061092A6061092B30656
:10185000EBE1F5E02FEF48EB5BE08091860480330D
:1018600008F09AC091E0980F90938604808390E0EE
:10187000DC01AA0FBB1FA80FB91FA557BB4F1296BB
:101880005C934E931197339685E0EC33F80729F774
:101890001092B9061092B8068DE193E09093B706C6
:1018A0008093B6068EE18093C1068FEF8093C206C7
:1018B0008FE18093C30680E28093C40681E2809327
:1018C000C50682E28093C60683E28093C70684E25F
:1018D0008093C80685E28093C90686E28093CA0693
:1018E00087E28093CB06C4ECD6E008EC16E061E01A
:1018F00089910E94C4020C171D07C9F7C8ECD6E0F5
:1019000061E089910E94C40286E0CC3CD807C1F70F
:1019100061E08091C1060E94C4028091C2068F3F9F
:1019200019F061E00E94C40261E08091C3060E9448
:10193000C40280E18093BA0660E08091C1060E94F3
:10194000960260E08091C3060E9496028091C206D2
:101950008F3F19F060E00E9496028FEF8093CC06D3
:101960001092C0061092BF061092CE061092CD06BD
:101970001092D0061092CF061092D2061092D10685
:1019800050E040E069E573E08DEC96E0DF91CF91A7
:101990001F910F910C945406208375CF8DEC96E027
:1019A0000C9422061F93FC0199278827BC01E89418
:1019B00011911032E9F3193010F01E30C8F31B32C8
:1019C00051F01D3249F4689406C00E94F90C610F71
:1019D000711D811D911D119110531A30B0F33EF409
:1019E00090958095709561957F4F8F4F9F4F1F9178
:1019F0000895592F482F372F262F660F771F881FDE
:101A0000991F660F771F881F991F620F731F841F0E
:101A1000951F660F771F881F991F0895052E97FB46
:101A20001EF400940E94250D57FD07D00E94400D22
:101A300007FC03D04EF40C94250D5095409530953D
:101A400021953F4F4F4F5F4F08959095809570952A
:101A500061957F4F8F4F9F4F08950E94620DA59F04
:101A6000900DB49F900DA49F800D911D1124089599
:101A7000B7FF0C942D0D0E942D0D821B930B089522
:101A8000A1E21A2EAA1BBB1BFD010DC0AA1FBB1F82
:101A9000EE1FFF1FA217B307E407F50720F0A21BF4
:101AA000B30BE40BF50B661F771F881F991F1A9461
:101AB00069F760957095809590959B01AC01BD018B
:101AC000CF010895A29FB001B39FC001A39F700DE5
:101AD000811D1124911DB29F700D811D1124911D36
:101AE0000895991B79E004C0991F961708F0961B7A
:101AF000881F7A95C9F780950895EE0FFF1F881FFC
:101B00008BBF0790F691E02D19940F931F93CF93FD
:101B1000DF938230910510F482E090E0E091D506E9
:101B2000F091D60630E020E0B0E0A0E0309799F4E4
:101B30002115310509F44AC0281B390B2430310521
:101B4000D8F58A819B816115710589F1FB01938329
:101B50008283FE0111C040815181028113814817A7
:101B60005907E0F04817590799F4109761F0129659
:101B70000C93129713961C933296CF01DF91CF915D
:101B80001F910F9108950093D5061093D606F4CFB8
:101B90002115310551F04217530738F0A901DB0137
:101BA0009A01BD01DF01F801C1CFEF01F9CF909398
:101BB000D6068093D506CDCFFE01E20FF31F8193A9
:101BC00091932250310939832883D7CF2091D306AE
:101BD0003091D406232B41F4209115023091160246
:101BE0003093D4062093D30620911302309114022F
:101BF0002115310541F42DB73EB7409117025091A0
:101C00001802241B350BE091D306F091D406E2179D
:101C1000F307A0F42E1B3F0B2817390778F0AC010F
:101C20004E5F5F4F2417350748F04E0F5F1F5093EC
:101C3000D4064093D306819391939FCFF0E0E0E0E8
:101C40009CCFCF93DF930097E9F0FC01329713828A
:101C50001282A091D506B091D606ED0130E020E0C9
:101C60001097A1F420813181820F931F2091D30618
:101C70003091D4062817390709F061C0F093D406D3
:101C8000E093D306DF91CF910895EA01CE17DF07E5
:101C9000E8F54A815B819E0141155105B1F7E901E3
:101CA000FB83EA8349915991C40FD51FEC17FD07B7
:101CB00061F4808191810296840F951FE9019983D7
:101CC0008883828193819B838A83F0E0E0E012968F
:101CD0008D919C9113970097B9F52D913C91119797
:101CE000CD010296820F931F2091D3063091D40626
:101CF0002817390739F6309751F51092D606109209
:101D0000D506B093D406A093D306BCCFD383C283A9
:101D100040815181840F951FC817D90761F44E5F28
:101D20005F4F88819981480F591F518340838A8171
:101D30009B81938382832115310509F0B0CFF09305
:101D4000D606E093D5069ECFFD01DC01C0CF1382FD
:101D50001282D7CF4F925F926F927F928F929F9213
:101D6000AF92BF92CF92DF92EF92FF920F931F93A9
:101D7000CF93DF938C01009799F4CB01DF91CF9142
:101D80001F910F91FF90EF90DF90CF90BF90AF9099
:101D90009F908F907F906F905F904F900C94850DE7
:101DA000FC01E60FF71F9C0122503109E217F307EF
:101DB00008F4AEC0D901CD91DC911197C617D707B1
:101DC00020F1C530D10578F0CE010497861797072A
:101DD00050F0C61BD70B2297C193D1936D937C9380
:101DE000CF010E94210EC801DF91CF911F910F9169
:101DF000FF90EF90DF90CF90BF90AF909F908F902B
:101E00007F906F905F904F9008955B01AC1ABD0A70
:101E10004C018C0E9D1EA091D506B091D606512C7A
:101E2000412CF12CE12C109731F58091D306909143
:101E3000D4068815990509F05CC04616570608F0C7
:101E400058C08091130290911402009741F48DB70D
:101E50009EB74091170250911802841B950BE8170A
:101E6000F90708F055C0F093D406E093D306F901C2
:101E700071836083B8CF8D919C91119712966C906D
:101E8000129713967C901397A815B90559F56C0114
:101E900042E0C40ED11CCA14DB0420F1AC014A1983
:101EA0005B09DA011296159780F062827382518382
:101EB0004083D9016D937C93E114F10471F0D70153
:101EC0001396FC93EE9312978ECF22968C0F9D1F44
:101ED000F90191838083F301EFCFF093D606E0936D
:101EE000D50681CF4816590608F42C017D01D3018F
:101EF0009ACFCB010E94850D7C01009749F0AE017D
:101F0000B8010E94900FC8010E94210E87016BCF7B
:101F100010E000E068CF81E090E0F8940C94A90F05
:101F2000FB01DC0102C001900D9241505040D8F7F6
:101F30000895FB01DC018D91019080190110D9F306
:101F4000990B0895FB01DC0101900D920020E1F74F
:101F5000089511E0CFE3D1E000E006C0802FFE013C
:101F60000E947D0D2196011DC034D10780E0080735
:061F7000A9F7F894FFCF71
:101F7600181716191A1B1C313233343536373839CF
:101F86002A30230000D70680006F6B000000000097
:101F9600000000000000000000000000000000003B
:101FA600000000000000000000000000000000002B
:101FB600000000000000000000000000000000001B
:101FC600000000000000000000000000000000000B
:101FD60000000000000000000000000000000000FB
:101FE60000000000000000000000000000000000EB
:101FF60000000000000000000000000000000000DB
:1020060000000000000000000000000000000000CA
:1020160000000000000000000000000000000000BA
:1020260000000000000000000000000000000000AA
:10203600000000000000000000000000000000009A
:10204600000000000000000000000000000000008A
:10205600000000000000000000000000000000007A
:10206600000000000000000000000000000000006A
:10207600000000000000000000000000000000005A
:10208600000000000000000000000000003F0562A4
:1020960003E805E7055A05F504E20411050000000A
:1020A6000057035B035F0300000100020003000406
:1020B60000050006000700080009000A00656D65B6
:1020C6007267656E6379000D0A0031323334353636
:1020D60037005365747570204D6F64650044656CF8
:1020E60069766572696E67200057726F6E67204960
:0420F6004E50000048
:00000001FF
