:1000000013C1000030C100002EC100002CC100004F
:100010002AC1000028C1000026C1000024C1000040
:1000200022C1000020C100001EC100001CC1000050
:100030001AC1000018C1000016C1000014C1000060
:1000400012C1000010C100000EC100000CC1000070
:100050000AC1000008C1000006C100004CC2000037
:1000600002C1000000C10000FEC00000FCC0000092
:10007000FAC00000F8C00000F6C00000F4C00000A4
:10008000F2C00000F0C00000EEC00000ECC00000B4
:10009000EAC00000E8C00000E6C00000E4C00000C4
:1000A000E2C00000E0C00000DEC00000DCC00000D4
:1000B000DAC00000D8C00000D6C00000D4C00000E4
:1000C000D2C00000D0C00000CEC00000CCC00000F4
:1000D000CAC00000C8C00000C6C00000C4C0000004
:1000E000C2C000004E015101400144014A01880193
:1000F000550159015F01630167016D0171017501CE
:1001000088017B017F01830100002000230026007D
:1001100029002C002F00320000010000030106011D
:10012000090100000A0B02090C0D0E080703040167
:1001300000000000000000000000000000000000BF
:10014000000000000000000000000000000012118C
:10015000100000000000000000000000000000008F
:100160000000000000000000000022002500280020
:100170002B002E00310034000201000005010801AF
:100180000B0100002100240027002A002D00300070
:10019000330001010000040107010A0105050505FE
:1001A000070508080808020202020A0A08080404EF
:1001B000040401010101010101010303030303031D
:1001C0000303040707070C0C0C0C0C0C0C0C0202AC
:1001D000020206060606060606060B0B0B0B0B0BA9
:1001E0000B0B010210202008081020401020408036
:1001F00002010201080402010102040810204080EB
:100200008040201008040201800402018040201078
:1002100008040201080402010102040810204080C1
:10022000010204081020408011241FBECFEFD1E24C
:10023000DEBFCDBF00E00CBF12E0A0E0B2E0E2EA1A
:10024000F8E000E00BBF02C007900D92A032B107AA
:10025000D9F722E0A0E2B2E001C01D92AD32B207B0
:10026000E1F793D11CC3CCCE90E0FC013197E23191
:10027000F10508F04DC08827EE58FF4F8F4FF3C2AD
:10028000809180008F7703C0809180008F7D809364
:100290008000089580918000877FF9CF84B58F77A3
:1002A00002C084B58F7D84BD08958091B0008F77A2
:1002B00003C08091B0008F7D8093B000089580913D
:1002C00090008F7707C0809190008F7D03C0809150
:1002D0009000877F8093900008958091A0008F7791
:1002E00007C08091A0008F7D03C08091A000877F10
:1002F0008093A0000895809120018F7707C080919E
:1003000020018F7D03C080912001877F8093200191
:100310000895CF93DF93282F30E0F901EE5DFE4F73
:100320008491F901EE51FE4FD491F901E456FE4F4C
:10033000C491CC2389F0811197DFEC2FF0E0EE0F10
:10034000FF1FE85FFE4FA591B491EC91ED2381E092
:1003500090E021F480E002C080E090E0DF91CF9156
:1003600008951F93CF93DF93282F30E0F901EE5DBE
:10037000FE4F8491F901EE51FE4FD491F901E456FC
:10038000FE4FC491CC23C1F0162F81116DDFEC2FED
:10039000F0E0EE0FFF1FE859FE4FA591B4918FB723
:1003A000F894111105C09C91ED2FE095E92302C04E
:1003B000EC91ED2BEC938FBFDF91CF911F910895BE
:1003C0003FB7F8948091250290912602A0912702D0
:1003D000B091280226B5A89B05C02F3F19F00196C1
:1003E000A11DB11D3FBFBA2FA92F982F8827820FBB
:1003F000911DA11DB11DBC01CD0142E0660F771F0B
:10040000881F991F4A95D1F708958F929F92AF92B6
:10041000BF92CF92DF92EF92FF926B017C01D0DF0F
:100420004B015C01C114D104E104F104E9F0C8DF1F
:10043000DC01CB0188199909AA09BB09883E9340C0
:10044000A105B10578F321E0C21AD108E108F1084D
:1004500088EE880E83E0981EA11CB11CC114D10443
:10046000E104F10421F7DECFFF90EF90DF90CF9011
:10047000BF90AF909F908F900895FF920F931F931E
:10048000CF93DF938C01C8E0D2E00F3F8FEF1807C6
:1004900049F4F8808F2D3DDF61E0892B09F060E0A1
:1004A0008F2D02C0602F88815CDF229682E0C831E8
:1004B000D80759F7DF91CF911F910F91FF900895C1
:1004C000BC01E0E0F2E020E030E0A191B19141E038
:1004D0002617370709F440E091E0119709F090E002
:1004E000491307C02F5F3F4F2430310571F781E07A
:1004F000089580E008951F920F920FB60F92112475
:100500002F933F938F939F93AF93BF93809121023B
:1005100090912202A0912302B091240230912002F6
:1005200023E0230F2D3720F40196A11DB11D05C036
:1005300026E8230F0296A11DB11D2093200280936F
:10054000210290932202A0932302B093240280916F
:10055000250290912602A0912702B09128020196CF
:10056000A11DB11D8093250290932602A09327021E
:10057000B0932802BF91AF919F918F913F912F919E
:100580000F900FBE0F901F901895789484B58260DD
:1005900084BD84B5816084BD85B5826085BD85B527
:1005A000816085BD80916E00816080936E001092A5
:1005B0008100809181008260809381008091810020
:1005C00081608093810080918000816080938000B1
:1005D0008091B10084608093B1008091B00081600F
:1005E0008093B0008091910082608093910080910F
:1005F0009100816080939100809190008160809350
:1006000090008091A10082608093A1008091A10060
:1006100081608093A1008091A00081608093A00000
:10062000809121018260809321018091210181606C
:10063000809321018091200181608093200180912D
:100640007A00846080937A0080917A00826080933F
:100650007A0080917A00816080937A0080917A009C
:10066000806880937A001092C100A8E0B2E08D917A
:100670009D919927FC01EE51FE4F2491FC01E45617
:10068000FE4F8491882399F090E0880F991FFC0118
:10069000EE57FE4FC591D491FC01E859FE4F85916C
:1006A00094918FB7F894E881E22BE8838FBF82E0C2
:1006B000A831B807E1F6A8E1B2E08D919D919927A4
:1006C000FC01EE51FE4F2491FC01E456FE4F849153
:1006D0008823C9F090E0880F991FFC01EE57FE4F68
:1006E00045915491FC01E859FE4FC591D4919FB7B3
:1006F000F894FA0180812095822380838881E22FFB
:10070000E823E8839FBFF2E0A032BF07B1F608E01C
:1007100010E020E0E22E20E0F22E90E0C92E92E0E0
:10072000D92EC8E1D2E088812296F3DDF6018193CB
:1007300091936F01F2E0C032DF07A9F780E090E00B
:10074000BFDE882351F180912B0290912C02892BDE
:1007500021F5C0912902D0912A02FE01EE0FFF1F60
:10076000E85FFD4FD08061E08D2DFBDD64EF71E02F
:1007700080E090E04ADE60E08D2DF3DDCE01019651
:10078000B8015ED090932A0280932902E114F1040B
:1007900009F4C3CF0E940000C0CF81E090E090DE5A
:1007A000882331F080912B0290912C02892B31F11A
:1007B00082E090E085DE882329F010922C021092CE
:1007C0002B0218C083E090E07BDE8823F9F2809151
:1007D0002B0290912C02892BC9F689E09ADD892B96
:1007E00049F48FEF9FEF49DE68E873E180E090E025
:1007F0000CDEF3CF80E090E040DEC8CF81E090E0F7
:1008000090932C0280932B02C8E0D0E0219781E0E6
:1008100090E079F032DE68EC70E080E090E0F5DDA9
:1008200080E090E02ADE68EC70E080E090E0EDDDB2
:10083000EDCF23DE68EC70E080E090E0E6DDA6CF4F
:1008400097FB072E16F4009406D077FD08D013D03E
:1008500007FC05D03EF4909581959F4F08957095C3
:1008600061957F4F0895EE0FFF1F881F8BBF079084
:10087000F691E02D1994AA1BBB1B51E107C0AA1FDA
:10088000BB1FA617B70710F0A61BB70B881F991F31
:100890005A95A9F780959095BC01CD010895F894DB
:0208A000FFCF88
:1008A200010001000100010000000100020003003C
:1008B20004000500060007000C000B000A000900F6
:00000001FF
