:100000000C9449010C947A010C947A010C947A01B5
:100010000C947A010C947A010C947A010C947A0174
:100020000C947A010C947A010C947A010C947A0164
:100030000C947A010C947A010C947A010C947A0154
:100040000C947A010C947A010C947A010C947A0144
:100050000C947A010C947A010C947A010C94C806E1
:100060000C947A010C943C070C9412070C947A01BE
:100070000C947A010C947A010C947A010C947A0114
:100080000C947A010C947A010C947A010C947A0104
:100090000C947A010C947A010C947A010C947A01F4
:1000A0000C947A010C947A010C947A010C947A01E4
:1000B0000C947A010C947A010C947A010C947A01D4
:1000C0000C947A010C947A010C947A010C947A01C4
:1000D0000C947A010C947A010C947A010C947A01B4
:1000E0000C947A010C946E020C94DC040C94330290
:1000F0000C94D0030C9464030C945A020C944C029C
:100100000C9442020C9455040C9423060C9408049D
:100110000C9456020C9472020C9468030C949F0386
:100120000C9460030C9452020C9448020C947207D5
:100130000C94AE030C9472030C943F020C94C20313
:100140000C940B050C9437020C94EF040C9464028D
:100150000C9460020C9439050C9468020C946D02A6
:100160000C9495050C943B020C9422060C942D02E1
:1001700000002100240027002A002D003000330059
:1001800001010000040107010A010000220025000E
:1001900028002B002E003100340002010000050170
:1001A00008010B01000020002300260029002C007C
:1001B0002F003200000100000301060109010505BE
:1001C0000505070508080808020202020A0A0808CD
:1001D00004040404010101010101010103030303FB
:1001E00003030303040707070C0C0C0C0C0C0C0C8A
:1001F0000202020206060606060606060B0B0B0B9B
:100200000B0B0B0B010210202008081020401020BF
:1002100040800201020108040201010204081020CA
:1002200040808040201008040201800402018040C8
:100230002010080402010804020101020408102031
:100240004080010204081020408000000A0B0209CF
:100250000C0D0E0807030401000000000000000060
:10026000000000000000000000000000000000008E
:10027000000000000000121110000000000000004B
:10028000000000000000000000000000000000006E
:10029000720711241FBECFEFD1E2DEBFCDBF00E059
:1002A0000CBF12E0A0E0B2E0EAEFF6E100E00BBF25
:1002B00002C007900D92AA37B107D9F723E0AAE749
:1002C000B2E001C01D92A83BB207E1F711E0C9E41A
:1002D000D1E000E006C021970109802FFE010E94B5
:1002E0006E0BC834D10780E00807A9F70E94740894
:1002F0000C947B0B0C94000096E0899FD001112494
:10030000A75BBC4F90967C936E935F9791E091961C
:100310009C939197E091B603F091B7039091B50348
:10032000992339F0309751F0811108C0809165030D
:100330001994309719F05C968C91FACF0895CF926A
:10034000DF92EF92FF920F931F9396E0899FF00147
:100350001124E75BFC4F11A2278D30A1213031051C
:1003600051F178F02230310509F451C023303105C4
:1003700009F452C01F910F91FF90EF90DF90CF9042
:1003800008956623B9F361E070E00E947C012FB705
:10039000F8948091910290919202A0919302B09171
:1003A00094022FBF8093A1039093A203A093A30371
:1003B000B093A403DFCF9FB7F894C0909102D09080
:1003C0009202E0909302F09094029FBF0091A103EB
:1003D0001091A2032091A3033091A403C01AD10A63
:1003E000E20AF30A0091B3031091B40330E020E075
:1003F0000C151D052E053F0550F462E070E01F91BD
:100400000F91FF90EF90DF90CF900C947C016111E1
:10041000B1CF63E070E0F3CF70E060E0F0CF8150E7
:10042000823108F05AC0E82FF0E08827E55EFD4FE2
:100430008F4F0C946E0B3B023F022D0233023702AA
:100440006D02420248024C02520256025A026002F7
:1004500064026D0268026E027202809180008F77E2
:10046000809380000895809180008F7DF9CF8091E6
:100470008000877FF5CF84B58F7784BD089584B5DC
:100480008F7DFBCF8091B0008F778093B00008956F
:100490008091B0008F7DF9CF809190008F7780930D
:1004A00090000895809190008F7DF9CF8091900009
:1004B000877FF5CF8091A0008F778093A00008956B
:1004C0008091A0008F7DF9CF8091A000877FF5CF2C
:1004D000809120018F7780932001089580912001E1
:1004E0008F7DF9CF80912001877FF5CFCF93DF9368
:1004F000282F30E0F901E65BFD4F8491F901EC5FB4
:10050000FD4FD491F901E254FE4FC491CC23A1F0E8
:1005100081110E940F02EC2FF0E0EE0FFF1FEC554F
:10052000FE4FA591B491EC91ED2381E090E009F4A8
:1005300080E0DF91CF91089580E090E0FACF1F93A3
:10054000CF93DF93282F30E0F901E65BFD4F8491D4
:10055000F901EC5FFD4FD491F901E254FE4FC491D3
:10056000CC23A9F0162F81110E940F02EC2FF0E08E
:10057000EE0FFF1FE657FE4FA591B4918FB7F89489
:10058000EC91111108C0D095DE23DC938FBFDF9171
:10059000CF911F910895DE2BF8CFCF93DF9390E09A
:1005A000FC01EC5FFD4F249182549E4FFC0184912D
:1005B0008823C9F090E0880F991FFC01E059FE4F95
:1005C000A591B491FC01E657FE4FC591D4916111FC
:1005D0000DC09FB7F8948C91209582238C938881CD
:1005E000282328839FBFDF91CF910895623051F473
:1005F0009FB7F8943C91822F809583238C93E88158
:100600002E2BEFCF8FB7F894EC912E2B2C938FBF1E
:10061000EACF3FB7F89480918D0290918E02A0911D
:100620008F02B091900226B5A89B05C02F3F19F00C
:100630000196A11DB11D3FBFBA2FA92F982F882762
:10064000BC01CD01620F711D811D911D42E0660F3D
:10065000771F881F991F4A95D1F708958F929F920F
:10066000AF92BF92CF92DF92EF92FF924B015C016B
:100670000E9409036B017C010E9409036C197D092A
:100680008E099F09683E734081059105A8F321E01A
:10069000821A9108A108B10888EEC80E83E0D81E1E
:1006A000E11CF11C81149104A104B10429F7FF900D
:1006B000EF90DF90CF90BF90AF909F908F90089574
:1006C000862F642F0C94CD02862F642F0C949F02EA
:1006D000862F0C947602DC01ED91FC910190F08163
:1006E000E02D1994AF92BF92CF92DF92EF92FF92DA
:1006F0000F931F93CF93DF936C017B018B01040F4A
:10070000151FEB015E01AE18BF08C017D10759F0E5
:100710006991D601ED91FC910190F081E02DC60127
:100720001995892B79F7C501DF91CF911F910F9111
:10073000FF90EF90DF90CF90BF90AF900895FC01B5
:10074000538D448D252F30E0842F90E0821B930B36
:10075000541710F0CF96089501970895FC01918DDC
:10076000828D981761F0A28DAE0FBF2FB11D5D96DF
:100770008C91928D9F5F9F73928F90E008958FEF81
:100780009FEF0895FC01918D828D981731F0828D35
:10079000E80FF11D858D90E008958FEF9FEF08958C
:1007A000FC01918D228D892F90E0805C9F4F821BF0
:1007B00091098F739927089585E992E00E94D003EB
:1007C00021E0892B09F420E0822F0895FC01A48DFB
:1007D000A80FB92FB11DA35ABF4F2C91848D90E063
:1007E00001968F739927848FA689B7892C93A08946
:1007F000B1898C91837080648C93938D848D9813D0
:1008000006C00288F389E02D80818F7D8083089562
:10081000EF92FF920F931F93CF93DF93EC0181E050
:10082000888F9B8D8C8D98131AC0E889F9898081F7
:1008300085FF15C09FB7F894EE89FF896083E8892A
:10084000F98980818370806480839FBF81E090E01C
:10085000DF91CF911F910F91FF90EF900895F62EA9
:100860000B8D10E00F5F1F4F0F731127E02E8C8D43
:100870008E110CC00FB607FCFACFE889F989808188
:1008800085FFF5CFCE010E94E603F1CFEB8DEC0F93
:10089000FD2FF11DE35AFF4FF0829FB7F8940B8FA5
:1008A000EA89FB8980818062CFCFCF93DF93EC010F
:1008B000888D8823B9F0AA89BB89E889F9898C9148
:1008C00085FD03C0808186FD0DC00FB607FCF7CF04
:1008D0008C9185FFF2CF808185FFEDCFCE010E9404
:1008E000E603E9CFDF91CF91089580E090E0892B76
:1008F00029F00E94DC0381110E94000080E090E05A
:10090000892B49F080E090E0892B29F00E940000BB
:1009100081110E94000080E090E0892B49F080E086
:1009200090E0892B29F00E94000081110E940000B4
:1009300080E090E0892B49F080E090E0892B29F05D
:100940000E94000081110C9400000895BF92CF9284
:10095000DF92EF92FF920F931F93CF93DF938C015F
:10096000B42E6C018EE0C80ED11CD0E0C0E0E62EA3
:10097000F12CB7010C2E02C0759567950A94E2F729
:100980006170F60181916F010E949F022196CB1543
:1009900080F361E0F80185850E949F0260E0F80124
:1009A0008585DF91CF911F910F91FF90EF90DF90A0
:1009B000CF90BF900C949F02FC0186898F3F71F00D
:1009C00021853285662329F0232B31F461E00C94D4
:1009D0009F0221303105D1F360E0F9CF0895EF9205
:1009E000FF921F93CF93DF93EC01162F7A0161E002
:1009F000812F0E94CD021E8BFA86E986E881F9815B
:100A00000484F585E02D60E0CE01DF91CF911F9148
:100A1000FF90EF9019940F931F93CF93DF93EC0106
:100A2000162F042F61E0413009F060E08B850E94B1
:100A30009F028C858F3F19F060E00E949F02023078
:100A400079F08C8148E084FD0CC0612F70E084E077
:100A5000759567958A95E1F744E0CE010E94A6045A
:100A600044E0612FCE01DF91CF911F910F910C9443
:100A7000A604DC01ED91FC910684F785E02D41E0B0
:100A8000199581E090E00895DC01ED91FC910684D8
:100A9000F785E02D40E01994CF93DF9300D000D08C
:100AA0001F921F92CDB7DEB74091180250911902E4
:100AB00060911A0270911B024D835E836F83788769
:100AC00040911C0250911D0260911E0270911F0204
:100AD00049835A836B837C8320913903821710F0FA
:100AE0008FEF820F90E030913A038C0F9D1FFC0135
:100AF000303189F4243079F461816A5F606882E37F
:100B000093E028960FB6F894DEBF0FBECDBFDF91FD
:100B1000CF910C9444056581F0CF61E00E944405BB
:100B20008BE39FE10197F1F708950F931F93CF9304
:100B3000DF93EC01423018F08C8188608C834F8306
:100B40006887222329F0413019F48C8184608C83DA
:100B500064E670E080E090E00E942E036C8164FD0A
:100B600057C0E881F9810684F785E02D42E063E013
:100B7000CE0119958BE496E40197F1F7E881F981AC
:100B80000684F785E02D42E063E0CE01199503E588
:100B900012E0C8010197F1F7E881F9810684F78531
:100BA000E02D42E063E0CE011995C8010197F1F70D
:100BB000E881F9810684F785E02D42E062E0CE010C
:100BC0001995C8010197F1F76C816062CE010E940E
:100BD00044058BEE90E00197F1F784E08D836CE0A3
:100BE000CE010E944405CE010E948D0582E08E83D5
:100BF00066E0CE010E944405E881F9810484F58510
:100C0000E02D6FEFCE01DF91CF911F910F911994DD
:100C10006062CE010E9444058BE496E40197F1F7EF
:100C20006C816062CE010E94440503E512E0C801B8
:100C30000197F1F76C816062CE010E944405C1CF3B
:100C400008950895089590E080E008958130910519
:100C500021F0029721F083E2089588E508958FE45A
:100C60000895FC0101900020E9F73197AF01481B7E
:100C7000590BBC0182E393E00C94720380E592E08F
:100C80000C943106CF93DF9382E393E00E948D05AD
:100C900080E00E944C05CAE7D2E08C859D850E94C9
:100CA0002606682F82E393E00E946B030E943E06B3
:100CB0008E859F850E942606682F82E393E00E941E
:100CC0006B030E943E06888999890E942606682F38
:100CD00082E393E00E946B030E943E0681E00E9443
:100CE0004C058E819F810E942606682F82E393E047
:100CF0000E946B030E943E06888599850E94260605
:100D0000682F82E393E00E946B030E943E068A856F
:100D10009B850E942606682F82E393E00E946B0366
:100D20000E943E0682E00E944C05888199810E94C3
:100D30002606682F82E393E00E946B030E943E0622
:100D40008A819B810E942606682F82E393E00E949D
:100D50006B030E943E068C819D810E942606682FAF
:100D600082E393E00E946B03DF91CF910C943E06E7
:100D7000CF93DF930E943106EC0182E592E00E945E
:100D800031068C0F9D1FDF91CF9108950E94760B45
:100D90001F920F920FB60F9211242F933F938F93B0
:100DA0009F93AF93BF938091910290919202A091F3
:100DB0009302B091940230918C0223E0230F2D37DF
:100DC00058F50196A11DB11D20938C0280939102CC
:100DD00090939202A0939302B093940280918D021B
:100DE00090918E02A0918F02B09190020196A11D68
:100DF000B11D80938D0290938E02A0938F02B093C9
:100E00009002BF91AF919F918F913F912F910F9041
:100E10000FBE0F901F90189526E8230F0296A11D74
:100E2000B11DD2CF1F920F920FB60F9211240BB6A5
:100E30000F922F933F934F935F936F937F938F9373
:100E40009F93AF93BF93EF93FF9385E992E00E9446
:100E5000E603FF91EF91BF91AF919F918F917F91A9
:100E60006F915F914F913F912F910F900BBE0F901B
:100E70000FBE0F901F9018951F920F920FB60F92F2
:100E800011240BB60F922F938F939F93EF93FF93A1
:100E9000E091A502F091A6028081E091AB02F09171
:100EA000AC0282FD1DC090818091AE028F5F8F7376
:100EB0002091AF02821741F0E091AE02F0E0EB56D4
:100EC000FD4F958F8093AE02FF91EF919F918F918F
:100ED0002F910F900BBE0F900FBE0F901F90189583
:100EE0008081F2CF0F931F93CF93DF9310929802DC
:100EF0001092970288EE93E0A0E0B0E08093990210
:100F000090939A02A0939B02B0939C0284E292E099
:100F1000909396028093950285EC90E09093A202C4
:100F20008093A10284EC90E09093A4028093A302AA
:100F300080EC90E09093A6028093A50281EC90E073
:100F40009093A8028093A70282EC90E09093AA026B
:100F50008093A90286EC90E09093AC028093AB0260
:100F60001092AE021092AF021092B0021092B10233
:100F700010924B0310924F0310924E0310925003A5
:100F80008AE492E090934A0380934903E5E6F3E014
:100F90001082148213821582369683E0E13AF807B4
:100FA000B9F784E092E09093AC038093AB0380E0C8
:100FB00092E09093AE038093AD0384E08093AF03FF
:100FC0008093B00388E092E09093AA038093A903F2
:100FD0008AE090E09093B2038093B10384EF91E0B4
:100FE0009093B4038093B3031092B7031092B603A7
:100FF0001092A5031092A6031092A7031092A803C3
:101000001092B503109235031092340386E392E0F8
:10101000909333038093320389E180933D038FEFF4
:1010200080933E038AE180933F038BE180934003EA
:101030008CE1809341038DE1809342038EE18093A4
:1010400043038FE18093440380E28093450381E270
:101050008093460382E280934703C0E4D3E004E434
:1010600013E061E089910E94CD020C171D07C9F7BA
:10107000C4E4D3E008E413E061E089910E94CD026A
:101080000C171D07C9F761E080913D030E94CD0256
:1010900080913E038F3F19F061E00E94CD0261E034
:1010A00080913F030E94CD0280E18093360360E08F
:1010B00080913D030E949F0260E080913F030E9467
:1010C0009F0280913E038F3F19F060E00E949F02D3
:1010D0008FEF8093480310923C0310923B03DF9103
:1010E000CF911F910F910895789484B5826084BD4B
:1010F00084B5816084BD85B5826085BD85B581601C
:1011000085BD80916E00816080936E001092810099
:101110008091810082608093810080918100816054
:101120008093810080918000816080938000809115
:10113000B10084608093B1008091B00081608093A1
:10114000B000809191008260809391008091910025
:1011500081608093910080919000816080939000E5
:101160008091A10082608093A1008091A1008160A4
:101170008093A1008091A00081608093A000809165
:1011800021018260809321018091210181608093FF
:1011900021018091200181608093200180917A005B
:1011A000846080937A0080917A00826080937A00D4
:1011B00080917A00816080937A0080917A008068C3
:1011C00080937A001092C100E091A502F091A602EE
:1011D00082E08083E091A102F091A2021082E0916E
:1011E000A302F091A4028FEC80831092AD02E091F3
:1011F000A902F091AA0286E08083E091A702F09113
:10120000A802808180618083E091A702F091A8020A
:10121000808188608083E091A702F091A80280819C
:1012200080688083E091A702F091A80280818F7D81
:10123000808320E044E060E182E393E00E94950532
:101240000E94420632E0432E512C812C912C5401F5
:10125000839466246A94762C80917A0290917B0222
:101260000097B9F020917C0230917D02821793079C
:1012700081F420917E0230917F028217930749F416
:101280000197C1F582E393E00E948D0582E692E02A
:1012900037C040918002509181024115510591F073
:1012A00020918202309183024217530759F4209112
:1012B0008402309185024217530721F441305105D1
:1012C00009F318C06091860270918702611571055B
:1012D00001F1209188023091890262177307C9F4E5
:1012E00020918A0230918B026217730791F461306A
:1012F000710541F282E393E00E948D0585E592E05D
:101300000E94B80668E873E180E090E00E942E0336
:101310003BC1009739F08417950721F4861797078A
:1013200009F4AECFE0917C02F0917D02309791F00C
:101330002091820230918302E217F30759F4209141
:10134000880230918902E217F30721F4319709F4FA
:1013500099CFD0CF20917E0230917F0221153105A7
:1013600009F445C1A0918402B09185022A173B0778
:1013700009F0B0C1A0918A02B0918B022A173B07F5
:1013800009F0A8C12130310509F47CCFB3CF312C4D
:101390008091B003381608F05FC0032D10E0E09193
:1013A000AD03F091AE03E00FF11F61E080810E9478
:1013B000CD02E091AD03F091AE03E00FF11F60E0CC
:1013C00080810E949F02D501C401032C04C0880FB4
:1013D000991FAA1FBB1F0A94D2F76C017C01E094ED
:1013E000F094212C8091AF032816F8F4C22DD0E0A0
:1013F000E091AB03F091AC03EC0FFD1F80810E94E4
:1014000076022496CC0FDD1FC75BDC4F892B41F49D
:10141000888199818C299D29998388832394E2CF9F
:10142000888199818E219F21F7CFE091AD03F091C2
:10143000AE03E00FF11F61E080810E949F02809166
:10144000AD039091AE03080F191F60E0F801808191
:101450000E94CD0233949CCF99E4E92E93E0F92EBB
:10146000E7018F8D98A1892B21F41C8E7E8E6D8EC5
:1014700019A22696F3E0C538DF0799F7D12C8091A1
:10148000AF03D81608F051C0C12C0D2D10E0000F8D
:10149000111F0F5A1C4F2091B003C21608F043C011
:1014A000F801608171810C2C02C0769567950A94D1
:1014B000E2F7D29E900111242C0D311DE9E4F3E0F6
:1014C00080E0458D568D2417350709F487C08F5F5E
:1014D00036968A30B1F760FF24C0E9E4F3E090E08B
:1014E00080E0448D411118C0E091A903F091AA0356
:1014F000E20FF31F408156E0589FF001599FF00D15
:101500001124E75BFC4F448F368F258F10A2178E76
:1015100061E00E949F0105C0019636968A309105D0
:1015200001F7C394B8CFD394AACF80E0F70191A17B
:101530009111892FF6E0EF0EF11CCE15DF05B1F702
:101540009FB7F8944091910250919202609193025A
:10155000709194029FBF4093A5035093A60360939C
:10156000A7037093A803882391F080916A038823CE
:1015700071F000916803109169030130110539F48D
:1015800060916503611106C00E94750465CE1092DA
:10159000B503FACFC62FCC0FDD0BC85EDD4F8881B7
:1015A0009981892B89F785E992E00E946B03198361
:1015B00008830E944206E8CF85E992E00E94D003AA
:1015C000892B11F385E992E00E94AE03880F990BF5
:1015D000FC01E85EFD4F51824082EBCF617099CFF4
:1015E00082E393E00E948D058FE692E089CE00971A
:1015F000E9F0A0918202B09183028A179B0741F41F
:10160000A0918A02B0918B028A179B0709F49ECEA3
:101610002115310559F0809182029091830228179B
:10162000390721F46217730709F448CEAAE7B2E03C
:10163000FD0190E080E021913191232B09F001968A
:1016400022E0EC38F207B9F7099751F290E080E018
:101650002D913D91232B09F00196EA17FB07C1F765
:1016600080FDAACF51E05093B5038FB7F894409115
:1016700091025091920260919302709194028FBFF7
:101680008091A5039091A603A091A703B091A80310
:10169000481B590B6A0B7B0B8091B1039091B203ED
:1016A000B0E0A0E084179507A607B70708F06FCF52
:1016B000C0E08091AF03C81708F069CEE091AB039A
:1016C000F091AC03EC0FF11D62E080810E94CD022D
:1016D000CF5FEFCF009709F49ECF8BCFEE0FFF1FA8
:1016E000881F8BBF0790F691E02D199481E090E060
:0A16F000F8940C947B0BF894FFCFE4
:1016FA00090807060D0C0B0A3738392F34353678A6
:10170A003132332D2A30232B00401454004010501C
:10171A0000000000080472039F035504D003AE03BF
:10172A00C20300000000390572032306220695054C
:10173A00EF04DC040B050000000060036403680387
:10174A0020000D0A00504C41594552203120574F74
:10175A004E00504C41594552203220574F4E004EB0
:0A176A004F2057494E4E4552000033
:00000001FF
