:100000000C9429010C945A010C945A010C945A0135
:100010000C945A010C945A010C945A010C945A01F4
:100020000C945A010C945A010C945A010C945A01E4
:100030000C945A010C9454070C945A010C945A01D4
:100040000C945A010C945A010C945A010C945A01C4
:100050000C945A010C945A010C945A010C940A07FE
:100060000C945A010C941D080C94F3070C945A013B
:100070000C945A010C945A010C945A010C945A0194
:100080000C945A010C945A010C945A010C945A0184
:100090000C945A010C945A010C945A010C945A0174
:1000A0000C945A010C945A010C945A010C945A0164
:1000B0000C945A010C945A010C945A010C945A0154
:1000C0000C945A010C945A010C945A010C945A0144
:1000D0000C945A010C945A010C945A010C945A0134
:1000E0000C945A010C943A020C94D0010C94F00236
:1000F0000C94C6010C9491010C945D020C946B025B
:100100000C94D8010C94DE010C94B2010C94BC0147
:100110000C94C2010C94A3020C94DC090C94D4013D
:100120000C94A3010C948C010C94AF010C94E2018B
:100130000C94AB010C94A7010C94CA010C944902D5
:100140000C940D020C94B80100002100240027003B
:100150002A002D00300033000101000004010701D6
:100160000A010200002200250028002B002E003189
:1001700000340002010000050108010B010505051E
:1001800005070508080808020202020A0A0808040E
:10019000040404010101010101010103030303033C
:1001A000030303040707070C0C0C0C0C0C0C0C02CB
:1001B00002020206060606060606060B0B0B0B0BD2
:1001C0000B0B0B01021020200808102040102040CB
:1001D000800201020108040201010204081020400B
:1001E0008080402010080402018004020180402029
:1001F0001008040201080402010102040810204052
:1002000080010204081020408000000A0B02090C43
:100210000D0E0807030401000000000000000000AC
:1002200000000000000000000000000000000000CE
:10023000000000000012111000000000000000008B
:1002400000000000000000000000000000000000AE
:10025000DC0911241FBECFEFD1E2DEBFCDBF00E02D
:100260000CBF12E0A0E0B2E0E8E2F7E100E00BBF73
:1002700002C007900D92AC37B107D9F723E0ACE785
:10028000B2E001C01D92AB34B207E1F711E0C9E260
:10029000D1E000E006C021970109802FFE010E94F5
:1002A0004A0AC832D10780E00807A9F70E9453081C
:1002B0000C94920B0C940000282F30E0F901E75FBA
:1002C000FD4F9491F901ED53FE4F449123583E4F59
:1002D000F9012491222309F435C0992311F1915099
:1002E0009231F8F4E92FF0E08827E658FE4F8F4F5F
:1002F0000C944A0AAB01AF018C01A301A701910143
:10030000B201B801BC01C201C601CA01D001D401C9
:100310009101D801DE01E201809180008F77809306
:100320008000E22FF0E0EE0FFF1FED59FE4FA59188
:10033000B4918FB7F894EC91611148C040954E2369
:100340004C938FBF0895809180008F7DE8CF80917E
:100350008000877FE4CF84B58F7784BDE2CF84B5FA
:100360008F7DFBCF8091B0008F778093B000D9CF85
:100370008091B0008F7DF9CF809190008F7780932E
:100380009000CFCF809190008F7DF9CF8091900029
:10039000877FF5CF8091A0008F778093A000C1CF99
:1003A0008091A0008F7DF9CF8091A000877FF5CF4D
:1003B000809120018F7780932001B3CF809120011D
:1003C0008F7DF9CF80912001877FF5CF4E2BB8CF5D
:1003D0003FB7F8948091AA029091AB02A091AC0231
:1003E000B091AD0226B5A89B05C02F3F19F001962C
:1003F000A11DB11D3FBFBA2FA92F982F8827BC017F
:10040000CD01620F711D811D911D42E0660F771FA6
:10041000881F991F4A95D1F70895AF92BF92CF9246
:10042000DF92EF92FF920F931F93CF93DF936C01B4
:100430007B018B01040F151FEB015E01AE18BF0895
:10044000C017D10759F06991D601ED91FC91019047
:10045000F081E02DC6011995892B79F7C501DF914F
:10046000CF911F910F91FF90EF90DF90CF90BF90B1
:10047000AF900895FC01538D448D252F30E0842FDB
:1004800090E0821B930B541710F0CF9608950197BC
:100490000895FC01918D828D981761F0A28DAE0FA9
:1004A000BF2FB11D5D968C91928D9F5F9F73928F30
:1004B00090E008958FEF9FEF0895FC01918D828D5C
:1004C000981731F0828DE80FF11D858D90E0089529
:1004D0008FEF9FEF0895FC01918D228D892F90E081
:1004E000805C9F4F821B91098F73992708958EEA34
:1004F00092E00E946B0221E0892B09F420E0822F18
:100500000895FC01A48DA80FB92FB11DA35ABF4FA8
:100510002C91848D90E001968F739927848FA68902
:10052000B7892C93A089B1898C91837080648C9356
:10053000938D848D981306C00288F389E02D808105
:100540008F7D80830895EF92FF920F931F93CF9337
:10055000DF93EC0181E0888F9B8D8C8D98131AC0FE
:10056000E889F989808185FF15C09FB7F894EE89E5
:10057000FF896083E889F989808183708064808342
:100580009FBF81E090E0DF91CF911F910F91FF908D
:10059000EF900895F62E0B8D10E00F5F1F4F0F7335
:1005A0001127E02E8C8D8E110CC00FB607FCFACFF0
:1005B000E889F989808185FFF5CFCE010E9481020B
:1005C000F1CFEB8DEC0FFD2FF11DE35AFF4FF082C1
:1005D0009FB7F8940B8FEA89FB8980818062CFCF27
:1005E000CF93DF93EC01888D8823B9F0AA89BB896A
:1005F000E889F9898C9185FD03C0808186FD0DC055
:100600000FB607FCF7CF8C9185FFF2CF808185FF75
:10061000EDCFCE010E948102E9CFDF91CF91089505
:1006200080E090E0892B29F00E94770281110E94DE
:10063000000080E090E0892B49F080E090E0892B79
:1006400029F00E94000081110E94000080E090E0EB
:10065000892B49F080E090E0892B29F00E9400006E
:1006600081110E94000080E090E0892B49F080E039
:1006700090E0892B29F00E94000081110C94000069
:1006800008954F925F926F927F928F929F92AF9256
:10069000BF92CF92DF92EF92FF92CF93DF9300D081
:1006A0001F921F92CDB7DEB79C01FC01EE55FD4FA6
:1006B0008081882309F462C0A901440F551FFA0103
:1006C000EB5DFD4F9081963308F0965360917B006F
:1006D000892F8870677F862B80937B00977090644A
:1006E00090937C0080917A00806480937A0080915E
:1006F0007A0086FDFCCFC9012091780060917900D5
:1007000044565D4F36E0389FF001399FF00D1124BB
:10071000DA018D919C91E80FF91FEE0FFF1FEF5F3B
:10072000FD4FE080F180809100028830D9F18F3F49
:1007300009F440C00E94E8014B015C0125E0C22E93
:10074000D12CE12CF12C0E94E801681979098A0961
:100750009B09683E734081059105A8F3A1E0CA1A80
:10076000D108E108F108B8EE8B0EB3E09B1EA11C86
:10077000B11CC114D104E104F10429F70F900F90CA
:100780000F900F900F90DF91CF91FF90EF90DF903F
:10079000CF90BF90AF909F908F907F906F905F9021
:1007A0004F900895E2E6F1E0B491BD83BD81B7FDBD
:1007B000C1CF6FC088E080930002E2E6F1E084914F
:1007C0008D838F3F09F4B6CF823009F44FC118F5FD
:1007D000882309F447C0813049F7109280001092B5
:1007E00081008091810088608093810080918100E8
:1007F000816080938100E5E8F1E0E491F0E0EE0FA4
:10080000FF1FED59FE4F85919491EBECF1E0E491DF
:10081000E0937F023EC09D81943009F469C108F4E1
:1008200047C1953009F0C2CF1092200110922101EA
:100830008091210188608093210180912101816054
:1008400080932101E5E8F1E0E491F0E0EE0FFF1F75
:10085000ED59FE4F85919491EBECF1E0E491E0933A
:100860007C0217C014BC15BC84B5826084BD85B5FC
:10087000816085BDE5E8F1E0E491F0E0EE0FFF1F57
:10088000ED59FE4F85919491EBECF1E0E491E0930A
:100890008002EBECF1E03491E5E8F1E0849188230B
:1008A00099F090E0880F991FFC01E85BFE4FA5913D
:1008B000B491FC01ED59FE4F859194918FB7F89456
:1008C000EC91E32BEC938FBF762F622F072E000C59
:1008D000880B990B0E94990A20E030E040E05BE32E
:1008E0000E94FD0A4B015C01B701FF0C880B990BBC
:1008F0000E94990A9B01AC01C501B4010E94FD0A46
:100900000E94610A69837A838B839C8389819A819F
:100910004C01B12CA12C60E072E18AE790E0A501C6
:1009200094010E942B0A29013A017A01690191E0A0
:10093000C91AD108E108F1088D818D7F09F076C1CF
:10094000AFEFCA16D104E104F10409F00CF438C188
:1009500060E472E48FE090E0A50194010E942B0A0C
:1009600069017A01B1E0CB1AD108E108F1082D81C3
:10097000223009F0DBC08FEFC816D104E104F10486
:1009800009F00CF4F0C160E970ED83E090E0A5019E
:1009900094010E942B0A69017A0191E0C91AD108D9
:1009A000E108F10883E0AFEFCA16D104E104F104D5
:1009B00009F00CF454C068E478EE81E090E0A50101
:1009C00094010E942B0A69017A01A1E0CA1AD10898
:1009D000E108F10884E0BFEFCB16D104E104F10493
:1009E000F1F1ECF164E274EF80E090E0A501940194
:1009F0000E942B0A69017A01A1E0CA1AD108E10814
:100A0000F10885E0AFEFCA16D104E104F10439F131
:100A100030F162E17AE780E090E0A50194010E9464
:100A20002B0A69017A0181E0C81AD108E108F108AE
:100A300086E09FEFC916D104E104F10481F078F05B
:100A4000730162018AE0F594E794D794C7948A957C
:100A5000D1F791E0C91AD108E108F10887E0909137
:100A6000B100987F892B8093B100B2C01092B00082
:100A70001092B1008091B00082608093B0008091AC
:100A8000B10081608093B100E5E8F1E0E491F0E02D
:100A9000EE0FFF1FED59FE4F8591949190939602B2
:100AA00080939502EBECF1E0E491E0939702F1CEB4
:100AB0001092900010929100809191008860809334
:100AC000910080919100816080939100E5E8F1E0D0
:100AD000E491F0E0EE0FFF1FED59FE4F85919491E8
:100AE000EBECF1E0E491E0937E02A3E0AD83D1CEA4
:100AF0001092A0001092A1008091A10088608093C4
:100B0000A1008091A10081608093A100E5E8F1E05F
:100B1000E491F0E0EE0FFF1FED59FE4F85919491A7
:100B2000EBECF1E0E491E0937D02B3CEBFEFCB16A6
:100B3000D104E104F10409F00CF476C068E478EE25
:100B400081E090E0A50194010E942B0A69017A01DD
:100B500081E0C81AD108E108F1089D8184E0911173
:100B600051CF83E02FEFC216D104E104F10461F10B
:100B70005CF162E17AE780E090E0A50194010E94D7
:100B80002B0A69017A01B1E0CB1AD108E108F1081A
:100B900084E02FEFC216D104E104F104A9F0A0F023
:100BA000730162019AE0F594E794D794C7949A95FB
:100BB000D1F781E0C81AD108E108F10885E004C046
:100BC00081E09D8191114BCF95B5987F892B85BD93
:100BD00029813A81220F331FA5E0B0E00E94520A1A
:100BE00028EE33E040E050E00E94090A8D81823017
:100BF00009F485C00CF05AC0882309F471C0813013
:100C000009F098CDD0928900C092880020938D027F
:100C100030938E0240938F025093900280916F0028
:100C2000826080936F0086CD82E0CBCF91E0C114CB
:100C3000D104A1E0EA06F10484F068E478EE81E0F2
:100C400090E0A50194010E942B0A69017A01B1E0AC
:100C5000CB1AD108E108F10893E02D81213039F455
:100C600080918100887F892B80938100B1CF8D8115
:100C7000833039F480919100887F892B8093910093
:100C8000A7CFAD81A43039F48091A100887F892B52
:100C90008093A1009DCFBD81B53009F099CF80919F
:100CA0002101887F892B8093210192CF9D819430EF
:100CB00009F447C0A4F1953009F03CCDD092290148
:100CC000C0922801209381023093820240938302D4
:100CD00050938402809173008260809373002ACDC8
:100CE000C7BC209391023093920240939302509399
:100CF000940280916E00826080936E001BCDC09242
:100D0000B300209398023093990240939A02509333
:100D10009B02809170008260809370000BCDD09216
:100D20009900C09298002093890230938A024093E0
:100D30008B0250938C0280917100826080937100CD
:100D4000F9CCD092A900C092A800209385023093DC
:100D500086024093870250938802809172008260DD
:100D600080937200E7CC82E07ACEFC0101900020F3
:100D7000E9F73197AF01481B590BBC018EEA92E0AD
:100D80000C940D02CF93DF93682F8EEA92E00E94BD
:100D9000A302EC0183E492E00E94B5068C0F9D1F34
:100DA000DF91CF9108951F93CF93DF93182FEB011D
:100DB00086E492E00E94B506812F0E94C206FE01E1
:100DC000EE55FD4F81E08083CC0FDD1FC55DDD4F0B
:100DD00061E08881DF91CF911F910C945C011F939A
:100DE000CF93DF93182FEB0186E592E00E94B506C2
:100DF000812F0E94C206FE01EE55FD4F1082CC0FDE
:100E0000DD1FC55DDD4F60E08881DF91CF911F91CF
:100E10000C945C011F920F920FB60F9211242F9326
:100E20003F938F939F93AF93BF938091A60290912E
:100E3000A702A091A802B091A9023091A50223E0D7
:100E4000230F2D3758F50196A11DB11D2093A50242
:100E50008093A6029093A702A093A802B093A90240
:100E60008091AA029091AB02A091AC02B091AD0228
:100E70000196A11DB11D8093AA029093AB02A0938D
:100E8000AC02B093AD02BF91AF919F918F913F9112
:100E90002F910F900FBE0F901F90189526E8230FEB
:100EA0000296A11DB11DD2CF1F920F920FB60F92C5
:100EB00011240BB60F922F933F934F935F936F9331
:100EC0007F938F939F93AF93BF93EF93FF93809103
:100ED000980290919902A0919A02B0919B02892B5D
:100EE0008A2B8B2BE1F190919702E0919502F09182
:100EF000960280818927808380919802909199023F
:100F0000A0919A02B0919B02181619061A061B06A8
:100F10009CF48091980290919902A0919A02B091CC
:100F20009B020197A109B1098093980290939902BD
:100F3000A0939A02B0939B02FF91EF91BF91AF9162
:100F40009F918F917F916F915F914F913F912F91E1
:100F50000F900BBE0F900FBE0F901F9018958091B1
:100F60000002E2E6F1E0E4919FEF90930002E230AC
:100F7000E9F040F4EE2389F0E13091F060E00E9466
:100F80005C01DACFE43049F110F1E530B9F7909126
:100F900073009D7F90937300F1CF10926E00EECF9F
:100FA00090916F009D7F90936F00E8CF90917000BB
:100FB0009D7F9093700091E09093B0009091B1006C
:100FC000987F94609093B1001092B300D7CF909126
:100FD00071009D7F90937100D1CF909172009D7FA1
:100FE00090937200CBCF1F920F920FB60F921124E5
:100FF0000BB60F922F933F934F935F936F937F9313
:101000008F939F93AF93BF93EF93FF938EEA92E0FA
:101010000E948102FF91EF91BF91AF919F918F91BB
:101020007F916F915F914F913F912F910F900BBEE8
:101030000F900FBE0F901F9018951F920F920FB632
:101040000F9211240BB60F922F938F939F93EF93D0
:10105000FF93E091BE02F091BF028081E091C40253
:10106000F091C50282FD1DC090818091C7028F5F03
:101070008F732091C802821741F0E091C702F0E01F
:10108000E255FD4F958F8093C702FF91EF919F919D
:101090008F912F910F900BBE0F900FBE0F901F904E
:1010A00018958081F2CF789484B5826084BD84B530
:1010B000816084BD85B5826085BD85B5816085BD53
:1010C00080916E00816080936E001092810080910B
:1010D0008100826080938100809181008160809393
:1010E0008100809180008160809380008091B100B8
:1010F00084608093B1008091B00081608093B000E3
:101100008091910082608093910080919100816034
:1011100080939100809190008160809390008091F5
:10112000A10082608093A1008091A10081608093E2
:10113000A1008091A00081608093A0008091210196
:10114000826080932101809121018160809321013F
:101150008091200181608093200180917A008460D9
:1011600080937A0080917A00826080937A008091E7
:101170007A00816080937A0080917A008068809301
:101180007A001092C100E091BE02F091BF0282E0AD
:101190008083E091BA02F091BB021082E091BC0220
:1011A000F091BD028FEC80831092C602E091C202E2
:1011B000F091C30286E08083E091C002F091C10209
:1011C000808180618083E091C002F091C1028081C2
:1011D00088608083E091C002F091C10280818068C4
:1011E0008083E091C002F091C10280818F7D808375
:1011F00005E010E084E0E82EF12C93E0C92ED12C1C
:1012000022E0A22EB12C88248394912C8EEA92E0C5
:101210000E946B021816190684F48EEA92E00E946E
:101220004902C82F8D36E1F48091A40262E070E09B
:10123000882391F08DE60E94EF0690E080E00E9406
:10124000410381E090E00E94410382E090E00E942F
:1012500041030E941003DACF8DE60E94D306EDCF42
:101260008B3651F48091A30261E070E0882311F085
:101270008BE6E1CF8BE6F1CF8F3651F48091A2025D
:1012800070E060E0882311F08FE6D5CF8FE6E5CFE0
:10129000682F8EEA92E00E94A30285E692E00E9407
:1012A000B50683E492E00E94B506C13729F4109296
:1012B0009D0210929C02C1CFC13629F410929F0268
:1012C00010929E02BACFCA3729F41092A10210924E
:1012D000A002B3CFC73729F490929D0280929C025E
:1012E000ACCFC33729F490929F0280929E02A5CF83
:1012F000C83729F49092A1028092A0029ECFC536F1
:1013000029F4B0929D02A0929C0297CFC43629F492
:10131000B0929F02A0929E0290CFC33629F4B09261
:10132000A102A092A00289CFC23729F4D0929D02D7
:10133000C0929C0282CFC63629F4D0929F02C092FE
:101340009E027BCFC63729F4D092A102C092A002A0
:1013500074CFC43729F4F0929D02E0929C026DCFC5
:10136000C73629F4F0929F02E0929E0266CFC23601
:1013700029F4F092A102E092A0025FCFC93729F4CC
:1013800010939D0200939C0258CFC83629F4109305
:101390009F0200939E0251CFCE3629F41093A102F2
:1013A0000093A0024ACF8EE692E00E94B50683E445
:1013B00092E00E94B50641CFEEEAF2E0138212827B
:1013C00088EE93E0A0E0B0E084839583A683B783A2
:1013D00085E392E09183808385EC90E09587848714
:1013E00084EC90E09787868780EC90E0918B808BEF
:1013F00081EC90E0938B828B82EC90E0958B848BD8
:1014000086EC90E0978B868B118E128E138E148E45
:101410000895A1E21A2EAA1BBB1BFD010DC0AA1F35
:10142000BB1FEE1FFF1FA217B307E407F50720F04D
:10143000A21BB30BE40BF50B661F771F881F991FC8
:101440001A9469F760957095809590959B01AC0111
:10145000BD01CF010895052E97FB1EF400940E9454
:10146000420A57FD07D00E94090A07FC03D04EF438
:101470000C94420A50954095309521953F4F4F4F1F
:101480005F4F089590958095709561957F4F8F4F30
:101490009F4F0895EE0FFF1F881F8BBF0790F69197
:1014A000E02D1994A29FB001B39FC001A39F700DBE
:1014B000811D1124911DB29F700D811D1124911D5C
:1014C00008950E94680A6894B1110C94F70A08956F
:1014D0000E94DC0A88F09F5798F0B92F9927B751DE
:1014E000B0F0E1F0660F771F881F991F1AF0BA95C8
:1014F000C9F714C0B13091F00E94F60AB1E0089526
:101500000C94F60A672F782F8827B85F39F0B93F17
:10151000CCF3869577956795B395D9F73EF490957A
:101520008095709561957F4F8F4F9F4F0895E894F8
:1015300009C097FB3EF490958095709561957F4F1B
:101540008F4F9F4F9923A9F0F92F96E9BB279395C9
:10155000F695879577956795B795F111F8CFFAF4D9
:10156000BB0F11F460FF1BC06F5F7F4F8F4F9F4F0A
:1015700016C0882311F096E911C0772321F09EE868
:10158000872F762F05C0662371F096E8862F70E0CE
:1015900060E02AF09A95660F771F881FDAF7880FA8
:1015A0009695879597F9089557FD9058440F551FC4
:1015B00059F05F3F71F04795880F97FB991F61F0D5
:1015C0009F3F79F087950895121613061406551F4C
:1015D000F2CF4695F1DF08C0161617061806991FB8
:1015E000F1CF86957105610508940895E894BB27AD
:1015F00066277727CB0197F908950E94100B0C946A
:10160000810B0E94730B38F00E947A0B20F0952317
:1016100011F00C946A0B0C94700B11240C94F70AC3
:101620000E94D40A70F3959FC1F3950F50E0551FA7
:10163000629FF001729FBB27F00DB11D639FAA2727
:10164000F00DB11DAA1F649F6627B00DA11D661F76
:10165000829F2227B00DA11D621F739FB00DA11D97
:10166000621F839FA00D611D221F749F3327A00D51
:10167000611D231F849F600D211D822F762F6A2FED
:1016800011249F5750409AF0F1F088234AF0EE0F52
:10169000FF1FBB1F661F771F881F91505040A9F77F
:1016A0009E3F510580F00C946A0B0C94F70A5F3F43
:1016B000E4F3983ED4F3869577956795B795F795BB
:1016C000E7959F5FC1F7FE2B880F911D9695879533
:1016D00097F9089597F99F6780E870E060E00895B2
:1016E0009FEF80EC089500240A941616170618063A
:1016F0000906089500240A94121613061406050616
:101700000895092E0394000C11F4882352F0BB0FA6
:1017100040F4BF2B11F460FF04C06F5F7F4F8F4F09
:081720009F4F0895F894FFCFDC
:10172800FFC400D000B801D201EE01060193009C6D
:1017380000A500AF00B900C40062006800DC00E941
:1017480000F7008300360037003800020003000469
:101758000000000000A3020D023A02F0026B0249E9
:10176800025D020D0A00535441525420506C6179B5
:10177800696E673A200053544F5020506C61796964
:101788006E673A2000205072657373656400496E75
:0C17980076616C696420496E7075740005
:00000001FF
