:1000000013C10000F1C30000C4C3000097C3000087
:100010006AC300003DC3000010C30000E3C200003B
:10002000B6C2000020C100001EC100001CC10000BB
:100030001AC1000018C1000016C1000014C1000060
:1000400012C1000010C100000EC100000CC1000070
:100050000AC1000008C1000006C100004EC2000035
:1000600002C1000000C10000FEC00000FCC0000092
:10007000FAC00000F8C00000F6C00000F4C00000A4
:10008000F2C00000F0C00000EEC00000ECC00000B4
:10009000EAC00000E8C00000E6C00000E4C00000C4
:1000A000E2C00000E0C00000DEC00000DCC00000D4
:1000B000DAC00000D8C00000D6C00000D4C00000E4
:1000C000D2C00000D0C00000CEC00000CCC00000F4
:1000D000CAC00000C8C00000C6C00000C4C0000004
:1000E000C2C000006A016D015C0160016601A401EB
:1000F000710175017B017F01830189018D019101EE
:10010000A40197019B019F0100002000230026000D
:1001100029002C002F00320000010000030106011D
:10012000090100000A0B02090C0D0E080703040167
:1001300000000000000000000000000000000000BF
:10014000000000000000000000000000000012118C
:10015000100000000000000000000000000000008F
:100160000000000000000000000022002500280020
:100170002B002E00310034000201000005010801AF
:100180000B0100002100240027002A002D00300070
:10019000330001010000040107010A0105050505FE
:1001A000070508080808020202020A0A08080404EF
:1001B000040401010101010101010303030303031D
:1001C0000303040707070C0C0C0C0C0C0C0C0202AC
:1001D000020206060606060606060B0B0B0B0B0BA9
:1001E0000B0B010210202008081020401020408036
:1001F00002010201080402010102040810204080EB
:100200008040201008040201800402018040201078
:1002100008040201080402010102040810204080C1
:10022000010204081020408011241FBECFEFD1E24C
:10023000DEBFCDBF00E00CBF12E0A0E0B2E0EEEC0C
:10024000FBE000E00BBF02C007900D92AA32B1079D
:10025000D9F722E0AAE2B2E001C01D92AD33B207A5
:10026000E1F7EDD2B2C4CCCE81E090E090933602BB
:1002700080933502089581E090E090933802809356
:100280003702089581E090E090933A02809339021A
:10029000089581E090E090933C0280933B020895A2
:1002A00090E0FC013197E231F10508F04DC088275C
:1002B000EE58FF4F8F4F6DC4809180008F7703C041
:1002C000809180008F7D80938000089580918000D0
:1002D000877FF9CF84B58F7702C084B58F7D84BDC9
:1002E00008958091B0008F7703C08091B0008F7D1A
:1002F0008093B0000895809190008F7707C080911F
:1003000090008F7D03C080919000877F8093900044
:1003100008958091A0008F7707C08091A0008F7D05
:1003200003C08091A000877F8093A00008958091F2
:1003300020018F7707C0809120018F7D03C08091BD
:100340002001877F809320010895CF93DF93282F8A
:1003500030E0F901EE5DFE4F8491F901EE51FE4F60
:10036000D491F901E456FE4FC491CC2389F0811158
:1003700097DFEC2FF0E0EE0FFF1FE85FFE4FA59137
:10038000B491EC91ED2381E090E021F480E002C093
:1003900080E090E0DF91CF9108951F93CF93DF939A
:1003A000282F30E0F901EE5DFE4F8491F901EE5106
:1003B000FE4FD491F901E456FE4FC491CC23C1F015
:1003C000162F81116DDFEC2FF0E0EE0FFF1FE859C3
:1003D000FE4FA591B4918FB7F894111105C09C916F
:1003E000ED2FE095E92302C0EC91ED2BEC938FBF4C
:1003F000DF91CF911F9108953FB7F89480912F021C
:1004000090913002A0913102B091320226B5A89BA2
:1004100005C02F3F19F00196A11DB11D3FBFBA2F96
:10042000A92F982F8827820F911DA11DB11DBC01F6
:10043000CD0142E0660F771F881F991F4A95D1F7BB
:1004400008958F929F92AF92BF92CF92DF92EF92D8
:10045000FF926B017C01D0DF4B015C01C114D10420
:10046000E104F104E9F0C8DFDC01CB018819990946
:10047000AA09BB09883E9340A105B10578F321E0A4
:10048000C21AD108E108F10888EE880E83E0981EB0
:10049000A11CB11CC114D104E104F10421F7DECF89
:1004A000FF90EF90DF90CF90BF90AF909F908F9094
:1004B00008950895FF920F931F93CF93DF938C01BC
:1004C000CAE1D2E00F3F8FEF180749F4F8808F2D73
:1004D0003CDF61E0892B09F060E08F2D02C0602FC6
:1004E00088815BDF229682E0CA32D80759F7DF9114
:1004F000CF911F910F91FF9008951F920F920FB609
:100500000F9211242F933F938F939F93AF93BF9399
:1005100080912B0290912C02A0912D02B0912E027D
:1005200030912A0223E0230F2D3720F40196A11DDC
:10053000B11D05C026E8230F0296A11DB11D209311
:100540002A0280932B0290932C02A0932D02B09349
:100550002E0280912F0290913002A0913102B09131
:1005600032020196A11DB11D80932F02909330029B
:10057000A0933102B0933202BF91AF919F918F91BE
:100580003F912F910F900FBE0F901F9018951F92C3
:100590000F920FB60F9211240BB60F922F933F9329
:1005A0004F935F936F937F938F939F93AF93BF937B
:1005B000EF93FF93E0910E02F0910F021995FF91D6
:1005C000EF91BF91AF919F918F917F916F915F91CB
:1005D0004F913F912F910F900BBE0F900FBE0F9038
:1005E0001F9018951F920F920FB60F9211240BB601
:1005F0000F922F933F934F935F936F937F938F93BC
:100600009F93AF93BF93EF93FF93E0910C02F09110
:100610000D021995FF91EF91BF91AF919F918F912D
:100620007F916F915F914F913F912F910F900BBEF2
:100630000F900FBE0F901F9018951F920F920FB63C
:100640000F9211240BB60F922F933F934F935F930A
:100650006F937F938F939F93AF93BF93EF93FF938A
:10066000E0910202F09103021995FF91EF91BF9181
:10067000AF919F918F917F916F915F914F913F913A
:100680002F910F900BBE0F900FBE0F901F901895DB
:100690001F920F920FB60F9211240BB60F922F9349
:1006A0003F934F935F936F937F938F939F93AF93FA
:1006B000BF93EF93FF93E0910002F091010219952F
:1006C000FF91EF91BF91AF919F918F917F916F912A
:1006D0005F914F913F912F910F900BBE0F900FBEE6
:1006E0000F901F9018951F920F920FB60F92112422
:1006F0000BB60F922F933F934F935F936F937F931C
:100700008F939F93AF93BF93EF93FF93E0910A0270
:10071000F0910B021995FF91EF91BF91AF919F91CD
:100720008F917F916F915F914F913F912F910F909A
:100730000BBE0F900FBE0F901F9018951F920F9237
:100740000FB60F9211240BB60F922F933F934F9336
:100750005F936F937F938F939F93AF93BF93EF9329
:10076000FF93E0910802F09109021995FF91EF9132
:10077000BF91AF919F918F917F916F915F914F91B9
:100780003F912F910F900BBE0F900FBE0F901F90B7
:1007900018951F920F920FB60F9211240BB60F925D
:1007A0002F933F934F935F936F937F938F939F9379
:1007B000AF93BF93EF93FF93E0910602F09107028E
:1007C0001995FF91EF91BF91AF919F918F917F917B
:1007D0006F915F914F913F912F910F900BBE0F90B2
:1007E0000FBE0F901F9018951F920F920FB60F9289
:1007F00011240BB60F922F933F934F935F936F93F8
:100800007F938F939F93AF93BF93EF93FF93E09169
:100810000402F09105021995FF91EF91BF91AF91FC
:100820009F918F917F916F915F914F913F912F9108
:100830000F900BBE0F900FBE0F901F9018957894DD
:1008400084B5826084BD84B5816084BD85B58260D5
:1008500085BD85B5816085BD80916E008160809386
:100860006E001092810080918100826080938100EF
:1008700080918100816080938100809180008160FF
:10088000809380008091B10084608093B10080915A
:10089000B00081608093B00080919100826080936D
:1008A00091008091910081608093910080919000EF
:1008B0008160809390008091A10082608093A1006C
:1008C0008091A10081608093A1008091A00081604F
:1008D0008093A0008091210182608093210180910A
:1008E00021018160809321018091200181608093AA
:1008F000200180917A00846080937A0080917A0050
:10090000826080937A0080917A00816080937A007F
:1009100080917A00806880937A001092C100AAE1E9
:10092000B2E08D919D919927FC01EE51FE4F2491EB
:10093000FC01E456FE4F8491882399F090E0880FE3
:10094000991FFC01EE57FE4FC591D491FC01E85967
:10095000FE4F859194918FB7F894E881E22BE8835C
:100960008FBF82E0AA32B807E1F6A2E1B2E08D9132
:100970009D919927FC01EE51FE4F2491FC01E45614
:10098000FE4F84918823C9F090E0880F991FFC01E5
:10099000EE57FE4F45915491FC01E859FE4FC59129
:1009A000D4919FB7F894FA013081822F80958323E8
:1009B0008083E8812E2B28839FBFF2E0AA31BF07F6
:1009C000B1F684E391E090930B0280930A02809148
:1009D00069008F73806880936900EB9A8BE391E0E4
:1009E0009093090280930802809169008F7C806255
:1009F00080936900EA9A82E491E0909307028093E1
:100A0000060280916900837F886080936900E99A7B
:100A100089E491E09093050280930402809169003B
:100A20008C7F826080936900E89A08E010E090E093
:100A3000E92E90E0F92ECC24C394D12C809135027C
:100A400090913602892B69F18091100290911102E8
:100A5000892B39F1C0913302D0913402FE01EE0F9F
:100A6000FF1FE65EFD4FB08061E08B2D96DC64EFEA
:100A700071E080E090E0E5DC60E08B2D8EDCCE0163
:100A80000196B80173D09093340280933302109290
:100A9000360210923502E114F10481F20E94000046
:100AA000CDCF8091370290913802892B51F18091FE
:100AB000100290911102892B21F1C8E0D0E021971A
:100AC00081E090E079F0F6DC68EC70E080E090E0A6
:100AD000B8DC80E090E0EEDC68EC70E080E090E074
:100AE000B0DCEDCFE7DC68EC70E080E090E0A9DC02
:100AF00010921102109210021092380210923702D6
:100B0000CACF8091390290913A02892B61F080E03E
:100B100090E0D0DCD0921102C092100210923A0202
:100B200010923902B8CF80913B0290913C02892B00
:100B300009F4B1CF8091100290911102892B09F430
:100B4000AACF85E102DC892B49F48FEF9FEFB2DC5D
:100B500068E873E180E090E074DCF3CF80E090E03F
:100B6000A9DC10923C0210923B0295CF97FB072E16
:100B700016F4009406D077FD08D013D007FC05D0FA
:100B80003EF4909581959F4F0895709561957F4FA4
:100B90000895EE0FFF1F881F8BBF0790F691E02D81
:100BA0001994AA1BBB1B51E107C0AA1FBB1FA617A4
:100BB000B70710F0A61BB70B881F991F5A95A9F706
:0E0BC00080959095BC01CD010895F894FFCF6B
:100BCE00590259025902590259025902590259023F
:100BDE0001001200130014001500000001000200B5
:0A0BEE0003000400050006000700E4
:00000001FF
