:1000000014C1000040C100003EC100003CC100001E
:100010003AC1000038C1000036C1000034C1000000
:1000200032C1000030C100002EC100002CC1000010
:100030002AC1000028C1000026C1000024C1000020
:1000400022C1000020C100001EC100001CC1000030
:100050001AC1000018C1000016C1000043C400000E
:1000600012C1000010C100000EC100000CC1000050
:100070000AC1000008C1000006C1000004C1000060
:1000800002C1000000C10000FEC00000FCC0000072
:10009000FAC00000F8C00000F6C00000F4C0000084
:1000A000F2C00000F0C00000EEC00000ECC0000094
:1000B000EAC00000E8C00000E6C00000E4C00000A4
:1000C000E2C00000E0C00000DEC00000D5C30000B8
:1000D000AAC30000D8C00000D6C00000D4C00000F1
:1000E000D2C00000B602B902A802AC02B202F0020D
:1000F000BD02C102C702CB02CF02D502D902DD0286
:10010000F002E302E702EB020000210024002700D6
:100110002A002D0030003300010100000401070116
:100120000A0100002200250028002B002E003100CB
:10013000340002010000050108010B01000020004D
:100140002300260029002C002F00320000010000AF
:10015000030106010901050505050705080808084A
:10016000020202020A0A080804040404010101014F
:10017000010101010303030303030303040707074A
:100180000C0C0C0C0C0C0C0C0202020206060606EF
:10019000060606060B0B0B0B0B0B0B0B01021020BC
:1001A00020080810204010204080020102010804AD
:1001B0000201010204081020408080402010080441
:1001C000020180040201804020100804020108049A
:1001D00002010102040810204080010204081020DE
:1001E000408000000A0B02090C0D0E0807030401F1
:1001F00000000000000000000000000000000000FF
:1002000000000000000000000000000000001211CB
:1002100010000000000000000000000000000000CE
:100220000000000000000000BC0411241FBECFEF3E
:10023000D1E2DEBFCDBF00E00CBF12E0A0E0B2E033
:10024000EEEAFEE000E00BBF02C007900D92AA3478
:10025000B107D9F723E0AAE4B2E001C01D92AF359F
:10026000B207E1F711E0C5E1D1E000E005C0219758
:100270000109802FFE010DD6C431D10780E00807A7
:10028000B1F709D412C6BCCE96E0899FD0011124E3
:10029000A051BD4F90967C936E935F9791E091969D
:1002A0009C93919790915C03E0915D03F0915E03C4
:1002B000992339F0309751F0811108C080910C03D7
:1002C00004C0309719F05C968C9119940895CF92E0
:1002D000DF92EF92FF920F931F93CF93DF936C0106
:1002E0007A018B01C0E0D0E0CE15DF0589F0D8019E
:1002F0006D918D01D601ED91FC910190F081E02D81
:10030000C6011995892B11F47E0102C02196ECCF0C
:10031000C701DF91CF911F910F91FF90EF90DF9078
:10032000CF900895089580E090E00895FC01538DEA
:10033000448D252F30E0842F90E0821B930B5417BF
:1003400010F0CF96089501970895FC01918D828D4C
:10035000981761F0828DDF01A80FB11D5D968C9119
:10036000928D9F5F9F73928F90E008958FEF9FEF24
:100370000895FC01918D828D981731F0828DE80FE0
:10038000F11D858D90E008958FEF9FEF0895FC019A
:10039000918D228D892F90E0805C9F4F821B910967
:1003A0008F739927089583E592E0F1DF21E0892B8F
:1003B00009F420E0822F0895FC01848DDF01A80F4D
:1003C000B11DA35ABF4F2C91848D90E001968F737D
:1003D0009927848FA689B7892C93A089B1898C919C
:1003E00080648C93938D848D981306C00288F38962
:1003F000E02D80818F7D80830895EF92FF920F938F
:100400001F93CF93DF93EC0181E0888F9B8D8C8DC0
:10041000981305C0E889F989808185FD23C0F62EEF
:100420000B8D10E00F5F1F4F0F731127E02E8C8D87
:10043000E8120BC00FB607FCFACFE889F989808172
:1004400085FFF5CFCE01B8DFF2CF8B8DFE01E80F2F
:10045000F11DE35AFF4FF0820B8FEA89FB898081FF
:10046000806207C0EE89FF896083E889F98980810D
:100470008064808381E090E0DF91CF911F910F91A4
:10048000FF90EF900895CF93DF93EC01888D882340
:10049000C1F0EA89FB89808185FD05C0A889B989F9
:1004A0008C9186FD0EC00FB607FCF5CF808185FFCD
:1004B000F2CFA889B9898C9185FFEDCFCE017CDF81
:1004C000E8CFDF91CF91089580E090E0892B41F053
:1004D00080E090E0892B21F00E940000811120C073
:1004E00080E090E0892B41F080E090E0892B21F0C2
:1004F0000E940000811117C080E090E0892B19F064
:1005000052DF811113C080E090E0892BA1F080E0E0
:1005100090E0892B81F00E94000081110AC00895AB
:100520000E940000DDCF0E940000E6CF0E94000084
:10053000EACF0C940000089590E0FC013197E2317D
:10054000F10508F04DC08827EE58FF4F8F4FA1C42A
:10055000809180008F7703C0809180008F7D809391
:100560008000089580918000877FF9CF84B58F77D0
:1005700002C084B58F7D84BD08958091B0008F77CF
:1005800003C08091B0008F7D8093B000089580916A
:1005900090008F7707C0809190008F7D03C080917D
:1005A0009000877F8093900008958091A0008F77BE
:1005B00007C08091A0008F7D03C08091A000877F3D
:1005C0008093A0000895809120018F7707C08091CB
:1005D00020018F7D03C080912001877F80932001BF
:1005E0000895CF93DF93282F30E0F901EE51FE4FAD
:1005F0008491F901E456FE4FD491F901EA5AFE4F75
:10060000C491CC2389F0811197DFEC2FF0E0EE0F3D
:10061000FF1FE45CFE4FA591B491EC91ED2381E0C6
:1006200090E021F480E002C080E090E0DF91CF9183
:100630000895862FD6CF1F93CF93DF93282F30E0D6
:10064000F901EE51FE4F8491F901E456FE4FD49129
:10065000F901EA5AFE4FC491CC23C1F0162F811143
:100660006BDFEC2FF0E0EE0FFF1FEE5DFE4FA5916C
:10067000B4918FB7F894111105C09C91ED2FE095BE
:10068000E92302C0EC91ED2BEC938FBFDF91CF916A
:100690001F910895862F642FCECFCF93DF9390E0E4
:1006A000FC01E456FE4F2491FC01EA5AFE4F84916E
:1006B000882361F190E0880F991FFC01E85FFE4FED
:1006C000C591D491FC01EE5DFE4FA591B4916111ED
:1006D00009C09FB7F8948881209582238883EC9184
:1006E0002E230BC0623061F49FB7F8943881822FBB
:1006F000809583238883EC912E2B2C939FBF06C07B
:100700008FB7F894E8812E2B28838FBFDF91CF918C
:100710000895862F642FC1CF2FB7F89460914F02B0
:100720007091500280915102909152022FBF089512
:100730000F931F93CF93DF93C82FD62F86E0C89FC8
:10074000F0011124E051FD4F11A2878D90A181305D
:100750009105E1F01CF4892B49F03FC082309105EE
:1007600091F10397D1F560E070E031C06623A9F103
:1007700061E070E08C2F88DDCFDF609348037093D9
:10078000490380934A0390934B0327C0C5DF009130
:1007900048031091490320914A0330914B03AB0168
:1007A000BC01401B510B620B730B80915A0390915B
:1007B0005B03A0E0B0E084179507A607B70718F41D
:1007C00062E070E004C0D11108C063E070E08C2FDB
:1007D000DF91CF911F910F9157CDDF91CF911F9155
:1007E0000F910895DF92EF92FF920F931F93CF9393
:1007F000DF937C01D62E0AE212E0C0E0D0E0CE15F5
:10080000DF0544F4025011096D2DF801808113DFDA
:100810002196F5CFDF91CF911F910F91FF90EF902F
:10082000DF9008953ED31F920F920FB60F921124BE
:100830000BB60F922F933F934F935F936F937F93DA
:100840008F939F93AF93BF93EF93FF9383E592E0D2
:10085000B3DDFF91EF91BF91AF919F918F917F9108
:100860006F915F914F913F912F910F900BBE0F9021
:100870000FBE0F901F9018951F920F920FB60F92F8
:1008800011240BB60F922F938F939F93EF93FF93A7
:10089000E0916302F09164028081E0916902F0913D
:1008A0006A0282FD12C0908180916C028F5F8F730B
:1008B00020916D02821751F0E0916C02F0E0ED5A48
:1008C000FD4F958F80936C0201C08081FF91EF9165
:1008D0009F918F912F910F900BBE0F900FBE0F9095
:1008E0001F9018951F920F920FB60F9211242F93FD
:1008F0003F938F939F93AF93BF9380914F029091BB
:100900005002A0915102B091520230914E0223E068
:10091000230F2D3720F40196A11DB11D05C026E837
:10092000230F0296A11DB11D20934E0280934F020A
:1009300090935002A0935102B093520280914A02C8
:1009400090914B02A0914C02B0914D020196A11DD5
:10095000B11D80934A0290934B02A0934C02B09336
:100960004D02BF91AF919F918F913F912F910F9029
:100970000FBE0F901F9018951092560210925502BC
:1009800088EE93E0A0E0B0E0809357029093580285
:10099000A0935902B0935A028EE292E090935402CF
:1009A0008093530285ED90E09093600280935F0204
:1009B00084ED90E0909362028093610280ED90E07C
:1009C000909364028093630281ED90E090936602BD
:1009D0008093650282ED90E09093680280936702B5
:1009E00086ED90E090936A028093690210926C0207
:1009F00010926D0210926E0210926F021092F2022B
:100A00001092F6021092F5021092F70280E492E042
:100A10009093F1028093F00280E090E0FC01E051BD
:100A2000FD4F148E10A2178E11A206968C339105DD
:100A3000A9F784E092E0909353038093520380E0FF
:100A400092E0909355038093540384E0809356037F
:100A50008093570388E092E0909351038093500372
:100A60008AE090E0909359038093580384EF91E0DB
:100A700090935B0380935A0310925E0310925D0380
:100A800010924C0310924D0310924E0310924F039C
:100A900010925C030895789484B5826084BD84B517
:100AA000816084BD85B5826085BD85B5816085BD69
:100AB00080916E00816080936E0010928100809121
:100AC00081008260809381008091810081608093A9
:100AD0008100809180008160809380008091B100CE
:100AE00084608093B1008091B00081608093B000F9
:100AF000809191008260809391008091910081604B
:100B0000809391008091900081608093900080910B
:100B1000A10082608093A1008091A10081608093F8
:100B2000A1008091A00081608093A00080912101AC
:100B30008260809321018091210181608093210155
:100B40008091200181608093200180917A008460EF
:100B500080937A0080917A00826080937A008091FD
:100B60007A00816080937A0080917A008068809317
:100B70007A001092C100E0916302F091640282E079
:100B80008083E0915F02F09160021082E091610247
:100B9000F09162028FEC808310926B02E091670209
:100BA000F091680286E08083E0916502F091660230
:100BB000808180618083E0916502F091660280818E
:100BC00088608083E0916502F09166028081806890
:100BD0008083E0916502F091660280818F7D808341
:100BE000C8E1D2E08881229661E057DD82E0CA3216
:100BF000D807C1F760E070E089E090E0F3DD412CB8
:100C0000512C32014394CC24CA94DC2C81E0809393
:100C10005C0382DD00914C0310914D0320914E0343
:100C200030914F03AB01BC01401B510B620B730BA6
:100C30008091580390915903A0E0B0E08417950784
:100C4000A607B70708F0FEC0C0E080915603C8179A
:100C500058F4E0915203F0915303EC0FF11D62E060
:100C600080811BDDCF5FF1CF912C809157039816C7
:100C700008F05AC0092D10E0E0915403F09155039B
:100C8000E00FF11F61E0808108DDE0915403F091F5
:100C90005503E00FF11F60E08081CDDCD301C2017C
:100CA000092C04C0880F991FAA1FBB1F0A94D2F7F2
:100CB0005C017C01E094F094812C809156038816AD
:100CC000F0F4C82DD0E0E0915203F0915303EC0F03
:100CD000FD1F808186DC2496CC0FDD1FC051DD4FC7
:100CE000892B29F4888199818A299B2904C08881CC
:100CF00099818E219F21998388838394DECFE0910F
:100D00005403F0915503E00FF11F61E0808193DC03
:100D10008091540390915503FC01E00FF11F60E0B6
:100D20008081BBDC9394A1CFECE0F3E083819481DC
:100D3000892B21F41082D282C1821582369683E0FB
:100D4000E834F80799F710E006E080915603181789
:100D500008F051C0F12CC12FD0E0CC0FDD1FC850DE
:100D6000DD4F20915703F21608F043C06881798166
:100D70000F2C02C0769567950A94E2F76170772789
:100D8000129F900111242F0D311DE0915003F0911D
:100D90005103E20FF31FA081E0EFF2E080E0458D08
:100DA000568D4217530711F461701AC08F5F369643
:100DB0008A30A9F7672BD9F0ECE0F3E080E090E00F
:100DC000408141110FC0089FF001099FF00D1124CF
:100DD000E051FD4FA48F368F258F10A2178E61E052
:100DE000A7DC05C0019636968A30910549F7F39441
:100DF000B8CF1F5FAACF80E090E0C0E0FC01E051D7
:100E0000FD4F21A12111C1E006968C339105B1F768
:100E100083DC60934C0370934D0380934E03909357
:100E20004F03CC2379F080911103882359F08091EE
:100E30000F0390911003019729F4C0910C03C11185
:100E400004C025C010925C0322C0E0915302F091CF
:100E500054020190F081E02D6C2F83E592E019950A
:100E600042E050E066E472E083E592E030DA80ED43
:100E70008C0F8A3038F48C2FCC0F990B61E070E026
:100E8000C09704C060E070E089E090E0ABDC1CDB60
:100E9000BDCEEE0FFF1F881F8BBF0790F691E02D90
:0E0EA000199481E090E0F89400C0F894FFCF20
:100EAE001F21232517191B1D373839B73435362A1C
:100EBE003132332D43303D2B000001000200030080
:100ECE000400050006000700080000000000FD01F8
:100EDE00670196014302C701A501B9010000000098
:0A0EEE0089034A0319030D0A0000EE
:00000001FF
